{
  "_format": "hh-sol-artifact-1",
  "contractName": "Timelock",
  "sourceName": "contracts/timelock.sol",
  "abi": [
    {
      "anonymous": false,
      "inputs": [
        {
          "indexed": false,
          "internalType": "address",
          "name": "previousAdmin",
          "type": "address"
        },
        {
          "indexed": false,
          "internalType": "address",
          "name": "newAdmin",
          "type": "address"
        }
      ],
      "name": "AdminChanged",
      "type": "event"
    },
    {
      "anonymous": false,
      "inputs": [
        {
          "indexed": true,
          "internalType": "address",
          "name": "beacon",
          "type": "address"
        }
      ],
      "name": "BeaconUpgraded",
      "type": "event"
    },
    {
      "anonymous": false,
      "inputs": [
        {
          "indexed": true,
          "internalType": "bytes32",
          "name": "txHash",
          "type": "bytes32"
        },
        {
          "indexed": true,
          "internalType": "address",
          "name": "target",
          "type": "address"
        },
        {
          "indexed": false,
          "internalType": "uint256",
          "name": "value",
          "type": "uint256"
        },
        {
          "indexed": false,
          "internalType": "string",
          "name": "signature",
          "type": "string"
        },
        {
          "indexed": false,
          "internalType": "bytes",
          "name": "data",
          "type": "bytes"
        },
        {
          "indexed": false,
          "internalType": "uint256",
          "name": "eta",
          "type": "uint256"
        }
      ],
      "name": "CancelTransaction",
      "type": "event"
    },
    {
      "anonymous": false,
      "inputs": [
        {
          "indexed": true,
          "internalType": "bytes32",
          "name": "txHash",
          "type": "bytes32"
        },
        {
          "indexed": true,
          "internalType": "address",
          "name": "target",
          "type": "address"
        },
        {
          "indexed": false,
          "internalType": "uint256",
          "name": "value",
          "type": "uint256"
        },
        {
          "indexed": false,
          "internalType": "string",
          "name": "signature",
          "type": "string"
        },
        {
          "indexed": false,
          "internalType": "bytes",
          "name": "data",
          "type": "bytes"
        },
        {
          "indexed": false,
          "internalType": "uint256",
          "name": "eta",
          "type": "uint256"
        }
      ],
      "name": "ExecuteTransaction",
      "type": "event"
    },
    {
      "anonymous": false,
      "inputs": [
        {
          "indexed": true,
          "internalType": "address",
          "name": "newAdmin",
          "type": "address"
        }
      ],
      "name": "NewAdmin",
      "type": "event"
    },
    {
      "anonymous": false,
      "inputs": [
        {
          "indexed": true,
          "internalType": "uint256",
          "name": "newDelay",
          "type": "uint256"
        }
      ],
      "name": "NewDelay",
      "type": "event"
    },
    {
      "anonymous": false,
      "inputs": [
        {
          "indexed": true,
          "internalType": "address",
          "name": "newPendingAdmin",
          "type": "address"
        }
      ],
      "name": "NewPendingAdmin",
      "type": "event"
    },
    {
      "anonymous": false,
      "inputs": [
        {
          "indexed": true,
          "internalType": "bytes32",
          "name": "txHash",
          "type": "bytes32"
        },
        {
          "indexed": true,
          "internalType": "address",
          "name": "target",
          "type": "address"
        },
        {
          "indexed": false,
          "internalType": "uint256",
          "name": "value",
          "type": "uint256"
        },
        {
          "indexed": false,
          "internalType": "string",
          "name": "signature",
          "type": "string"
        },
        {
          "indexed": false,
          "internalType": "bytes",
          "name": "data",
          "type": "bytes"
        },
        {
          "indexed": false,
          "internalType": "uint256",
          "name": "eta",
          "type": "uint256"
        }
      ],
      "name": "QueueTransaction",
      "type": "event"
    },
    {
      "anonymous": false,
      "inputs": [
        {
          "indexed": true,
          "internalType": "address",
          "name": "implementation",
          "type": "address"
        }
      ],
      "name": "Upgraded",
      "type": "event"
    },
    {
      "inputs": [],
      "name": "GRACE_PERIOD",
      "outputs": [
        {
          "internalType": "uint256",
          "name": "",
          "type": "uint256"
        }
      ],
      "stateMutability": "view",
      "type": "function"
    },
    {
      "inputs": [],
      "name": "MAXIMUM_DELAY",
      "outputs": [
        {
          "internalType": "uint256",
          "name": "",
          "type": "uint256"
        }
      ],
      "stateMutability": "view",
      "type": "function"
    },
    {
      "inputs": [],
      "name": "MINIMUM_DELAY",
      "outputs": [
        {
          "internalType": "uint256",
          "name": "",
          "type": "uint256"
        }
      ],
      "stateMutability": "view",
      "type": "function"
    },
    {
      "inputs": [],
      "name": "acceptAdmin",
      "outputs": [],
      "stateMutability": "nonpayable",
      "type": "function"
    },
    {
      "inputs": [],
      "name": "admin",
      "outputs": [
        {
          "internalType": "address",
          "name": "",
          "type": "address"
        }
      ],
      "stateMutability": "view",
      "type": "function"
    },
    {
      "inputs": [],
      "name": "adminInitialized",
      "outputs": [
        {
          "internalType": "bool",
          "name": "",
          "type": "bool"
        }
      ],
      "stateMutability": "view",
      "type": "function"
    },
    {
      "inputs": [
        {
          "internalType": "address",
          "name": "target",
          "type": "address"
        },
        {
          "internalType": "uint256",
          "name": "value",
          "type": "uint256"
        },
        {
          "internalType": "string",
          "name": "signature",
          "type": "string"
        },
        {
          "internalType": "bytes",
          "name": "data",
          "type": "bytes"
        },
        {
          "internalType": "uint256",
          "name": "eta",
          "type": "uint256"
        }
      ],
      "name": "cancelTransaction",
      "outputs": [],
      "stateMutability": "nonpayable",
      "type": "function"
    },
    {
      "inputs": [],
      "name": "delay",
      "outputs": [
        {
          "internalType": "uint256",
          "name": "",
          "type": "uint256"
        }
      ],
      "stateMutability": "view",
      "type": "function"
    },
    {
      "inputs": [
        {
          "internalType": "address",
          "name": "target",
          "type": "address"
        },
        {
          "internalType": "uint256",
          "name": "value",
          "type": "uint256"
        },
        {
          "internalType": "string",
          "name": "signature",
          "type": "string"
        },
        {
          "internalType": "bytes",
          "name": "data",
          "type": "bytes"
        },
        {
          "internalType": "uint256",
          "name": "eta",
          "type": "uint256"
        }
      ],
      "name": "executeTransaction",
      "outputs": [
        {
          "internalType": "bytes",
          "name": "",
          "type": "bytes"
        }
      ],
      "stateMutability": "payable",
      "type": "function"
    },
    {
      "inputs": [
        {
          "internalType": "address",
          "name": "admin_",
          "type": "address"
        },
        {
          "internalType": "uint256",
          "name": "delay_",
          "type": "uint256"
        }
      ],
      "name": "initialize",
      "outputs": [],
      "stateMutability": "nonpayable",
      "type": "function"
    },
    {
      "inputs": [],
      "name": "pendingAdmin",
      "outputs": [
        {
          "internalType": "address",
          "name": "",
          "type": "address"
        }
      ],
      "stateMutability": "view",
      "type": "function"
    },
    {
      "inputs": [
        {
          "internalType": "address",
          "name": "target",
          "type": "address"
        },
        {
          "internalType": "uint256",
          "name": "value",
          "type": "uint256"
        },
        {
          "internalType": "string",
          "name": "signature",
          "type": "string"
        },
        {
          "internalType": "bytes",
          "name": "data",
          "type": "bytes"
        },
        {
          "internalType": "uint256",
          "name": "eta",
          "type": "uint256"
        }
      ],
      "name": "queueTransaction",
      "outputs": [
        {
          "internalType": "bytes32",
          "name": "",
          "type": "bytes32"
        }
      ],
      "stateMutability": "nonpayable",
      "type": "function"
    },
    {
      "inputs": [
        {
          "internalType": "bytes32",
          "name": "",
          "type": "bytes32"
        }
      ],
      "name": "queuedTransactions",
      "outputs": [
        {
          "internalType": "bool",
          "name": "",
          "type": "bool"
        }
      ],
      "stateMutability": "view",
      "type": "function"
    },
    {
      "inputs": [
        {
          "internalType": "uint256",
          "name": "delay_",
          "type": "uint256"
        }
      ],
      "name": "setDelay",
      "outputs": [],
      "stateMutability": "nonpayable",
      "type": "function"
    },
    {
      "inputs": [
        {
          "internalType": "address",
          "name": "pendingAdmin_",
          "type": "address"
        }
      ],
      "name": "setPendingAdmin",
      "outputs": [],
      "stateMutability": "nonpayable",
      "type": "function"
    },
    {
      "inputs": [
        {
          "internalType": "address",
          "name": "newImplementation",
          "type": "address"
        }
      ],
      "name": "upgradeTo",
      "outputs": [],
      "stateMutability": "nonpayable",
      "type": "function"
    },
    {
      "inputs": [
        {
          "internalType": "address",
          "name": "newImplementation",
          "type": "address"
        },
        {
          "internalType": "bytes",
          "name": "data",
          "type": "bytes"
        }
      ],
      "name": "upgradeToAndCall",
      "outputs": [],
      "stateMutability": "payable",
      "type": "function"
    },
    {
      "stateMutability": "payable",
      "type": "receive"
    }
  ],
  "bytecode": "0x60a06040523060601b60805234801561001757600080fd5b5060805160601c611a2261004b600039600081816107f70152818161083701528181610c410152610c810152611a226000f3fe6080604052600436106101025760003560e01c80636a42b8f811610095578063c1a287e211610064578063c1a287e214610293578063cd6dc687146102aa578063e177246e146102ca578063f2b06537146102ea578063f851a4401461031a57610109565b80636a42b8f8146102275780637d645fab1461023d578063b1b43ae514610254578063bda183241461026957610109565b80633a66f901116100d15780633a66f901146101a65780634dd18bf5146101d45780634f1ef286146101f4578063591fcdfe1461020757610109565b80630825f38f1461010e5780630e18b68114610137578063267822471461014e5780633659cfe61461018657610109565b3661010957005b600080fd5b61012161011c366004611680565b61033a565b60405161012e91906117f6565b60405180910390f35b34801561014357600080fd5b5061014c610716565b005b34801561015a57600080fd5b5060665461016e906001600160a01b031681565b6040516001600160a01b03909116815260200161012e565b34801561019257600080fd5b5061014c6101a13660046115f1565b6107ec565b3480156101b257600080fd5b506101c66101c1366004611680565b6108b5565b60405190815260200161012e565b3480156101e057600080fd5b5061014c6101ef3660046115f1565b610a6a565b61014c61020236600461160b565b610c36565b34801561021357600080fd5b5061014c610222366004611680565b610cf0565b34801561023357600080fd5b506101c660675481565b34801561024957600080fd5b506101c662278d0081565b34801561026057600080fd5b506101c6600181565b34801561027557600080fd5b506068546102839060ff1681565b604051901515815260200161012e565b34801561029f57600080fd5b506101c66212750081565b3480156102b657600080fd5b5061014c6102c5366004611657565b610e0a565b3480156102d657600080fd5b5061014c6102e5366004611719565b610ff2565b3480156102f657600080fd5b50610283610305366004611719565b60696020526000908152604090205460ff1681565b34801561032657600080fd5b5060655461016e906001600160a01b031681565b60606001600160a01b0386166103ad5760405162461bcd60e51b815260206004820152602d60248201527f54696d656c6f636b3a3a657865637574655472616e73616374696f6e3a20496e60448201526c76616c6964206164647265737360981b60648201526084015b60405180910390fd5b6065546001600160a01b0316331461042d5760405162461bcd60e51b815260206004820152603860248201527f54696d656c6f636b3a3a657865637574655472616e73616374696f6e3a20436160448201527f6c6c206d75737420636f6d652066726f6d2061646d696e2e000000000000000060648201526084016103a4565b600086868686866040516020016104489594939291906117aa565b60408051601f1981840301815291815281516020928301206000818152606990935291205490915060ff166104d35760405162461bcd60e51b815260206004820152603d60248201526000805160206119a683398151915260448201527f616e73616374696f6e206861736e2774206265656e207175657565642e00000060648201526084016103a4565b824210156105455760405162461bcd60e51b815260206004820152604560248201526000805160206119a683398151915260448201527f616e73616374696f6e206861736e2774207375727061737365642074696d65206064820152643637b1b59760d91b608482015260a4016103a4565b610552836212750061111f565b4211156105ab5760405162461bcd60e51b815260206004820152603360248201526000805160206119a683398151915260448201527230b739b0b1ba34b7b71034b99039ba30b6329760691b60648201526084016103a4565b6000818152606960205260409020805460ff1916905584516060906105d15750836105fd565b8580519060200120856040516020016105eb92919061175d565b60405160208183030381529060405290505b600080896001600160a01b03168984604051610619919061178e565b60006040518083038185875af1925050503d8060008114610656576040519150601f19603f3d011682016040523d82523d6000602084013e61065b565b606091505b5091509150816106c15760405162461bcd60e51b815260206004820152603d60248201526000805160206119a683398151915260448201527f616e73616374696f6e20657865637574696f6e2072657665727465642e00000060648201526084016103a4565b896001600160a01b0316847fa560e3198060a2f10670c1ec5b403077ea6ae93ca8de1c32b451dc1a943cd6e78b8b8b8b60405161070194939291906118fe565b60405180910390a39998505050505050505050565b6066546001600160a01b031633146107965760405162461bcd60e51b815260206004820152603860248201527f54696d656c6f636b3a3a61636365707441646d696e3a2043616c6c206d75737460448201527f20636f6d652066726f6d2070656e64696e6741646d696e2e000000000000000060648201526084016103a4565b60658054336001600160a01b031991821617918290556066805490911690556040516001600160a01b03909116907f71614071b88dee5e0b2ae578a9dd7b2ebbe9ae832ba419dc0242cd065a290b6c90600090a2565b306001600160a01b037f00000000000000000000000000000000000000000000000000000000000000001614156108355760405162461bcd60e51b81526004016103a490611809565b7f00000000000000000000000000000000000000000000000000000000000000006001600160a01b0316610867611132565b6001600160a01b03161461088d5760405162461bcd60e51b81526004016103a490611855565b61089681611160565b604080516000808252602082019092526108b2918391906111c8565b50565b6065546000906001600160a01b031633146109315760405162461bcd60e51b815260206004820152603660248201527f54696d656c6f636b3a3a71756575655472616e73616374696f6e3a2043616c6c6044820152751036bab9ba1031b7b6b290333937b69030b236b4b71760511b60648201526084016103a4565b61094460675461093e4290565b9061111f565b8210156109cb5760405162461bcd60e51b815260206004820152604960248201527f54696d656c6f636b3a3a71756575655472616e73616374696f6e3a204573746960448201527f6d6174656420657865637574696f6e20626c6f636b206d757374207361746973606482015268333c903232b630bc9760b91b608482015260a4016103a4565b600086868686866040516020016109e69594939291906117aa565b60408051601f19818403018152828252805160209182012060008181526069909252919020805460ff1916600117905591506001600160a01b0388169082907f76e2796dc3a81d57b0e8504b647febcbeeb5f4af818e164f11eef8131a6a763f90610a58908a908a908a908a906118fe565b60405180910390a39695505050505050565b6001600160a01b038116610ad35760405162461bcd60e51b815260206004820152602a60248201527f54696d656c6f636b3a3a73657450656e64696e6741646d696e3a20496e76616c6044820152696964206164647265737360b01b60648201526084016103a4565b60685460ff1615610b5857333014610b535760405162461bcd60e51b815260206004820152603860248201527f54696d656c6f636b3a3a73657450656e64696e6741646d696e3a2043616c6c2060448201527f6d75737420636f6d652066726f6d2054696d656c6f636b2e000000000000000060648201526084016103a4565b610be6565b6065546001600160a01b03163314610bd85760405162461bcd60e51b815260206004820152603b60248201527f54696d656c6f636b3a3a73657450656e64696e6741646d696e3a20466972737460448201527f2063616c6c206d75737420636f6d652066726f6d2061646d696e2e000000000060648201526084016103a4565b6068805460ff191660011790555b606680546001600160a01b0319166001600160a01b0383811691909117918290556040519116907f69d78e38a01985fbb1462961809b4b2d65531bc93b2b94037f3334b82ca4a75690600090a250565b306001600160a01b037f0000000000000000000000000000000000000000000000000000000000000000161415610c7f5760405162461bcd60e51b81526004016103a490611809565b7f00000000000000000000000000000000000000000000000000000000000000006001600160a01b0316610cb1611132565b6001600160a01b031614610cd75760405162461bcd60e51b81526004016103a490611855565b610ce082611160565b610cec828260016111c8565b5050565b6065546001600160a01b03163314610d705760405162461bcd60e51b815260206004820152603760248201527f54696d656c6f636b3a3a63616e63656c5472616e73616374696f6e3a2043616c60448201527f6c206d75737420636f6d652066726f6d2061646d696e2e00000000000000000060648201526084016103a4565b60008585858585604051602001610d8b9594939291906117aa565b60408051601f19818403018152828252805160209182012060008181526069909252919020805460ff1916905591506001600160a01b0387169082907f2fffc091a501fd91bfbff27141450d3acb40fb8e6d8382b243ec7a812a3aaf8790610dfa9089908990899089906118fe565b60405180910390a3505050505050565b600054610100900460ff16610e255760005460ff1615610e2d565b610e2d611313565b610e905760405162461bcd60e51b815260206004820152602e60248201527f496e697469616c697a61626c653a20636f6e747261637420697320616c72656160448201526d191e481a5b9a5d1a585b1a5e995960921b60648201526084016103a4565b600054610100900460ff16158015610ebb576000805460ff1961ff0019909116610100171660011790555b6001600160a01b038316610f215760405162461bcd60e51b815260206004820152602760248201527f54696d656c6f636b3a3a636f6e7374727563746f723a20496e76616c6964206160448201526632323932b9b99760c91b60648201526084016103a4565b6001821015610f985760405162461bcd60e51b815260206004820152603760248201527f54696d656c6f636b3a3a636f6e7374727563746f723a2044656c6179206d757360448201527f7420657863656564206d696e696d756d2064656c61792e00000000000000000060648201526084016103a4565b62278d00821115610fbb5760405162461bcd60e51b81526004016103a4906118a1565b606580546001600160a01b0319166001600160a01b03851617905560678290558015610fed576000805461ff00191690555b505050565b33301461105b5760405162461bcd60e51b815260206004820152603160248201527f54696d656c6f636b3a3a73657444656c61793a2043616c6c206d75737420636f60448201527036b290333937b6902a34b6b2b637b1b59760791b60648201526084016103a4565b60018110156110c95760405162461bcd60e51b815260206004820152603460248201527f54696d656c6f636b3a3a73657444656c61793a2044656c6179206d75737420656044820152733c31b2b2b21036b4b734b6bab6903232b630bc9760611b60648201526084016103a4565b62278d008111156110ec5760405162461bcd60e51b81526004016103a4906118a1565b606781905560405181907f948b1f6a42ee138b7e34058ba85a37f716d55ff25ff05a763f15bed6a04c8d2c90600090a250565b600061112b828461193b565b9392505050565b7f360894a13ba1a3210667c828492db98dca3e2076cc3735a920a3ca505d382bbc546001600160a01b031690565b6065546001600160a01b031633146108b25760405162461bcd60e51b815260206004820152602560248201527f4f6e6c792061646d696e2063616e207570677261646520696d706c656d656e7460448201526430ba34b7b760d91b60648201526084016103a4565b60006111d2611132565b90506111dd84611324565b6000835111806111ea5750815b156111fb576111f984846113d0565b505b7f4910fdfa16fed3260ed0e7147f7cc6da11a60208b5b9406d12a635614ffd9143805460ff1661130c57805460ff191660011781556040516001600160a01b038316602482015261127a90869060440160408051601f198184030181529190526020810180516001600160e01b0316631b2ce7f360e11b1790526113d0565b50805460ff1916815561128b611132565b6001600160a01b0316826001600160a01b0316146113035760405162461bcd60e51b815260206004820152602f60248201527f45524331393637557067726164653a207570677261646520627265616b73206660448201526e75727468657220757067726164657360881b60648201526084016103a4565b61130c856114c2565b5050505050565b600061131e30611502565b15905090565b61132d81611502565b61138f5760405162461bcd60e51b815260206004820152602d60248201527f455243313936373a206e657720696d706c656d656e746174696f6e206973206e60448201526c1bdd08184818dbdb9d1c9858dd609a1b60648201526084016103a4565b7f360894a13ba1a3210667c828492db98dca3e2076cc3735a920a3ca505d382bbc80546001600160a01b0319166001600160a01b0392909216919091179055565b60606113db83611502565b6114365760405162461bcd60e51b815260206004820152602660248201527f416464726573733a2064656c65676174652063616c6c20746f206e6f6e2d636f6044820152651b9d1c9858dd60d21b60648201526084016103a4565b600080846001600160a01b031684604051611451919061178e565b600060405180830381855af49150503d806000811461148c576040519150601f19603f3d011682016040523d82523d6000602084013e611491565b606091505b50915091506114b982826040518060600160405280602781526020016119c66027913961150c565b95945050505050565b6114cb81611324565b6040516001600160a01b038216907fbc7cd75a20ee27fd9adebab32041f755214dbc6bffa90cc0225b39da2e5c2d3b90600090a250565b803b15155b919050565b6060831561151b57508161112b565b82511561152b5782518084602001fd5b8160405162461bcd60e51b81526004016103a491906117f6565b600067ffffffffffffffff808411156115605761156061198f565b604051601f8501601f19908116603f011681019082821181831017156115885761158861198f565b816040528093508581528686860111156115a157600080fd5b858560208301376000602087830101525050509392505050565b80356001600160a01b038116811461150757600080fd5b600082601f8301126115e2578081fd5b61112b83833560208501611545565b600060208284031215611602578081fd5b61112b826115bb565b6000806040838503121561161d578081fd5b611626836115bb565b9150602083013567ffffffffffffffff811115611641578182fd5b61164d858286016115d2565b9150509250929050565b60008060408385031215611669578182fd5b611672836115bb565b946020939093013593505050565b600080600080600060a08688031215611697578081fd5b6116a0866115bb565b945060208601359350604086013567ffffffffffffffff808211156116c3578283fd5b818801915088601f8301126116d6578283fd5b6116e589833560208501611545565b945060608801359150808211156116fa578283fd5b50611707888289016115d2565b95989497509295608001359392505050565b60006020828403121561172a578081fd5b5035919050565b6000815180845261174981602086016020860161195f565b601f01601f19169290920160200192915050565b6001600160e01b031983168152815160009061178081600485016020870161195f565b919091016004019392505050565b600082516117a081846020870161195f565b9190910192915050565b600060018060a01b038716825285602083015260a060408301526117d160a0830186611731565b82810360608401526117e38186611731565b9150508260808301529695505050505050565b60006020825261112b6020830184611731565b6020808252602c908201527f46756e6374696f6e206d7573742062652063616c6c6564207468726f7567682060408201526b19195b1959d85d1958d85b1b60a21b606082015260800190565b6020808252602c908201527f46756e6374696f6e206d7573742062652063616c6c6564207468726f7567682060408201526b6163746976652070726f787960a01b606082015260800190565b60208082526038908201527f54696d656c6f636b3a3a73657444656c61793a2044656c6179206d757374206e60408201527f6f7420657863656564206d6178696d756d2064656c61792e0000000000000000606082015260800190565b6000858252608060208301526119176080830186611731565b82810360408401526119298186611731565b91505082606083015295945050505050565b6000821982111561195a57634e487b7160e01b81526011600452602481fd5b500190565b60005b8381101561197a578181015183820152602001611962565b83811115611989576000848401525b50505050565b634e487b7160e01b600052604160045260246000fdfe54696d656c6f636b3a3a657865637574655472616e73616374696f6e3a205472416464726573733a206c6f772d6c6576656c2064656c65676174652063616c6c206661696c6564a26469706673582212207754f08c89c04a979c0bed0618a98399bd35ea04dd4ab77a072ab646d9b01b0064736f6c63430008020033",
  "linkReferences": {},
  "deployedLinkReferences": {}
}