{
  "_format": "hh-sol-artifact-1",
  "contractName": "Drealm",
  "sourceName": "contracts/drealm.sol",
  "abi": [
    {
      "anonymous": false,
      "inputs": [
        {
          "indexed": false,
          "internalType": "address",
          "name": "previousAdmin",
          "type": "address"
        },
        {
          "indexed": false,
          "internalType": "address",
          "name": "newAdmin",
          "type": "address"
        }
      ],
      "name": "AdminChanged",
      "type": "event"
    },
    {
      "anonymous": false,
      "inputs": [
        {
          "indexed": false,
          "internalType": "address",
          "name": "newAdmin",
          "type": "address"
        }
      ],
      "name": "AdminUpdated",
      "type": "event"
    },
    {
      "anonymous": false,
      "inputs": [
        {
          "indexed": true,
          "internalType": "address",
          "name": "owner",
          "type": "address"
        },
        {
          "indexed": true,
          "internalType": "address",
          "name": "spender",
          "type": "address"
        },
        {
          "indexed": false,
          "internalType": "uint256",
          "name": "value",
          "type": "uint256"
        }
      ],
      "name": "Approval",
      "type": "event"
    },
    {
      "anonymous": false,
      "inputs": [
        {
          "indexed": true,
          "internalType": "address",
          "name": "beacon",
          "type": "address"
        }
      ],
      "name": "BeaconUpgraded",
      "type": "event"
    },
    {
      "anonymous": false,
      "inputs": [
        {
          "indexed": true,
          "internalType": "address",
          "name": "delegator",
          "type": "address"
        },
        {
          "indexed": true,
          "internalType": "address",
          "name": "fromDelegate",
          "type": "address"
        },
        {
          "indexed": true,
          "internalType": "address",
          "name": "toDelegate",
          "type": "address"
        }
      ],
      "name": "DelegateChanged",
      "type": "event"
    },
    {
      "anonymous": false,
      "inputs": [
        {
          "indexed": true,
          "internalType": "address",
          "name": "delegate",
          "type": "address"
        },
        {
          "indexed": false,
          "internalType": "uint256",
          "name": "previousBalance",
          "type": "uint256"
        },
        {
          "indexed": false,
          "internalType": "uint256",
          "name": "newBalance",
          "type": "uint256"
        }
      ],
      "name": "DelegateVotesChanged",
      "type": "event"
    },
    {
      "anonymous": false,
      "inputs": [
        {
          "indexed": true,
          "internalType": "address",
          "name": "user",
          "type": "address"
        },
        {
          "indexed": true,
          "internalType": "uint256",
          "name": "pid",
          "type": "uint256"
        },
        {
          "indexed": false,
          "internalType": "uint256",
          "name": "amount",
          "type": "uint256"
        }
      ],
      "name": "Deposit",
      "type": "event"
    },
    {
      "anonymous": false,
      "inputs": [
        {
          "indexed": true,
          "internalType": "address",
          "name": "user",
          "type": "address"
        },
        {
          "indexed": true,
          "internalType": "uint256",
          "name": "pid",
          "type": "uint256"
        },
        {
          "indexed": false,
          "internalType": "uint256",
          "name": "amount",
          "type": "uint256"
        }
      ],
      "name": "EmergencyWithdraw",
      "type": "event"
    },
    {
      "anonymous": false,
      "inputs": [
        {
          "indexed": true,
          "internalType": "address",
          "name": "previousOwner",
          "type": "address"
        },
        {
          "indexed": true,
          "internalType": "address",
          "name": "newOwner",
          "type": "address"
        }
      ],
      "name": "OwnershipTransferred",
      "type": "event"
    },
    {
      "anonymous": false,
      "inputs": [
        {
          "indexed": false,
          "internalType": "address",
          "name": "account",
          "type": "address"
        }
      ],
      "name": "Paused",
      "type": "event"
    },
    {
      "anonymous": false,
      "inputs": [
        {
          "indexed": true,
          "internalType": "address",
          "name": "from",
          "type": "address"
        },
        {
          "indexed": true,
          "internalType": "address",
          "name": "to",
          "type": "address"
        },
        {
          "indexed": false,
          "internalType": "uint256",
          "name": "value",
          "type": "uint256"
        }
      ],
      "name": "Transfer",
      "type": "event"
    },
    {
      "anonymous": false,
      "inputs": [
        {
          "indexed": false,
          "internalType": "address",
          "name": "account",
          "type": "address"
        }
      ],
      "name": "Unpaused",
      "type": "event"
    },
    {
      "anonymous": false,
      "inputs": [
        {
          "indexed": true,
          "internalType": "address",
          "name": "implementation",
          "type": "address"
        }
      ],
      "name": "Upgraded",
      "type": "event"
    },
    {
      "anonymous": false,
      "inputs": [
        {
          "indexed": true,
          "internalType": "address",
          "name": "user",
          "type": "address"
        },
        {
          "indexed": true,
          "internalType": "uint256",
          "name": "pid",
          "type": "uint256"
        },
        {
          "indexed": false,
          "internalType": "uint256",
          "name": "amount",
          "type": "uint256"
        }
      ],
      "name": "Withdraw",
      "type": "event"
    },
    {
      "inputs": [],
      "name": "BONUS_MULTIPLIER",
      "outputs": [
        {
          "internalType": "uint256",
          "name": "",
          "type": "uint256"
        }
      ],
      "stateMutability": "view",
      "type": "function"
    },
    {
      "inputs": [],
      "name": "DOMAIN_SEPARATOR",
      "outputs": [
        {
          "internalType": "bytes32",
          "name": "",
          "type": "bytes32"
        }
      ],
      "stateMutability": "view",
      "type": "function"
    },
    {
      "inputs": [],
      "name": "REALM",
      "outputs": [
        {
          "internalType": "contract IERC20Upgradeable",
          "name": "",
          "type": "address"
        }
      ],
      "stateMutability": "view",
      "type": "function"
    },
    {
      "inputs": [
        {
          "internalType": "uint256",
          "name": "_pid",
          "type": "uint256"
        },
        {
          "internalType": "address",
          "name": "_to",
          "type": "address"
        },
        {
          "internalType": "uint256",
          "name": "_amount",
          "type": "uint256"
        }
      ],
      "name": "accessREALMTokens",
      "outputs": [],
      "stateMutability": "nonpayable",
      "type": "function"
    },
    {
      "inputs": [
        {
          "internalType": "uint256",
          "name": "_allocPoint",
          "type": "uint256"
        },
        {
          "internalType": "contract IERC20Upgradeable",
          "name": "_lpToken",
          "type": "address"
        },
        {
          "internalType": "bool",
          "name": "_withUpdate",
          "type": "bool"
        }
      ],
      "name": "add",
      "outputs": [],
      "stateMutability": "nonpayable",
      "type": "function"
    },
    {
      "inputs": [
        {
          "internalType": "address",
          "name": "_adminAddress",
          "type": "address"
        }
      ],
      "name": "admin",
      "outputs": [],
      "stateMutability": "nonpayable",
      "type": "function"
    },
    {
      "inputs": [],
      "name": "adminAddress",
      "outputs": [
        {
          "internalType": "address",
          "name": "",
          "type": "address"
        }
      ],
      "stateMutability": "view",
      "type": "function"
    },
    {
      "inputs": [
        {
          "internalType": "address",
          "name": "owner",
          "type": "address"
        },
        {
          "internalType": "address",
          "name": "spender",
          "type": "address"
        }
      ],
      "name": "allowance",
      "outputs": [
        {
          "internalType": "uint256",
          "name": "",
          "type": "uint256"
        }
      ],
      "stateMutability": "view",
      "type": "function"
    },
    {
      "inputs": [
        {
          "internalType": "address",
          "name": "spender",
          "type": "address"
        },
        {
          "internalType": "uint256",
          "name": "amount",
          "type": "uint256"
        }
      ],
      "name": "approve",
      "outputs": [
        {
          "internalType": "bool",
          "name": "",
          "type": "bool"
        }
      ],
      "stateMutability": "nonpayable",
      "type": "function"
    },
    {
      "inputs": [
        {
          "internalType": "address",
          "name": "account",
          "type": "address"
        }
      ],
      "name": "balanceOf",
      "outputs": [
        {
          "internalType": "uint256",
          "name": "",
          "type": "uint256"
        }
      ],
      "stateMutability": "view",
      "type": "function"
    },
    {
      "inputs": [
        {
          "internalType": "uint256",
          "name": "_pid",
          "type": "uint256"
        },
        {
          "internalType": "address",
          "name": "user",
          "type": "address"
        }
      ],
      "name": "checkHighestStaker",
      "outputs": [
        {
          "internalType": "bool",
          "name": "",
          "type": "bool"
        }
      ],
      "stateMutability": "view",
      "type": "function"
    },
    {
      "inputs": [
        {
          "internalType": "address",
          "name": "account",
          "type": "address"
        },
        {
          "internalType": "uint32",
          "name": "pos",
          "type": "uint32"
        }
      ],
      "name": "checkpoints",
      "outputs": [
        {
          "components": [
            {
              "internalType": "uint32",
              "name": "fromBlock",
              "type": "uint32"
            },
            {
              "internalType": "uint224",
              "name": "votes",
              "type": "uint224"
            }
          ],
          "internalType": "struct ERC20VotesUpgradeable.Checkpoint",
          "name": "",
          "type": "tuple"
        }
      ],
      "stateMutability": "view",
      "type": "function"
    },
    {
      "inputs": [
        {
          "internalType": "uint256",
          "name": "_pid",
          "type": "uint256"
        }
      ],
      "name": "claimREALM",
      "outputs": [],
      "stateMutability": "nonpayable",
      "type": "function"
    },
    {
      "inputs": [],
      "name": "decimals",
      "outputs": [
        {
          "internalType": "uint8",
          "name": "",
          "type": "uint8"
        }
      ],
      "stateMutability": "view",
      "type": "function"
    },
    {
      "inputs": [
        {
          "internalType": "address",
          "name": "spender",
          "type": "address"
        },
        {
          "internalType": "uint256",
          "name": "subtractedValue",
          "type": "uint256"
        }
      ],
      "name": "decreaseAllowance",
      "outputs": [
        {
          "internalType": "bool",
          "name": "",
          "type": "bool"
        }
      ],
      "stateMutability": "nonpayable",
      "type": "function"
    },
    {
      "inputs": [
        {
          "internalType": "address",
          "name": "delegatee",
          "type": "address"
        }
      ],
      "name": "delegate",
      "outputs": [],
      "stateMutability": "nonpayable",
      "type": "function"
    },
    {
      "inputs": [
        {
          "internalType": "address",
          "name": "delegatee",
          "type": "address"
        },
        {
          "internalType": "uint256",
          "name": "nonce",
          "type": "uint256"
        },
        {
          "internalType": "uint256",
          "name": "expiry",
          "type": "uint256"
        },
        {
          "internalType": "uint8",
          "name": "v",
          "type": "uint8"
        },
        {
          "internalType": "bytes32",
          "name": "r",
          "type": "bytes32"
        },
        {
          "internalType": "bytes32",
          "name": "s",
          "type": "bytes32"
        }
      ],
      "name": "delegateBySig",
      "outputs": [],
      "stateMutability": "nonpayable",
      "type": "function"
    },
    {
      "inputs": [
        {
          "internalType": "address",
          "name": "account",
          "type": "address"
        }
      ],
      "name": "delegates",
      "outputs": [
        {
          "internalType": "address",
          "name": "",
          "type": "address"
        }
      ],
      "stateMutability": "view",
      "type": "function"
    },
    {
      "inputs": [
        {
          "internalType": "uint256",
          "name": "_pid",
          "type": "uint256"
        },
        {
          "internalType": "uint256",
          "name": "_amount",
          "type": "uint256"
        }
      ],
      "name": "deposit",
      "outputs": [],
      "stateMutability": "nonpayable",
      "type": "function"
    },
    {
      "inputs": [
        {
          "internalType": "uint256",
          "name": "_from",
          "type": "uint256"
        },
        {
          "internalType": "uint256",
          "name": "_to",
          "type": "uint256"
        }
      ],
      "name": "getMultiplier",
      "outputs": [
        {
          "internalType": "uint256",
          "name": "",
          "type": "uint256"
        }
      ],
      "stateMutability": "pure",
      "type": "function"
    },
    {
      "inputs": [
        {
          "internalType": "uint256",
          "name": "blockNumber",
          "type": "uint256"
        }
      ],
      "name": "getPastTotalSupply",
      "outputs": [
        {
          "internalType": "uint256",
          "name": "",
          "type": "uint256"
        }
      ],
      "stateMutability": "view",
      "type": "function"
    },
    {
      "inputs": [
        {
          "internalType": "address",
          "name": "account",
          "type": "address"
        },
        {
          "internalType": "uint256",
          "name": "blockNumber",
          "type": "uint256"
        }
      ],
      "name": "getPastVotes",
      "outputs": [
        {
          "internalType": "uint256",
          "name": "",
          "type": "uint256"
        }
      ],
      "stateMutability": "view",
      "type": "function"
    },
    {
      "inputs": [
        {
          "internalType": "address",
          "name": "account",
          "type": "address"
        }
      ],
      "name": "getVotes",
      "outputs": [
        {
          "internalType": "uint256",
          "name": "",
          "type": "uint256"
        }
      ],
      "stateMutability": "view",
      "type": "function"
    },
    {
      "inputs": [
        {
          "internalType": "uint256",
          "name": "",
          "type": "uint256"
        },
        {
          "internalType": "uint256",
          "name": "",
          "type": "uint256"
        }
      ],
      "name": "highestStakerInPool",
      "outputs": [
        {
          "internalType": "uint256",
          "name": "deposited",
          "type": "uint256"
        },
        {
          "internalType": "address",
          "name": "addr",
          "type": "address"
        }
      ],
      "stateMutability": "view",
      "type": "function"
    },
    {
      "inputs": [
        {
          "internalType": "address",
          "name": "spender",
          "type": "address"
        },
        {
          "internalType": "uint256",
          "name": "addedValue",
          "type": "uint256"
        }
      ],
      "name": "increaseAllowance",
      "outputs": [
        {
          "internalType": "bool",
          "name": "",
          "type": "bool"
        }
      ],
      "stateMutability": "nonpayable",
      "type": "function"
    },
    {
      "inputs": [
        {
          "internalType": "contract IERC20Upgradeable",
          "name": "_realm",
          "type": "address"
        },
        {
          "internalType": "address",
          "name": "_adminAddress",
          "type": "address"
        },
        {
          "internalType": "uint256",
          "name": "_startBlock",
          "type": "uint256"
        },
        {
          "internalType": "uint256",
          "name": "_topStakerNumber",
          "type": "uint256"
        }
      ],
      "name": "initialize",
      "outputs": [],
      "stateMutability": "nonpayable",
      "type": "function"
    },
    {
      "inputs": [],
      "name": "massUpdatePools",
      "outputs": [],
      "stateMutability": "nonpayable",
      "type": "function"
    },
    {
      "inputs": [],
      "name": "name",
      "outputs": [
        {
          "internalType": "string",
          "name": "",
          "type": "string"
        }
      ],
      "stateMutability": "view",
      "type": "function"
    },
    {
      "inputs": [
        {
          "internalType": "address",
          "name": "owner",
          "type": "address"
        }
      ],
      "name": "nonces",
      "outputs": [
        {
          "internalType": "uint256",
          "name": "",
          "type": "uint256"
        }
      ],
      "stateMutability": "view",
      "type": "function"
    },
    {
      "inputs": [
        {
          "internalType": "address",
          "name": "account",
          "type": "address"
        }
      ],
      "name": "numCheckpoints",
      "outputs": [
        {
          "internalType": "uint32",
          "name": "",
          "type": "uint32"
        }
      ],
      "stateMutability": "view",
      "type": "function"
    },
    {
      "inputs": [],
      "name": "owner",
      "outputs": [
        {
          "internalType": "address",
          "name": "",
          "type": "address"
        }
      ],
      "stateMutability": "view",
      "type": "function"
    },
    {
      "inputs": [],
      "name": "paused",
      "outputs": [
        {
          "internalType": "bool",
          "name": "",
          "type": "bool"
        }
      ],
      "stateMutability": "view",
      "type": "function"
    },
    {
      "inputs": [
        {
          "internalType": "uint256",
          "name": "_pid",
          "type": "uint256"
        },
        {
          "internalType": "address",
          "name": "_user",
          "type": "address"
        }
      ],
      "name": "pendingREALM",
      "outputs": [
        {
          "internalType": "uint256",
          "name": "",
          "type": "uint256"
        }
      ],
      "stateMutability": "view",
      "type": "function"
    },
    {
      "inputs": [
        {
          "internalType": "address",
          "name": "owner",
          "type": "address"
        },
        {
          "internalType": "address",
          "name": "spender",
          "type": "address"
        },
        {
          "internalType": "uint256",
          "name": "value",
          "type": "uint256"
        },
        {
          "internalType": "uint256",
          "name": "deadline",
          "type": "uint256"
        },
        {
          "internalType": "uint8",
          "name": "v",
          "type": "uint8"
        },
        {
          "internalType": "bytes32",
          "name": "r",
          "type": "bytes32"
        },
        {
          "internalType": "bytes32",
          "name": "s",
          "type": "bytes32"
        }
      ],
      "name": "permit",
      "outputs": [],
      "stateMutability": "nonpayable",
      "type": "function"
    },
    {
      "inputs": [
        {
          "internalType": "uint256",
          "name": "",
          "type": "uint256"
        }
      ],
      "name": "poolInfo",
      "outputs": [
        {
          "internalType": "contract IERC20Upgradeable",
          "name": "lpToken",
          "type": "address"
        },
        {
          "internalType": "uint256",
          "name": "allocPoint",
          "type": "uint256"
        },
        {
          "internalType": "uint256",
          "name": "lastRewardBlock",
          "type": "uint256"
        },
        {
          "internalType": "uint256",
          "name": "accREALMPerShare",
          "type": "uint256"
        },
        {
          "internalType": "uint256",
          "name": "lastTotalREALMReward",
          "type": "uint256"
        },
        {
          "internalType": "uint256",
          "name": "lastREALMRewardBalance",
          "type": "uint256"
        },
        {
          "internalType": "uint256",
          "name": "totalREALMReward",
          "type": "uint256"
        }
      ],
      "stateMutability": "view",
      "type": "function"
    },
    {
      "inputs": [],
      "name": "poolLength",
      "outputs": [
        {
          "internalType": "uint256",
          "name": "",
          "type": "uint256"
        }
      ],
      "stateMutability": "view",
      "type": "function"
    },
    {
      "inputs": [],
      "name": "realm",
      "outputs": [
        {
          "internalType": "contract IERC20Upgradeable",
          "name": "",
          "type": "address"
        }
      ],
      "stateMutability": "view",
      "type": "function"
    },
    {
      "inputs": [],
      "name": "renounceOwnership",
      "outputs": [],
      "stateMutability": "nonpayable",
      "type": "function"
    },
    {
      "inputs": [
        {
          "internalType": "uint256",
          "name": "_pid",
          "type": "uint256"
        },
        {
          "internalType": "uint256",
          "name": "_allocPoint",
          "type": "uint256"
        },
        {
          "internalType": "bool",
          "name": "_withUpdate",
          "type": "bool"
        }
      ],
      "name": "set",
      "outputs": [],
      "stateMutability": "nonpayable",
      "type": "function"
    },
    {
      "inputs": [],
      "name": "startBlock",
      "outputs": [
        {
          "internalType": "uint256",
          "name": "",
          "type": "uint256"
        }
      ],
      "stateMutability": "view",
      "type": "function"
    },
    {
      "inputs": [],
      "name": "symbol",
      "outputs": [
        {
          "internalType": "string",
          "name": "",
          "type": "string"
        }
      ],
      "stateMutability": "view",
      "type": "function"
    },
    {
      "inputs": [],
      "name": "topStakerNumber",
      "outputs": [
        {
          "internalType": "uint256",
          "name": "",
          "type": "uint256"
        }
      ],
      "stateMutability": "view",
      "type": "function"
    },
    {
      "inputs": [],
      "name": "totalAllocPoint",
      "outputs": [
        {
          "internalType": "uint256",
          "name": "",
          "type": "uint256"
        }
      ],
      "stateMutability": "view",
      "type": "function"
    },
    {
      "inputs": [],
      "name": "totalREALMStaked",
      "outputs": [
        {
          "internalType": "uint256",
          "name": "",
          "type": "uint256"
        }
      ],
      "stateMutability": "view",
      "type": "function"
    },
    {
      "inputs": [],
      "name": "totalRealmUsedForPurchase",
      "outputs": [
        {
          "internalType": "uint256",
          "name": "",
          "type": "uint256"
        }
      ],
      "stateMutability": "view",
      "type": "function"
    },
    {
      "inputs": [],
      "name": "totalSupply",
      "outputs": [
        {
          "internalType": "uint256",
          "name": "",
          "type": "uint256"
        }
      ],
      "stateMutability": "view",
      "type": "function"
    },
    {
      "inputs": [
        {
          "internalType": "address",
          "name": "recipient",
          "type": "address"
        },
        {
          "internalType": "uint256",
          "name": "amount",
          "type": "uint256"
        }
      ],
      "name": "transfer",
      "outputs": [
        {
          "internalType": "bool",
          "name": "",
          "type": "bool"
        }
      ],
      "stateMutability": "nonpayable",
      "type": "function"
    },
    {
      "inputs": [
        {
          "internalType": "address",
          "name": "sender",
          "type": "address"
        },
        {
          "internalType": "address",
          "name": "recipient",
          "type": "address"
        },
        {
          "internalType": "uint256",
          "name": "amount",
          "type": "uint256"
        }
      ],
      "name": "transferFrom",
      "outputs": [
        {
          "internalType": "bool",
          "name": "",
          "type": "bool"
        }
      ],
      "stateMutability": "nonpayable",
      "type": "function"
    },
    {
      "inputs": [
        {
          "internalType": "address",
          "name": "newOwner",
          "type": "address"
        }
      ],
      "name": "transferOwnership",
      "outputs": [],
      "stateMutability": "nonpayable",
      "type": "function"
    },
    {
      "inputs": [
        {
          "internalType": "uint256",
          "name": "_pid",
          "type": "uint256"
        }
      ],
      "name": "updatePool",
      "outputs": [],
      "stateMutability": "nonpayable",
      "type": "function"
    },
    {
      "inputs": [
        {
          "internalType": "address",
          "name": "newImplementation",
          "type": "address"
        }
      ],
      "name": "upgradeTo",
      "outputs": [],
      "stateMutability": "nonpayable",
      "type": "function"
    },
    {
      "inputs": [
        {
          "internalType": "address",
          "name": "newImplementation",
          "type": "address"
        },
        {
          "internalType": "bytes",
          "name": "data",
          "type": "bytes"
        }
      ],
      "name": "upgradeToAndCall",
      "outputs": [],
      "stateMutability": "payable",
      "type": "function"
    },
    {
      "inputs": [
        {
          "internalType": "uint256",
          "name": "",
          "type": "uint256"
        },
        {
          "internalType": "address",
          "name": "",
          "type": "address"
        }
      ],
      "name": "userInfo",
      "outputs": [
        {
          "internalType": "uint256",
          "name": "amount",
          "type": "uint256"
        },
        {
          "internalType": "uint256",
          "name": "rewardDebt",
          "type": "uint256"
        },
        {
          "internalType": "uint256",
          "name": "rewardREALMDebt",
          "type": "uint256"
        }
      ],
      "stateMutability": "view",
      "type": "function"
    },
    {
      "inputs": [
        {
          "internalType": "uint256",
          "name": "_pid",
          "type": "uint256"
        },
        {
          "internalType": "uint256",
          "name": "_amount",
          "type": "uint256"
        }
      ],
      "name": "withdraw",
      "outputs": [],
      "stateMutability": "nonpayable",
      "type": "function"
    }
  ],
  "bytecode": "0x60a06040523060601b60805234801561001757600080fd5b5060805160601c614d4b61004b60003960008181610e7101528181610eb10152818161122301526112630152614d4b6000f3fe6080604052600436106103355760003560e01c806370a08231116101ab578063a9059cbb116100f7578063e2bbb15811610095578063f2fde38b1161006f578063f2fde38b14610a26578063fc6f946814610a46578063ff5d6ded14610a67578063ff793c2514610a8757610335565b8063e2bbb1581461099c578063eb990c59146109bc578063f1127ed8146109dc57610335565b8063b0a5cd95116100d1578063b0a5cd95146108f6578063c3cda52014610916578063d505accf14610936578063dd62ed3e1461095657610335565b8063a9059cbb14610895578063ac3e6742146108b5578063ae36c6b1146108d657610335565b80638da5cb5b1161016457806393f1a40b1161013e57806393f1a40b146107dd57806395d89b41146108405780639ab24eb014610855578063a457c2d71461087557610335565b80638da5cb5b1461077e5780638dbb1e3a1461079d5780638e539e8c146107bd57610335565b806370a08231146106c6578063715018a6146106fc57806379604a17146107115780637ecebe00146107325780637f254bac146107525780638aa285501461076957610335565b8063441a3e70116102855780635c975abb1161022357806364482f79116101fd57806364482f791461063a5780636e2e2d731461065a5780636f10947c1461067a5780636fcfff451461069157610335565b80635c975abb146105ec578063630b5ba11461060557806363a846f81461061a57610335565b806351eb05a61161025f57806351eb05a61461055d57806353da21461461057d578063587cde1e146105945780635c19a95c146105cc57610335565b8063441a3e701461051357806348cd4cb1146105335780634f1ef2861461054a57610335565b80631eaaa045116102f25780633644e515116102cc5780633644e5151461049e5780633659cfe6146104b357806339509351146104d35780633a46b1a8146104f357610335565b80631eaaa0451461044057806323b872dd14610462578063313ce5671461048257610335565b806306fdde031461033a578063081e3eda14610365578063095ea7b3146103855780631526fe27146103b557806317caf6f11461041457806318160ddd1461042b575b600080fd5b34801561034657600080fd5b5061034f610ac4565b60405161035c9190614a53565b60405180910390f35b34801561037157600080fd5b506101cb545b60405190815260200161035c565b34801561039157600080fd5b506103a56103a0366004614814565b610b56565b604051901515815260200161035c565b3480156103c157600080fd5b506103d56103d036600461492e565b610b6d565b604080516001600160a01b0390981688526020880196909652948601939093526060850191909152608084015260a083015260c082015260e00161035c565b34801561042057600080fd5b506103776101cd5481565b34801561043757600080fd5b50609954610377565b34801561044c57600080fd5b5061046061045b3660046149a8565b610bc7565b005b34801561046e57600080fd5b506103a561047d3660046146a8565b610dab565b34801561048e57600080fd5b506040516012815260200161035c565b3480156104aa57600080fd5b50610377610e57565b3480156104bf57600080fd5b506104606104ce366004614654565b610e66565b3480156104df57600080fd5b506103a56104ee366004614814565b610f2f565b3480156104ff57600080fd5b5061037761050e366004614814565b610f6b565b34801561051f57600080fd5b5061046061052e3660046149e9565b610fdf565b34801561053f57600080fd5b506103776101ce5481565b610460610558366004614755565b611218565b34801561056957600080fd5b5061046061057836600461492e565b6112d2565b34801561058957600080fd5b506103776101cf5481565b3480156105a057600080fd5b506105b46105af366004614654565b611419565b6040516001600160a01b03909116815260200161035c565b3480156105d857600080fd5b506104606105e7366004614654565b61143b565b3480156105f857600080fd5b506101945460ff166103a5565b34801561061157600080fd5b50610460611445565b34801561062657600080fd5b50610460610635366004614654565b61146d565b34801561064657600080fd5b50610460610655366004614a0a565b611557565b34801561066657600080fd5b506103a561067536600461495e565b611627565b34801561068657600080fd5b506103776101ca5481565b34801561069d57600080fd5b506106b16106ac366004614654565b6116b3565b60405163ffffffff909116815260200161035c565b3480156106d257600080fd5b506103776106e1366004614654565b6001600160a01b031660009081526097602052604090205490565b34801561070857600080fd5b506104606116d6565b34801561071d57600080fd5b506101c8546105b4906001600160a01b031681565b34801561073e57600080fd5b5061037761074d366004614654565b61170d565b34801561075e57600080fd5b506103776101d05481565b34801561077557600080fd5b50610377600181565b34801561078a57600080fd5b50610162546001600160a01b03166105b4565b3480156107a957600080fd5b506103776107b83660046149e9565b61172b565b3480156107c957600080fd5b506103776107d836600461492e565b61175a565b3480156107e957600080fd5b506108256107f836600461495e565b6101cc60209081526000928352604080842090915290825290208054600182015460029092015490919083565b6040805193845260208401929092529082015260600161035c565b34801561084c57600080fd5b5061034f6117b7565b34801561086157600080fd5b50610377610870366004614654565b6117c6565b34801561088157600080fd5b506103a5610890366004614814565b61185d565b3480156108a157600080fd5b506103a56108b0366004614814565b6118f6565b3480156108c157600080fd5b506101c6546105b4906001600160a01b031681565b3480156108e257600080fd5b506104606108f1366004614982565b611903565b34801561090257600080fd5b5061046061091136600461492e565b611c4d565b34801561092257600080fd5b5061046061093136600461483f565b611d34565b34801561094257600080fd5b506104606109513660046146e8565b611e6a565b34801561096257600080fd5b50610377610971366004614670565b6001600160a01b03918216600090815260986020908152604080832093909416825291909152205490565b3480156109a857600080fd5b506104606109b73660046149e9565b611fb0565b3480156109c857600080fd5b506104606109d73660046148e9565b612123565b3480156109e857600080fd5b506109fc6109f7366004614898565b612301565b60408051825163ffffffff1681526020928301516001600160e01b0316928101929092520161035c565b348015610a3257600080fd5b50610460610a41366004614654565b612394565b348015610a5257600080fd5b506101c9546105b4906001600160a01b031681565b348015610a7357600080fd5b50610377610a8236600461495e565b61242d565b348015610a9357600080fd5b50610aa7610aa23660046149e9565b612567565b604080519283526001600160a01b0390911660208301520161035c565b6060609a8054610ad390614c4f565b80601f0160208091040260200160405190810160405280929190818152602001828054610aff90614c4f565b8015610b4c5780601f10610b2157610100808354040283529160200191610b4c565b820191906000526020600020905b815481529060010190602001808311610b2f57829003601f168201915b5050505050905090565b6000610b633384846125ad565b5060015b92915050565b6101cb8181548110610b7e57600080fd5b600091825260209091206007909102018054600182015460028301546003840154600485015460058601546006909601546001600160a01b039095169650929491939092919087565b610162546001600160a01b03163314610bfb5760405162461bcd60e51b8152600401610bf290614b1e565b60405180910390fd5b8015610c0957610c09611445565b60006101ce544311610c1e576101ce54610c20565b435b6101cd54909150610c3190856126d1565b6101cd556040805160e0810182526001600160a01b039485168152602081019586529081019182526000606082018181526080830182815260a0840183815260c085018481526101cb8054600181018255955294517fe8bbfecd380c4167d6a1f763a233ec73e73f534b1970c4e1683f437ec23c1f44600790950294850180546001600160a01b031916919099161790975596517fe8bbfecd380c4167d6a1f763a233ec73e73f534b1970c4e1683f437ec23c1f4583015592517fe8bbfecd380c4167d6a1f763a233ec73e73f534b1970c4e1683f437ec23c1f4682015591517fe8bbfecd380c4167d6a1f763a233ec73e73f534b1970c4e1683f437ec23c1f4783015593517fe8bbfecd380c4167d6a1f763a233ec73e73f534b1970c4e1683f437ec23c1f4882015591517fe8bbfecd380c4167d6a1f763a233ec73e73f534b1970c4e1683f437ec23c1f498301555090517fe8bbfecd380c4167d6a1f763a233ec73e73f534b1970c4e1683f437ec23c1f4a90910155565b6000610db88484846126dd565b6001600160a01b038416600090815260986020908152604080832033845290915290205482811015610e3d5760405162461bcd60e51b815260206004820152602860248201527f45524332303a207472616e7366657220616d6f756e74206578636565647320616044820152676c6c6f77616e636560c01b6064820152608401610bf2565b610e4a85338584036125ad565b60019150505b9392505050565b6000610e616128c2565b905090565b306001600160a01b037f0000000000000000000000000000000000000000000000000000000000000000161415610eaf5760405162461bcd60e51b8152600401610bf290614a86565b7f00000000000000000000000000000000000000000000000000000000000000006001600160a01b0316610ee161293d565b6001600160a01b031614610f075760405162461bcd60e51b8152600401610bf290614ad2565b610f108161296b565b60408051600080825260208201909252610f2c918391906129e3565b50565b3360008181526098602090815260408083206001600160a01b03871684529091528120549091610b63918590610f66908690614b9e565b6125ad565b6000438210610fbc5760405162461bcd60e51b815260206004820152601f60248201527f4552433230566f7465733a20626c6f636b206e6f7420796574206d696e6564006044820152606401610bf2565b6001600160a01b038316600090815261013160205260409020610e509083612b27565b60006101cb838154811061100357634e487b7160e01b600052603260045260246000fd5b600091825260208083208684526101cc8252604080852033865290925292208054600790920290920192508311156110725760405162461bcd60e51b81526020600482015260126024820152711dda5d1a191c985dce881b9bdd0819dbdbd960721b6044820152606401610bf2565b61107b846112d2565b60006110b582600201546110af64e8d4a510006110a987600301548760000154612c0090919063ffffffff16565b90612c0c565b90612c18565b83549091506110ce906001600160a01b03163383612c24565b6111656110ea6101d0546101cf54612c1890919063ffffffff16565b84546040516370a0823160e01b81523060048201526001600160a01b03909116906370a08231906024015b60206040518083038186803b15801561112d57600080fd5b505afa158015611141573d6000803e3d6000fd5b505050506040513d601f19601f820116820180604052508101906110af9190614946565b600584015581546111769085612c18565b82556101cf546111869085612c18565b6101cf55600383015482546111a59164e8d4a51000916110a991612c00565b600283015582546111c0906001600160a01b03163386612c24565b6111cf85836000015433612c8c565b6111d93385612d60565b604051848152859033907ff279e6a1f5e320cca91135676d9cb6e44ca8a08c0b88342bcdb1144f6511b568906020015b60405180910390a35050505050565b306001600160a01b037f00000000000000000000000000000000000000000000000000000000000000001614156112615760405162461bcd60e51b8152600401610bf290614a86565b7f00000000000000000000000000000000000000000000000000000000000000006001600160a01b031661129361293d565b6001600160a01b0316146112b95760405162461bcd60e51b8152600401610bf290614ad2565b6112c28261296b565b6112ce828260016129e3565b5050565b60006101cb82815481106112f657634e487b7160e01b600052603260045260246000fd5b600091825260208083208584526101cc82526040808520338652909252922060026007909202909201908101549092504311611333575050610f2c565b60006113516110ea6101d0546101cf54612c1890919063ffffffff16565b9050600061137a61136f856005015484612c1890919063ffffffff16565b6006860154906126d1565b60058501839055600685018190556101cf54909150806113c8575050436002808501919091556000600385018190556004850181905592018290555060058201819055600690910155610f2c565b60006113e1866004015484612c1890919063ffffffff16565b90506114046113f9836110a98464e8d4a51000612c00565b6003880154906126d1565b60038701555050600490930192909255505050565b6001600160a01b0380821660009081526101306020526040902054165b919050565b610f2c3382612d6a565b6101cb5460005b818110156112ce5761145d816112d2565b61146681614c84565b905061144c565b6001600160a01b0381166114b95760405162461bcd60e51b815260206004820152601360248201527261646d696e3a205a65726f206164647265737360681b6044820152606401610bf2565b6101c9546001600160a01b031633146115025760405162461bcd60e51b815260206004820152600b60248201526a61646d696e3a207775743f60a81b6044820152606401610bf2565b6101c980546001600160a01b0319166001600160a01b0383169081179091556040519081527f54e4612788f90384e6843298d7854436f3a585b2c3831ab66abf1de63bfa6c2d9060200160405180910390a150565b610162546001600160a01b031633146115825760405162461bcd60e51b8152600401610bf290614b1e565b801561159057611590611445565b6115e3826115dd6101cb86815481106115b957634e487b7160e01b600052603260045260246000fd5b9060005260206000209060070201600101546101cd54612c1890919063ffffffff16565b906126d1565b6101cd81905550816101cb848154811061160d57634e487b7160e01b600052603260045260246000fd5b906000526020600020906007020160010181905550505050565b60008281526101c760205260408120815b81548110156116ab57836001600160a01b031682828154811061166b57634e487b7160e01b600052603260045260246000fd5b60009182526020909120600160029092020101546001600160a01b0316141561169957600192505050610b67565b806116a381614c84565b915050611638565b505092915050565b6001600160a01b03811660009081526101316020526040812054610b6790612dcc565b610162546001600160a01b031633146117015760405162461bcd60e51b8152600401610bf290614b1e565b61170b6000612e35565b565b6001600160a01b038116600090815260fd6020526040812054610b67565b60008282106117505761174960016117438486612c18565b90612c00565b9050610b67565b6117498383612c18565b60004382106117ab5760405162461bcd60e51b815260206004820152601f60248201527f4552433230566f7465733a20626c6f636b206e6f7420796574206d696e6564006044820152606401610bf2565b610b6761013283612b27565b6060609b8054610ad390614c4f565b6001600160a01b03811660009081526101316020526040812054801561184a576001600160a01b03831660009081526101316020526040902061180a600183614bf5565b8154811061182857634e487b7160e01b600052603260045260246000fd5b60009182526020909120015464010000000090046001600160e01b031661184d565b60005b6001600160e01b03169392505050565b3360009081526098602090815260408083206001600160a01b0386168452909152812054828110156118df5760405162461bcd60e51b815260206004820152602560248201527f45524332303a2064656372656173656420616c6c6f77616e63652062656c6f77604482015264207a65726f60d81b6064820152608401610bf2565b6118ec33858584036125ad565b5060019392505050565b6000610b633384846126dd565b6101c9546001600160a01b0316331461195e5760405162461bcd60e51b815260206004820152601c60248201527f73656e646572206d7573742062652061646d696e2061646472657373000000006044820152606401610bf2565b806119786101d0546101cf54612c1890919063ffffffff16565b10156119db5760405162461bcd60e51b815260206004820152602c60248201527f416d6f756e74206d757374206265206c657373207468616e207374616b65642060448201526b149150531348185b5bdd5b9d60a21b6064820152608401610bf2565b60006101cb84815481106119ff57634e487b7160e01b600052603260045260246000fd5b6000918252602082206007919091020180546040516370a0823160e01b81523060048201529193506001600160a01b0316906370a082319060240160206040518083038186803b158015611a5257600080fd5b505afa158015611a66573d6000803e3d6000fd5b505050506040513d601f19601f82011682018060405250810190611a8a9190614946565b905080831115611b7157815460405163a9059cbb60e01b81526001600160a01b038681166004830152602482018490529091169063a9059cbb90604401602060405180830381600087803b158015611ae157600080fd5b505af1158015611af5573d6000803e3d6000fd5b505050506040513d601f19601f82011682018060405250810190611b1991906148cd565b506101d054611b2890826126d1565b6101d05560405181815285906001600160a01b038616907fbb757047c2b5f3974fe26b7c10f732e7bce710b0952a71082702781e62ae05959060200160405180910390a3611c46565b815460405163a9059cbb60e01b81526001600160a01b038681166004830152602482018690529091169063a9059cbb90604401602060405180830381600087803b158015611bbe57600080fd5b505af1158015611bd2573d6000803e3d6000fd5b505050506040513d601f19601f82011682018060405250810190611bf691906148cd565b506101d054611c0590846126d1565b6101d05560405183815285906001600160a01b038616907fbb757047c2b5f3974fe26b7c10f732e7bce710b0952a71082702781e62ae059590602001611209565b5050505050565b60006101cb8281548110611c7157634e487b7160e01b600052603260045260246000fd5b600091825260208083208584526101cc82526040808520338652909252922060079091029091019150611ca3836112d2565b6000611cd182600201546110af64e8d4a510006110a987600301548760000154612c0090919063ffffffff16565b8354909150611cea906001600160a01b03163383612c24565b611d066110ea6101d0546101cf54612c1890919063ffffffff16565b600584015560038301548254611d269164e8d4a51000916110a991612c00565b826002018190555050505050565b83421115611d845760405162461bcd60e51b815260206004820152601d60248201527f4552433230566f7465733a207369676e617475726520657870697265640000006044820152606401610bf2565b604080517fe48329057bfd03d55e49b547132e39cffd9c1820ad7b9d4c5307691425d15adf60208201526001600160a01b038816918101919091526060810186905260808101859052600090611dfe90611df69060a00160405160208183030381529060405280519060200120612e88565b858585612ed6565b9050611e0981612efe565b8614611e575760405162461bcd60e51b815260206004820152601960248201527f4552433230566f7465733a20696e76616c6964206e6f6e6365000000000000006044820152606401610bf2565b611e618188612d6a565b50505050505050565b83421115611eba5760405162461bcd60e51b815260206004820152601d60248201527f45524332305065726d69743a206578706972656420646561646c696e650000006044820152606401610bf2565b600060fe54888888611ecb8c612efe565b6040805160208101969096526001600160a01b0394851690860152929091166060840152608083015260a082015260c0810186905260e0016040516020818303038152906040528051906020012090506000611f2682612e88565b90506000611f3682878787612ed6565b9050896001600160a01b0316816001600160a01b031614611f995760405162461bcd60e51b815260206004820152601e60248201527f45524332305065726d69743a20696e76616c6964207369676e617475726500006044820152606401610bf2565b611fa48a8a8a6125ad565b50505050505050505050565b60006101cb8381548110611fd457634e487b7160e01b600052603260045260246000fd5b600091825260208083208684526101cc82526040808520338652909252922060079091029091019150612006846112d2565b80541561207757600061203b82600201546110af64e8d4a510006110a987600301548760000154612c0090919063ffffffff16565b8354909150612054906001600160a01b03163383612c24565b6120706110ea6101d0546101cf54612c1890919063ffffffff16565b6005840155505b815461208e906001600160a01b0316333086612f26565b6101cf5461209c90846126d1565b6101cf5580546120ac90846126d1565b80825560038301546120c99164e8d4a51000916110a99190612c00565b600282015580546120dc90859033612f5e565b6120e6338461316d565b604051838152849033907f90890809c654f11d6e72a28fa60149770a0d11ec6c92319d6ceb2bb0a4ea1a159060200160405180910390a350505050565b600054610100900460ff1661213e5760005460ff1615612142565b303b155b6121a55760405162461bcd60e51b815260206004820152602e60248201527f496e697469616c697a61626c653a20636f6e747261637420697320616c72656160448201526d191e481a5b9a5d1a585b1a5e995960921b6064820152608401610bf2565b600054610100900460ff161580156121d0576000805460ff1961ff0019909116610100171660011790555b6001600160a01b0384166122265760405162461bcd60e51b815260206004820152601860248201527f696e697469616c697a653a205a65726f206164647265737300000000000000006044820152606401610bf2565b61222e613177565b61227460405180604001604052806006815260200165645245414c4d60d01b81525060405180604001604052806006815260200165645245414c4d60d01b8152506131ae565b61227c6131fc565b6122a360405180604001604052806006815260200165645245414c4d60d01b815250613230565b6122ab61328b565b6101c880546001600160a01b038088166001600160a01b0319928316179092556101c98054928716929091169190911790556101ce8390556101ca8290558015611c46576000805461ff00191690555050505050565b60408051808201909152600080825260208201526001600160a01b038316600090815261013160205260409020805463ffffffff841690811061235457634e487b7160e01b600052603260045260246000fd5b60009182526020918290206040805180820190915291015463ffffffff8116825264010000000090046001600160e01b0316918101919091529392505050565b610162546001600160a01b031633146123bf5760405162461bcd60e51b8152600401610bf290614b1e565b6001600160a01b0381166124245760405162461bcd60e51b815260206004820152602660248201527f4f776e61626c653a206e6577206f776e657220697320746865207a65726f206160448201526564647265737360d01b6064820152608401610bf2565b610f2c81612e35565b6000806101cb848154811061245257634e487b7160e01b600052603260045260246000fd5b600091825260208083208784526101cc825260408085206001600160a01b0389168652909252922060036007909202909201908101546101cf5460028301549294509091431180156124a357508015155b156125345760006124f56124c66101d0546101cf54612c1890919063ffffffff16565b86546040516370a0823160e01b81523060048201526001600160a01b03909116906370a0823190602401611115565b90506000612510866005015483612c1890919063ffffffff16565b905061252f612528846110a98464e8d4a51000612c00565b85906126d1565b935050505b61255c83600201546110af64e8d4a510006110a9868860000154612c0090919063ffffffff16565b979650505050505050565b6101c7602052816000526040600020818154811061258457600080fd5b6000918252602090912060029091020180546001909101549092506001600160a01b0316905082565b6001600160a01b03831661260f5760405162461bcd60e51b8152602060048201526024808201527f45524332303a20617070726f76652066726f6d20746865207a65726f206164646044820152637265737360e01b6064820152608401610bf2565b6001600160a01b0382166126705760405162461bcd60e51b815260206004820152602260248201527f45524332303a20617070726f766520746f20746865207a65726f206164647265604482015261737360f01b6064820152608401610bf2565b6001600160a01b0383811660008181526098602090815260408083209487168084529482529182902085905590518481527f8c5be1e5ebec7d5bd14f71427d1e84f3dd0314c0f7b2291e5b200ac8c7c3b925910160405180910390a3505050565b6000610e508284614b9e565b6001600160a01b0383166127415760405162461bcd60e51b815260206004820152602560248201527f45524332303a207472616e736665722066726f6d20746865207a65726f206164604482015264647265737360d81b6064820152608401610bf2565b6001600160a01b0382166127a35760405162461bcd60e51b815260206004820152602360248201527f45524332303a207472616e7366657220746f20746865207a65726f206164647260448201526265737360e81b6064820152608401610bf2565b6127ae8383836132b2565b6001600160a01b038316600090815260976020526040902054818110156128265760405162461bcd60e51b815260206004820152602660248201527f45524332303a207472616e7366657220616d6f756e7420657863656564732062604482015265616c616e636560d01b6064820152608401610bf2565b6001600160a01b0380851660009081526097602052604080822085850390559185168152908120805484929061285d908490614b9e565b92505081905550826001600160a01b0316846001600160a01b03167fddf252ad1be2c89b69c2b068fc378daa952ba7f163c4a11628f55a4df523b3ef846040516128a991815260200190565b60405180910390a36128bc84848461331a565b50505050565b6000610e617f8b73c3c69bb8fe3d512ecc4cf759cc79239f7b179b0ffacaa9a75d522b39400f6128f160c95490565b60ca546040805160208101859052908101839052606081018290524660808201523060a082015260009060c0016040516020818303038152906040528051906020012090509392505050565b7f360894a13ba1a3210667c828492db98dca3e2076cc3735a920a3ca505d382bbc546001600160a01b031690565b3361297f610162546001600160a01b031690565b6001600160a01b031614610f2c5760405162461bcd60e51b815260206004820152602560248201527f4f6e6c79206f776e65722063616e207570677261646520696d706c656d656e7460448201526430ba34b7b760d91b6064820152608401610bf2565b60006129ed61293d565b90506129f884613325565b600083511180612a055750815b15612a1657612a1484846133ca565b505b7f4910fdfa16fed3260ed0e7147f7cc6da11a60208b5b9406d12a635614ffd9143805460ff16611c4657805460ff191660011781556040516001600160a01b0383166024820152612a9590869060440160408051601f198184030181529190526020810180516001600160e01b0316631b2ce7f360e11b1790526133ca565b50805460ff19168155612aa661293d565b6001600160a01b0316826001600160a01b031614612b1e5760405162461bcd60e51b815260206004820152602f60248201527f45524331393637557067726164653a207570677261646520627265616b73206660448201526e75727468657220757067726164657360881b6064820152608401610bf2565b611c46856134b5565b8154600090815b81811015612b99576000612b4282846134f5565b905084868281548110612b6557634e487b7160e01b600052603260045260246000fd5b60009182526020909120015463ffffffff161115612b8557809250612b93565b612b90816001614b9e565b91505b50612b2e565b8115612beb5784612bab600184614bf5565b81548110612bc957634e487b7160e01b600052603260045260246000fd5b60009182526020909120015464010000000090046001600160e01b0316612bee565b60005b6001600160e01b031695945050505050565b6000610e508284614bd6565b6000610e508284614bb6565b6000610e508284614bf5565b6040516001600160a01b038316602482015260448101829052612c8790849063a9059cbb60e01b906064015b60408051601f198184030181529190526020810180516001600160e01b03166001600160e01b031990931692909217909152613510565b505050565b60008381526101c760205260408120905b8154811015611c4657826001600160a01b0316828281548110612cd057634e487b7160e01b600052603260045260246000fd5b60009182526020909120600160029092020101546001600160a01b03161415612d4e57818181548110612d1357634e487b7160e01b600052603260045260246000fd5b60009182526020822060029091020190815560010180546001600160a01b03191690558315612d4757612d47858585612f5e565b5050612c87565b80612d5881614c84565b915050612c9d565b6112ce82826135e2565b612d75600083611627565b15612dc25760405162461bcd60e51b815260206004820152601a60248201527f546f70207374616b65722063616e6e6f742064656c65676174650000000000006044820152606401610bf2565b6112ce82826135fb565b600063ffffffff821115612e315760405162461bcd60e51b815260206004820152602660248201527f53616665436173743a2076616c756520646f65736e27742066697420696e203360448201526532206269747360d01b6064820152608401610bf2565b5090565b61016280546001600160a01b038381166001600160a01b0319831681179093556040519116919082907f8be0079c531659141344cd1fd0a4f28419497f9722a3daafe3b4186f6b6457e090600090a35050565b6000610b67612e956128c2565b8360405161190160f01b6020820152602281018390526042810182905260009060620160405160208183030381529060405280519060200120905092915050565b6000806000612ee787878787613692565b91509150612ef48161377f565b5095945050505050565b6001600160a01b038116600090815260fd602052604090208054600181018255905b50919050565b6040516001600160a01b03808516602483015283166044820152606481018290526128bc9085906323b872dd60e01b90608401612c50565b60008381526101c7602052604081205b805482101561302357826001600160a01b0316818381548110612fa157634e487b7160e01b600052603260045260246000fd5b60009182526020909120600160029092020101546001600160a01b031614156130115783818381548110612fe557634e487b7160e01b600052603260045260246000fd5b600091825260208220600290910201919091558154612d4791879161300c90600190614bf5565b613982565b8161301b81614c84565b925050612f6e565b6101ca548154101561308d57604080518082019091528481526001600160a01b038481166020808401918252845460018082018755600087815292909220945160029091029094019384559051920180546001600160a01b03191692909116919091179055613156565b83816000815481106130af57634e487b7160e01b600052603260045260246000fd5b90600052602060002090600202016000015410156131565783816000815481106130e957634e487b7160e01b600052603260045260246000fd5b906000526020600020906002020160000181905550828160008154811061312057634e487b7160e01b600052603260045260246000fd5b906000526020600020906002020160010160006101000a8154816001600160a01b0302191690836001600160a01b031602179055505b611c468560006001848054905061300c9190614bf5565b6112ce8282613d34565b600054610100900460ff1661319e5760405162461bcd60e51b8152600401610bf290614b53565b6131a661328b565b61170b613dbf565b600054610100900460ff166131d55760405162461bcd60e51b8152600401610bf290614b53565b81516131e890609a9060208501906145b3565b508051612c8790609b9060208401906145b3565b600054610100900460ff166132235760405162461bcd60e51b8152600401610bf290614b53565b610194805460ff19169055565b600054610100900460ff166132575760405162461bcd60e51b8152600401610bf290614b53565b61325f61328b565b61328281604051806040016040528060018152602001603160f81b815250613def565b610f2c81613e30565b600054610100900460ff1661170b5760405162461bcd60e51b8152600401610bf290614b53565b6001600160a01b03831615806132cf57506001600160a01b038216155b156132d957612c87565b60405162461bcd60e51b81526020600482015260166024820152752737b7103a3930b739b332b930b13632903a37b5b2b760511b6044820152606401610bf2565b612c87838383613e7e565b803b6133895760405162461bcd60e51b815260206004820152602d60248201527f455243313936373a206e657720696d706c656d656e746174696f6e206973206e60448201526c1bdd08184818dbdb9d1c9858dd609a1b6064820152608401610bf2565b7f360894a13ba1a3210667c828492db98dca3e2076cc3735a920a3ca505d382bbc80546001600160a01b0319166001600160a01b0392909216919091179055565b6060823b6134295760405162461bcd60e51b815260206004820152602660248201527f416464726573733a2064656c65676174652063616c6c20746f206e6f6e2d636f6044820152651b9d1c9858dd60d21b6064820152608401610bf2565b600080846001600160a01b0316846040516134449190614a37565b600060405180830381855af49150503d806000811461347f576040519150601f19603f3d011682016040523d82523d6000602084013e613484565b606091505b50915091506134ac8282604051806060016040528060278152602001614cef60279139613e99565b95945050505050565b6134be81613325565b6040516001600160a01b038216907fbc7cd75a20ee27fd9adebab32041f755214dbc6bffa90cc0225b39da2e5c2d3b90600090a250565b60006135046002848418614bb6565b610e5090848416614b9e565b6000613565826040518060400160405280602081526020017f5361666545524332303a206c6f772d6c6576656c2063616c6c206661696c6564815250856001600160a01b0316613ed29092919063ffffffff16565b805190915015612c87578080602001905181019061358391906148cd565b612c875760405162461bcd60e51b815260206004820152602a60248201527f5361666545524332303a204552433230206f7065726174696f6e20646964206e6044820152691bdd081cdd58d8d9595960b21b6064820152608401610bf2565b6135ec8282613ee9565b6128bc610132612c188361404a565b600061360683611419565b90506000613629846001600160a01b031660009081526097602052604090205490565b6001600160a01b038581166000818152610130602052604080822080546001600160a01b031916898616908117909155905194955093928616927f3134e8a2e6d97e929a7e54011ea5485d7d196dd5f0ba4d4ef95803e8e3fc257f9190a46128bc8284836141fb565b6000807f7fffffffffffffffffffffffffffffff5d576e7357a4501ddfe92f46681b20a08311156136c95750600090506003613776565b8460ff16601b141580156136e157508460ff16601c14155b156136f25750600090506004613776565b6040805160008082526020820180845289905260ff881692820192909252606081018690526080810185905260019060a0016020604051602081039080840390855afa158015613746573d6000803e3d6000fd5b5050604051601f1901519150506001600160a01b03811661376f57600060019250925050613776565b9150600090505b94509492505050565b60008160048111156137a157634e487b7160e01b600052602160045260246000fd5b14156137ac57610f2c565b60018160048111156137ce57634e487b7160e01b600052602160045260246000fd5b141561381c5760405162461bcd60e51b815260206004820152601860248201527f45434453413a20696e76616c6964207369676e617475726500000000000000006044820152606401610bf2565b600281600481111561383e57634e487b7160e01b600052602160045260246000fd5b141561388c5760405162461bcd60e51b815260206004820152601f60248201527f45434453413a20696e76616c6964207369676e6174757265206c656e677468006044820152606401610bf2565b60038160048111156138ae57634e487b7160e01b600052602160045260246000fd5b14156139075760405162461bcd60e51b815260206004820152602260248201527f45434453413a20696e76616c6964207369676e6174757265202773272076616c604482015261756560f01b6064820152608401610bf2565b600481600481111561392957634e487b7160e01b600052602160045260246000fd5b1415610f2c5760405162461bcd60e51b815260206004820152602260248201527f45434453413a20696e76616c6964207369676e6174757265202776272076616c604482015261756560f01b6064820152608401610bf2565b60008381526101c76020526040902081831061399e5750612c87565b6002600082826139ae8688614b9e565b6139b89190614bb6565b815481106139d657634e487b7160e01b600052603260045260246000fd5b6000918252602090912060029091020154905084845b80821015613cfd575b82858381548110613a1657634e487b7160e01b600052603260045260246000fd5b9060005260206000209060020201600001541015613a3e57613a3782614c84565b91506139f5565b82858281548110613a5f57634e487b7160e01b600052603260045260246000fd5b9060005260206000209060020201600001541115613a8757613a8081614c38565b9050613a3e565b848181548110613aa757634e487b7160e01b600052603260045260246000fd5b906000526020600020906002020160000154858381548110613ad957634e487b7160e01b600052603260045260246000fd5b9060005260206000209060020201600001541115613cec57848181548110613b1157634e487b7160e01b600052603260045260246000fd5b906000526020600020906002020160000154858381548110613b4357634e487b7160e01b600052603260045260246000fd5b906000526020600020906002020160000154868481548110613b7557634e487b7160e01b600052603260045260246000fd5b90600052602060002090600202016000016000888581548110613ba857634e487b7160e01b600052603260045260246000fd5b600091825260209091206002909102019290925591909155508454859082908110613be357634e487b7160e01b600052603260045260246000fd5b906000526020600020906002020160010160009054906101000a90046001600160a01b0316858381548110613c2857634e487b7160e01b600052603260045260246000fd5b906000526020600020906002020160010160009054906101000a90046001600160a01b0316868481548110613c6d57634e487b7160e01b600052603260045260246000fd5b90600052602060002090600202016001016000888581548110613ca057634e487b7160e01b600052603260045260246000fd5b6000918252602090912060016002909202010180546001600160a01b039485166001600160a01b031990911617905581549383166101009190910a908102920219909216179055613cf8565b613cf582614c84565b91505b6139ec565b86811115613d1557613d15888861300c600185614bf5565b613d2a88613d24836001614b9e565b88613982565b5050505050505050565b613d3e828261433a565b6099546001600160e01b031015613db05760405162461bcd60e51b815260206004820152603060248201527f4552433230566f7465733a20746f74616c20737570706c79207269736b73206f60448201526f766572666c6f77696e6720766f74657360801b6064820152608401610bf2565b6128bc6101326126d18361404a565b600054610100900460ff16613de65760405162461bcd60e51b8152600401610bf290614b53565b61170b33612e35565b600054610100900460ff16613e165760405162461bcd60e51b8152600401610bf290614b53565b81516020928301208151919092012060c99190915560ca55565b600054610100900460ff16613e575760405162461bcd60e51b8152600401610bf290614b53565b507f6e71edae12b1b97f4d1f60370fef10105fa2faae0126114a169c64845d6126c960fe55565b612c87613e8a84611419565b613e9384611419565b836141fb565b60608315613ea8575081610e50565b825115613eb85782518084602001fd5b8160405162461bcd60e51b8152600401610bf29190614a53565b6060613ee1848460008561442d565b949350505050565b6001600160a01b038216613f495760405162461bcd60e51b815260206004820152602160248201527f45524332303a206275726e2066726f6d20746865207a65726f206164647265736044820152607360f81b6064820152608401610bf2565b613f55826000836132b2565b6001600160a01b03821660009081526097602052604090205481811015613fc95760405162461bcd60e51b815260206004820152602260248201527f45524332303a206275726e20616d6f756e7420657863656564732062616c616e604482015261636560f01b6064820152608401610bf2565b6001600160a01b0383166000908152609760205260408120838303905560998054849290613ff8908490614bf5565b90915550506040518281526000906001600160a01b038516907fddf252ad1be2c89b69c2b068fc378daa952ba7f163c4a11628f55a4df523b3ef9060200160405180910390a3612c878360008461331a565b8254600090819080156140a35785614063600183614bf5565b8154811061408157634e487b7160e01b600052603260045260246000fd5b60009182526020909120015464010000000090046001600160e01b03166140a6565b60005b6001600160e01b031692506140bf83858763ffffffff16565b915060008111801561410b575043866140d9600184614bf5565b815481106140f757634e487b7160e01b600052603260045260246000fd5b60009182526020909120015463ffffffff16145b15614179576141198261454a565b86614125600184614bf5565b8154811061414357634e487b7160e01b600052603260045260246000fd5b9060005260206000200160000160046101000a8154816001600160e01b0302191690836001600160e01b031602179055506141f2565b85604051806040016040528061418e43612dcc565b63ffffffff1681526020016141a28561454a565b6001600160e01b039081169091528254600181018455600093845260209384902083519101805493909401519091166401000000000263ffffffff91821663ffffffff1990931692909217161790555b50935093915050565b816001600160a01b0316836001600160a01b03161415801561421d5750600081115b15612c87576001600160a01b038316156142ac576001600160a01b038316600090815261013160205260408120819061425990612c188561404a565b91509150846001600160a01b03167fdec2bacdd2f05b59de34da9b523dff8be42e5e38e818c82fdb0bae774387a72483836040516142a1929190918252602082015260400190565b60405180910390a250505b6001600160a01b03821615612c87576001600160a01b03821660009081526101316020526040812081906142e3906126d18561404a565b91509150836001600160a01b03167fdec2bacdd2f05b59de34da9b523dff8be42e5e38e818c82fdb0bae774387a724838360405161432b929190918252602082015260400190565b60405180910390a25050505050565b6001600160a01b0382166143905760405162461bcd60e51b815260206004820152601f60248201527f45524332303a206d696e7420746f20746865207a65726f2061646472657373006044820152606401610bf2565b61439c600083836132b2565b80609960008282546143ae9190614b9e565b90915550506001600160a01b038216600090815260976020526040812080548392906143db908490614b9e565b90915550506040518181526001600160a01b038316906000907fddf252ad1be2c89b69c2b068fc378daa952ba7f163c4a11628f55a4df523b3ef9060200160405180910390a36112ce6000838361331a565b60608247101561448e5760405162461bcd60e51b815260206004820152602660248201527f416464726573733a20696e73756666696369656e742062616c616e636520666f6044820152651c8818d85b1b60d21b6064820152608401610bf2565b843b6144dc5760405162461bcd60e51b815260206004820152601d60248201527f416464726573733a2063616c6c20746f206e6f6e2d636f6e74726163740000006044820152606401610bf2565b600080866001600160a01b031685876040516144f89190614a37565b60006040518083038185875af1925050503d8060008114614535576040519150601f19603f3d011682016040523d82523d6000602084013e61453a565b606091505b509150915061255c828286613e99565b60006001600160e01b03821115612e315760405162461bcd60e51b815260206004820152602760248201527f53616665436173743a2076616c756520646f65736e27742066697420696e20326044820152663234206269747360c81b6064820152608401610bf2565b8280546145bf90614c4f565b90600052602060002090601f0160209004810192826145e15760008555614627565b82601f106145fa57805160ff1916838001178555614627565b82800160010185558215614627579182015b8281111561462757825182559160200191906001019061460c565b50612e319291505b80821115612e31576000815560010161462f565b803560ff8116811461143657600080fd5b600060208284031215614665578081fd5b8135610e5081614ccb565b60008060408385031215614682578081fd5b823561468d81614ccb565b9150602083013561469d81614ccb565b809150509250929050565b6000806000606084860312156146bc578081fd5b83356146c781614ccb565b925060208401356146d781614ccb565b929592945050506040919091013590565b600080600080600080600060e0888a031215614702578283fd5b873561470d81614ccb565b9650602088013561471d81614ccb565b9550604088013594506060880135935061473960808901614643565b925060a0880135915060c0880135905092959891949750929550565b60008060408385031215614767578182fd5b823561477281614ccb565b9150602083013567ffffffffffffffff8082111561478e578283fd5b818501915085601f8301126147a1578283fd5b8135818111156147b3576147b3614cb5565b604051601f8201601f19908116603f011681019083821181831017156147db576147db614cb5565b816040528281528860208487010111156147f3578586fd5b82602086016020830137856020848301015280955050505050509250929050565b60008060408385031215614826578182fd5b823561483181614ccb565b946020939093013593505050565b60008060008060008060c08789031215614857578182fd5b863561486281614ccb565b9550602087013594506040870135935061487e60608801614643565b92506080870135915060a087013590509295509295509295565b600080604083850312156148aa578182fd5b82356148b581614ccb565b9150602083013563ffffffff8116811461469d578182fd5b6000602082840312156148de578081fd5b8151610e5081614ce0565b600080600080608085870312156148fe578384fd5b843561490981614ccb565b9350602085013561491981614ccb565b93969395505050506040820135916060013590565b60006020828403121561493f578081fd5b5035919050565b600060208284031215614957578081fd5b5051919050565b60008060408385031215614970578182fd5b82359150602083013561469d81614ccb565b600080600060608486031215614996578081fd5b8335925060208401356146d781614ccb565b6000806000606084860312156149bc578081fd5b8335925060208401356149ce81614ccb565b915060408401356149de81614ce0565b809150509250925092565b600080604083850312156149fb578182fd5b50508035926020909101359150565b600080600060608486031215614a1e578081fd5b833592506020840135915060408401356149de81614ce0565b60008251614a49818460208701614c0c565b9190910192915050565b6000602082528251806020840152614a72816040850160208701614c0c565b601f01601f19169190910160400192915050565b6020808252602c908201527f46756e6374696f6e206d7573742062652063616c6c6564207468726f7567682060408201526b19195b1959d85d1958d85b1b60a21b606082015260800190565b6020808252602c908201527f46756e6374696f6e206d7573742062652063616c6c6564207468726f7567682060408201526b6163746976652070726f787960a01b606082015260800190565b6020808252818101527f4f776e61626c653a2063616c6c6572206973206e6f7420746865206f776e6572604082015260600190565b6020808252602b908201527f496e697469616c697a61626c653a20636f6e7472616374206973206e6f74206960408201526a6e697469616c697a696e6760a81b606082015260800190565b60008219821115614bb157614bb1614c9f565b500190565b600082614bd157634e487b7160e01b81526012600452602481fd5b500490565b6000816000190483118215151615614bf057614bf0614c9f565b500290565b600082821015614c0757614c07614c9f565b500390565b60005b83811015614c27578181015183820152602001614c0f565b838111156128bc5750506000910152565b600081614c4757614c47614c9f565b506000190190565b600281046001821680614c6357607f821691505b60208210811415612f2057634e487b7160e01b600052602260045260246000fd5b6000600019821415614c9857614c98614c9f565b5060010190565b634e487b7160e01b600052601160045260246000fd5b634e487b7160e01b600052604160045260246000fd5b6001600160a01b0381168114610f2c57600080fd5b8015158114610f2c57600080fdfe416464726573733a206c6f772d6c6576656c2064656c65676174652063616c6c206661696c6564a26469706673582212209003ccfd6ffc93c93d7707361642c1798f4009427f2c30623568b9a13aefdfe864736f6c63430008020033",
  "linkReferences": {},
  "deployedLinkReferences": {}
}