{
  "_format": "hh-sol-artifact-1",
  "contractName": "UniswapV2RouterMock",
  "sourceName": "contracts/treasuryMockExchange.sol",
  "abi": [
    {
      "inputs": [],
      "stateMutability": "nonpayable",
      "type": "constructor"
    },
    {
      "inputs": [],
      "name": "WETH",
      "outputs": [
        {
          "internalType": "address",
          "name": "",
          "type": "address"
        }
      ],
      "stateMutability": "view",
      "type": "function"
    },
    {
      "inputs": [
        {
          "internalType": "uint256",
          "name": "amountIn",
          "type": "uint256"
        },
        {
          "internalType": "address[]",
          "name": "path",
          "type": "address[]"
        }
      ],
      "name": "getAmountsOut",
      "outputs": [
        {
          "internalType": "uint256[]",
          "name": "amounts",
          "type": "uint256[]"
        }
      ],
      "stateMutability": "view",
      "type": "function"
    }
  ],
  "bytecode": "0x608060405234801561001057600080fd5b506000805460018181018355828052670de0b6b3a76400007f290decd9548b62a8d60345a988386fc84ba6bc95484008f6362f93160ef3e563928301819055835491820190935501556101bd806100686000396000f3fe608060405234801561001057600080fd5b50600436106100365760003560e01c8063ad5c46481461003b578063d06ca61f1461004e575b600080fd5b6040513081526020015b60405180910390f35b61006161005c3660046100ca565b61006e565b6040516100459190610143565b606060008054806020026020016040519081016040528092919081815260200182805480156100bc57602002820191906000526020600020905b8154815260200190600101908083116100a8575b505050505090509392505050565b6000806000604084860312156100de578283fd5b83359250602084013567ffffffffffffffff808211156100fc578384fd5b818601915086601f83011261010f578384fd5b81358181111561011d578485fd5b8760208083028501011115610130578485fd5b6020830194508093505050509250925092565b6020808252825182820181905260009190848201906040850190845b8181101561017b5783518352928401929184019160010161015f565b5090969550505050505056fea26469706673582212203cd25a31023a90b717b3fd2392faff43c8a1d422d7a29372bc22d77d7a0401fc64736f6c63430008020033",
  "linkReferences": {},
  "deployedLinkReferences": {}
}