{
  "_format": "hh-sol-artifact-1",
  "contractName": "Cult",
  "sourceName": "contracts/cult.sol",
  "abi": [
    {
      "anonymous": false,
      "inputs": [
        {
          "indexed": false,
          "internalType": "address",
          "name": "previousAdmin",
          "type": "address"
        },
        {
          "indexed": false,
          "internalType": "address",
          "name": "newAdmin",
          "type": "address"
        }
      ],
      "name": "AdminChanged",
      "type": "event"
    },
    {
      "anonymous": false,
      "inputs": [
        {
          "indexed": true,
          "internalType": "address",
          "name": "owner",
          "type": "address"
        },
        {
          "indexed": true,
          "internalType": "address",
          "name": "spender",
          "type": "address"
        },
        {
          "indexed": false,
          "internalType": "uint256",
          "name": "value",
          "type": "uint256"
        }
      ],
      "name": "Approval",
      "type": "event"
    },
    {
      "anonymous": false,
      "inputs": [
        {
          "indexed": true,
          "internalType": "address",
          "name": "beacon",
          "type": "address"
        }
      ],
      "name": "BeaconUpgraded",
      "type": "event"
    },
    {
      "anonymous": false,
      "inputs": [
        {
          "indexed": true,
          "internalType": "address",
          "name": "delegator",
          "type": "address"
        },
        {
          "indexed": true,
          "internalType": "address",
          "name": "fromDelegate",
          "type": "address"
        },
        {
          "indexed": true,
          "internalType": "address",
          "name": "toDelegate",
          "type": "address"
        }
      ],
      "name": "DelegateChanged",
      "type": "event"
    },
    {
      "anonymous": false,
      "inputs": [
        {
          "indexed": true,
          "internalType": "address",
          "name": "delegate",
          "type": "address"
        },
        {
          "indexed": false,
          "internalType": "uint256",
          "name": "previousBalance",
          "type": "uint256"
        },
        {
          "indexed": false,
          "internalType": "uint256",
          "name": "newBalance",
          "type": "uint256"
        }
      ],
      "name": "DelegateVotesChanged",
      "type": "event"
    },
    {
      "anonymous": false,
      "inputs": [
        {
          "indexed": true,
          "internalType": "address",
          "name": "previousOwner",
          "type": "address"
        },
        {
          "indexed": true,
          "internalType": "address",
          "name": "newOwner",
          "type": "address"
        }
      ],
      "name": "OwnershipTransferred",
      "type": "event"
    },
    {
      "anonymous": false,
      "inputs": [
        {
          "indexed": false,
          "internalType": "address",
          "name": "account",
          "type": "address"
        }
      ],
      "name": "Paused",
      "type": "event"
    },
    {
      "anonymous": false,
      "inputs": [
        {
          "indexed": false,
          "internalType": "uint256",
          "name": "taxAmount",
          "type": "uint256"
        }
      ],
      "name": "TaxUpdated",
      "type": "event"
    },
    {
      "anonymous": false,
      "inputs": [
        {
          "indexed": true,
          "internalType": "address",
          "name": "from",
          "type": "address"
        },
        {
          "indexed": true,
          "internalType": "address",
          "name": "to",
          "type": "address"
        },
        {
          "indexed": false,
          "internalType": "uint256",
          "name": "value",
          "type": "uint256"
        }
      ],
      "name": "Transfer",
      "type": "event"
    },
    {
      "anonymous": false,
      "inputs": [
        {
          "indexed": false,
          "internalType": "address",
          "name": "newTreasury",
          "type": "address"
        }
      ],
      "name": "TreasuryAddressUpdated",
      "type": "event"
    },
    {
      "anonymous": false,
      "inputs": [
        {
          "indexed": false,
          "internalType": "address",
          "name": "account",
          "type": "address"
        }
      ],
      "name": "Unpaused",
      "type": "event"
    },
    {
      "anonymous": false,
      "inputs": [
        {
          "indexed": true,
          "internalType": "address",
          "name": "implementation",
          "type": "address"
        }
      ],
      "name": "Upgraded",
      "type": "event"
    },
    {
      "anonymous": false,
      "inputs": [
        {
          "indexed": false,
          "internalType": "address",
          "name": "whitelistAccount",
          "type": "address"
        },
        {
          "indexed": false,
          "internalType": "bool",
          "name": "value",
          "type": "bool"
        }
      ],
      "name": "WhitelistAddressUpdated",
      "type": "event"
    },
    {
      "inputs": [],
      "name": "DOMAIN_SEPARATOR",
      "outputs": [
        {
          "internalType": "bytes32",
          "name": "",
          "type": "bytes32"
        }
      ],
      "stateMutability": "view",
      "type": "function"
    },
    {
      "inputs": [
        {
          "internalType": "address",
          "name": "owner",
          "type": "address"
        },
        {
          "internalType": "address",
          "name": "spender",
          "type": "address"
        }
      ],
      "name": "allowance",
      "outputs": [
        {
          "internalType": "uint256",
          "name": "",
          "type": "uint256"
        }
      ],
      "stateMutability": "view",
      "type": "function"
    },
    {
      "inputs": [
        {
          "internalType": "address",
          "name": "spender",
          "type": "address"
        },
        {
          "internalType": "uint256",
          "name": "amount",
          "type": "uint256"
        }
      ],
      "name": "approve",
      "outputs": [
        {
          "internalType": "bool",
          "name": "",
          "type": "bool"
        }
      ],
      "stateMutability": "nonpayable",
      "type": "function"
    },
    {
      "inputs": [
        {
          "internalType": "address",
          "name": "account",
          "type": "address"
        }
      ],
      "name": "balanceOf",
      "outputs": [
        {
          "internalType": "uint256",
          "name": "",
          "type": "uint256"
        }
      ],
      "stateMutability": "view",
      "type": "function"
    },
    {
      "inputs": [
        {
          "internalType": "address",
          "name": "account",
          "type": "address"
        },
        {
          "internalType": "uint32",
          "name": "pos",
          "type": "uint32"
        }
      ],
      "name": "checkpoints",
      "outputs": [
        {
          "components": [
            {
              "internalType": "uint32",
              "name": "fromBlock",
              "type": "uint32"
            },
            {
              "internalType": "uint224",
              "name": "votes",
              "type": "uint224"
            }
          ],
          "internalType": "struct ERC20VotesUpgradeable.Checkpoint",
          "name": "",
          "type": "tuple"
        }
      ],
      "stateMutability": "view",
      "type": "function"
    },
    {
      "inputs": [],
      "name": "decimals",
      "outputs": [
        {
          "internalType": "uint8",
          "name": "",
          "type": "uint8"
        }
      ],
      "stateMutability": "view",
      "type": "function"
    },
    {
      "inputs": [
        {
          "internalType": "address",
          "name": "spender",
          "type": "address"
        },
        {
          "internalType": "uint256",
          "name": "subtractedValue",
          "type": "uint256"
        }
      ],
      "name": "decreaseAllowance",
      "outputs": [
        {
          "internalType": "bool",
          "name": "",
          "type": "bool"
        }
      ],
      "stateMutability": "nonpayable",
      "type": "function"
    },
    {
      "inputs": [
        {
          "internalType": "address",
          "name": "delegatee",
          "type": "address"
        }
      ],
      "name": "delegate",
      "outputs": [],
      "stateMutability": "nonpayable",
      "type": "function"
    },
    {
      "inputs": [
        {
          "internalType": "address",
          "name": "delegatee",
          "type": "address"
        },
        {
          "internalType": "uint256",
          "name": "nonce",
          "type": "uint256"
        },
        {
          "internalType": "uint256",
          "name": "expiry",
          "type": "uint256"
        },
        {
          "internalType": "uint8",
          "name": "v",
          "type": "uint8"
        },
        {
          "internalType": "bytes32",
          "name": "r",
          "type": "bytes32"
        },
        {
          "internalType": "bytes32",
          "name": "s",
          "type": "bytes32"
        }
      ],
      "name": "delegateBySig",
      "outputs": [],
      "stateMutability": "nonpayable",
      "type": "function"
    },
    {
      "inputs": [
        {
          "internalType": "address",
          "name": "account",
          "type": "address"
        }
      ],
      "name": "delegates",
      "outputs": [
        {
          "internalType": "address",
          "name": "",
          "type": "address"
        }
      ],
      "stateMutability": "view",
      "type": "function"
    },
    {
      "inputs": [
        {
          "internalType": "address",
          "name": "account",
          "type": "address"
        }
      ],
      "name": "getCurrentVotes",
      "outputs": [
        {
          "internalType": "uint96",
          "name": "",
          "type": "uint96"
        }
      ],
      "stateMutability": "view",
      "type": "function"
    },
    {
      "inputs": [
        {
          "internalType": "uint256",
          "name": "blockNumber",
          "type": "uint256"
        }
      ],
      "name": "getPastTotalSupply",
      "outputs": [
        {
          "internalType": "uint256",
          "name": "",
          "type": "uint256"
        }
      ],
      "stateMutability": "view",
      "type": "function"
    },
    {
      "inputs": [
        {
          "internalType": "address",
          "name": "account",
          "type": "address"
        },
        {
          "internalType": "uint256",
          "name": "blockNumber",
          "type": "uint256"
        }
      ],
      "name": "getPastVotes",
      "outputs": [
        {
          "internalType": "uint256",
          "name": "",
          "type": "uint256"
        }
      ],
      "stateMutability": "view",
      "type": "function"
    },
    {
      "inputs": [
        {
          "internalType": "address",
          "name": "account",
          "type": "address"
        },
        {
          "internalType": "uint256",
          "name": "blockNumber",
          "type": "uint256"
        }
      ],
      "name": "getPriorVotes",
      "outputs": [
        {
          "internalType": "uint96",
          "name": "",
          "type": "uint96"
        }
      ],
      "stateMutability": "view",
      "type": "function"
    },
    {
      "inputs": [
        {
          "internalType": "address",
          "name": "account",
          "type": "address"
        }
      ],
      "name": "getVotes",
      "outputs": [
        {
          "internalType": "uint256",
          "name": "",
          "type": "uint256"
        }
      ],
      "stateMutability": "view",
      "type": "function"
    },
    {
      "inputs": [
        {
          "internalType": "address",
          "name": "spender",
          "type": "address"
        },
        {
          "internalType": "uint256",
          "name": "addedValue",
          "type": "uint256"
        }
      ],
      "name": "increaseAllowance",
      "outputs": [
        {
          "internalType": "bool",
          "name": "",
          "type": "bool"
        }
      ],
      "stateMutability": "nonpayable",
      "type": "function"
    },
    {
      "inputs": [
        {
          "internalType": "address",
          "name": "initialHolder",
          "type": "address"
        },
        {
          "internalType": "uint256",
          "name": "initialSupply",
          "type": "uint256"
        }
      ],
      "name": "initialize",
      "outputs": [],
      "stateMutability": "nonpayable",
      "type": "function"
    },
    {
      "inputs": [],
      "name": "name",
      "outputs": [
        {
          "internalType": "string",
          "name": "",
          "type": "string"
        }
      ],
      "stateMutability": "view",
      "type": "function"
    },
    {
      "inputs": [
        {
          "internalType": "address",
          "name": "owner",
          "type": "address"
        }
      ],
      "name": "nonces",
      "outputs": [
        {
          "internalType": "uint256",
          "name": "",
          "type": "uint256"
        }
      ],
      "stateMutability": "view",
      "type": "function"
    },
    {
      "inputs": [
        {
          "internalType": "address",
          "name": "account",
          "type": "address"
        }
      ],
      "name": "numCheckpoints",
      "outputs": [
        {
          "internalType": "uint32",
          "name": "",
          "type": "uint32"
        }
      ],
      "stateMutability": "view",
      "type": "function"
    },
    {
      "inputs": [],
      "name": "owner",
      "outputs": [
        {
          "internalType": "address",
          "name": "",
          "type": "address"
        }
      ],
      "stateMutability": "view",
      "type": "function"
    },
    {
      "inputs": [],
      "name": "paused",
      "outputs": [
        {
          "internalType": "bool",
          "name": "",
          "type": "bool"
        }
      ],
      "stateMutability": "view",
      "type": "function"
    },
    {
      "inputs": [
        {
          "internalType": "address",
          "name": "owner",
          "type": "address"
        },
        {
          "internalType": "address",
          "name": "spender",
          "type": "address"
        },
        {
          "internalType": "uint256",
          "name": "value",
          "type": "uint256"
        },
        {
          "internalType": "uint256",
          "name": "deadline",
          "type": "uint256"
        },
        {
          "internalType": "uint8",
          "name": "v",
          "type": "uint8"
        },
        {
          "internalType": "bytes32",
          "name": "r",
          "type": "bytes32"
        },
        {
          "internalType": "bytes32",
          "name": "s",
          "type": "bytes32"
        }
      ],
      "name": "permit",
      "outputs": [],
      "stateMutability": "nonpayable",
      "type": "function"
    },
    {
      "inputs": [],
      "name": "renounceOwnership",
      "outputs": [],
      "stateMutability": "nonpayable",
      "type": "function"
    },
    {
      "inputs": [
        {
          "internalType": "uint256",
          "name": "_tax",
          "type": "uint256"
        }
      ],
      "name": "setTax",
      "outputs": [],
      "stateMutability": "nonpayable",
      "type": "function"
    },
    {
      "inputs": [
        {
          "internalType": "address",
          "name": "_treasury",
          "type": "address"
        }
      ],
      "name": "setTreasuryAddress",
      "outputs": [],
      "stateMutability": "nonpayable",
      "type": "function"
    },
    {
      "inputs": [
        {
          "internalType": "address",
          "name": "_whitelist",
          "type": "address"
        },
        {
          "internalType": "bool",
          "name": "_status",
          "type": "bool"
        }
      ],
      "name": "setWhitelistAddress",
      "outputs": [],
      "stateMutability": "nonpayable",
      "type": "function"
    },
    {
      "inputs": [],
      "name": "symbol",
      "outputs": [
        {
          "internalType": "string",
          "name": "",
          "type": "string"
        }
      ],
      "stateMutability": "view",
      "type": "function"
    },
    {
      "inputs": [],
      "name": "tax",
      "outputs": [
        {
          "internalType": "uint256",
          "name": "",
          "type": "uint256"
        }
      ],
      "stateMutability": "view",
      "type": "function"
    },
    {
      "inputs": [],
      "name": "totalSupply",
      "outputs": [
        {
          "internalType": "uint256",
          "name": "",
          "type": "uint256"
        }
      ],
      "stateMutability": "view",
      "type": "function"
    },
    {
      "inputs": [
        {
          "internalType": "address",
          "name": "recipient",
          "type": "address"
        },
        {
          "internalType": "uint256",
          "name": "amount",
          "type": "uint256"
        }
      ],
      "name": "transfer",
      "outputs": [
        {
          "internalType": "bool",
          "name": "",
          "type": "bool"
        }
      ],
      "stateMutability": "nonpayable",
      "type": "function"
    },
    {
      "inputs": [
        {
          "internalType": "address",
          "name": "sender",
          "type": "address"
        },
        {
          "internalType": "address",
          "name": "recipient",
          "type": "address"
        },
        {
          "internalType": "uint256",
          "name": "amount",
          "type": "uint256"
        }
      ],
      "name": "transferFrom",
      "outputs": [
        {
          "internalType": "bool",
          "name": "",
          "type": "bool"
        }
      ],
      "stateMutability": "nonpayable",
      "type": "function"
    },
    {
      "inputs": [
        {
          "internalType": "address",
          "name": "newOwner",
          "type": "address"
        }
      ],
      "name": "transferOwnership",
      "outputs": [],
      "stateMutability": "nonpayable",
      "type": "function"
    },
    {
      "inputs": [],
      "name": "treasury",
      "outputs": [
        {
          "internalType": "address",
          "name": "",
          "type": "address"
        }
      ],
      "stateMutability": "view",
      "type": "function"
    },
    {
      "inputs": [
        {
          "internalType": "address",
          "name": "newImplementation",
          "type": "address"
        }
      ],
      "name": "upgradeTo",
      "outputs": [],
      "stateMutability": "nonpayable",
      "type": "function"
    },
    {
      "inputs": [
        {
          "internalType": "address",
          "name": "newImplementation",
          "type": "address"
        },
        {
          "internalType": "bytes",
          "name": "data",
          "type": "bytes"
        }
      ],
      "name": "upgradeToAndCall",
      "outputs": [],
      "stateMutability": "payable",
      "type": "function"
    },
    {
      "inputs": [
        {
          "internalType": "address",
          "name": "",
          "type": "address"
        }
      ],
      "name": "whitelistedAddress",
      "outputs": [
        {
          "internalType": "bool",
          "name": "",
          "type": "bool"
        }
      ],
      "stateMutability": "view",
      "type": "function"
    }
  ],
  "bytecode": "0x60a06040523060601b60805234801561001757600080fd5b5060805160601c61318961004b600039600081816109350152818161097501528181610b9d0152610bdd01526131896000f3fe60806040526004361061021a5760003560e01c806370a0823111610123578063a457c2d7116100ab578063cd6dc6871161006f578063cd6dc6871461066a578063d505accf1461068a578063dd62ed3e146106aa578063f1127ed8146106f0578063f2fde38b1461073a5761021a565b8063a457c2d7146105b9578063a9059cbb146105d9578063b4b5ea57146105f9578063c30796ab14610619578063c3cda5201461064a5761021a565b80638da5cb5b116100f25780638da5cb5b1461052e5780638e539e8c1461054d57806395d89b411461056d57806399c8d556146105825780639ab24eb0146105995761021a565b806370a0823114610486578063715018a6146104bc578063782d6fe1146104d15780637ecebe001461050e5761021a565b80633a46b1a8116101a65780635c19a95c116101755780635c19a95c146103d75780635c975abb146103f757806361d027b3146104105780636605bfda146104315780636fcfff45146104515761021a565b80633a46b1a81461034c5780633f914aef1461036c5780634f1ef2861461038c578063587cde1e1461039f5761021a565b80632e5bb6ff116101ed5780632e5bb6ff146102b9578063313ce567146102db5780633644e515146102f75780633659cfe61461030c578063395093511461032c5761021a565b806306fdde031461021f578063095ea7b31461024a57806318160ddd1461027a57806323b872dd14610299575b600080fd5b34801561022b57600080fd5b5061023461075a565b6040516102419190612ee6565b60405180910390f35b34801561025657600080fd5b5061026a610265366004612dff565b6107ec565b6040519015158152602001610241565b34801561028657600080fd5b506099545b604051908152602001610241565b3480156102a557600080fd5b5061026a6102b4366004612c64565b610802565b3480156102c557600080fd5b506102d96102d4366004612eb2565b6108b3565b005b3480156102e757600080fd5b5060405160128152602001610241565b34801561030357600080fd5b5061028b61091b565b34801561031857600080fd5b506102d9610327366004612c18565b61092a565b34801561033857600080fd5b5061026a610347366004612dff565b6109f3565b34801561035857600080fd5b5061028b610367366004612dff565b610a2f565b34801561037857600080fd5b506102d9610387366004612d08565b610aa3565b6102d961039a366004612d42565b610b92565b3480156103ab57600080fd5b506103bf6103ba366004612c18565b610c4c565b6040516001600160a01b039091168152602001610241565b3480156103e357600080fd5b506102d96103f2366004612c18565b610c6e565b34801561040357600080fd5b506101c65460ff1661026a565b34801561041c57600080fd5b506101f8546103bf906001600160a01b031681565b34801561043d57600080fd5b506102d961044c366004612c18565b610c78565b34801561045d57600080fd5b5061047161046c366004612c18565b610d63565b60405163ffffffff9091168152602001610241565b34801561049257600080fd5b5061028b6104a1366004612c18565b6001600160a01b031660009081526097602052604090205490565b3480156104c857600080fd5b506102d9610d8c565b3480156104dd57600080fd5b506104f16104ec366004612dff565b610dc3565b6040516bffffffffffffffffffffffff9091168152602001610241565b34801561051a57600080fd5b5061028b610529366004612c18565b610dd7565b34801561053a57600080fd5b50610194546001600160a01b03166103bf565b34801561055957600080fd5b5061028b610568366004612eb2565b610df5565b34801561057957600080fd5b50610234610e52565b34801561058e57600080fd5b5061028b6101f95481565b3480156105a557600080fd5b5061028b6105b4366004612c18565b610e61565b3480156105c557600080fd5b5061026a6105d4366004612dff565b610ef8565b3480156105e557600080fd5b5061026a6105f4366004612dff565b610f91565b34801561060557600080fd5b506104f1610614366004612c18565b610f9e565b34801561062557600080fd5b5061026a610634366004612c18565b6101fa6020526000908152604090205460ff1681565b34801561065657600080fd5b506102d9610665366004612e28565b610fac565b34801561067657600080fd5b506102d9610685366004612dff565b6110e2565b34801561069657600080fd5b506102d96106a5366004612c9f565b611244565b3480156106b657600080fd5b5061028b6106c5366004612c32565b6001600160a01b03918216600090815260986020908152604080832093909416825291909152205490565b3480156106fc57600080fd5b5061071061070b366004612e7f565b61138a565b60408051825163ffffffff1681526020928301516001600160e01b03169281019290925201610241565b34801561074657600080fd5b506102d9610755366004612c18565b61141d565b6060609a8054610769906130cb565b80601f0160208091040260200160405190810160405280929190818152602001828054610795906130cb565b80156107e25780601f106107b7576101008083540402835291602001916107e2565b820191906000526020600020905b8154815290600101906020018083116107c557829003601f168201915b5050505050905090565b60006107f93384846114b6565b50600192915050565b600061080f8484846115da565b6001600160a01b0384166000908152609860209081526040808320338452909152902054828110156108995760405162461bcd60e51b815260206004820152602860248201527f45524332303a207472616e7366657220616d6f756e74206578636565647320616044820152676c6c6f77616e636560c01b60648201526084015b60405180910390fd5b6108a685338584036114b6565b60019150505b9392505050565b610194546001600160a01b031633146108de5760405162461bcd60e51b815260040161089090612fb1565b6101f98190556040518181527f35ad15e7f5e4a16b548e8916bd02c51847dde8d106f334b4edaaacf140e43c91906020015b60405180910390a150565b60006109256116f3565b905090565b306001600160a01b037f00000000000000000000000000000000000000000000000000000000000000001614156109735760405162461bcd60e51b815260040161089090612f19565b7f00000000000000000000000000000000000000000000000000000000000000006001600160a01b03166109a561176e565b6001600160a01b0316146109cb5760405162461bcd60e51b815260040161089090612f65565b6109d48161179c565b604080516000808252602082019092526109f091839190611814565b50565b3360008181526098602090815260408083206001600160a01b038716845290915281205490916107f9918590610a2a908690613031565b6114b6565b6000438210610a805760405162461bcd60e51b815260206004820152601f60248201527f4552433230566f7465733a20626c6f636b206e6f7420796574206d696e6564006044820152606401610890565b6001600160a01b0383166000908152610131602052604090206108ac908361195f565b610194546001600160a01b03163314610ace5760405162461bcd60e51b815260040161089090612fb1565b6001600160a01b038216610b2e5760405162461bcd60e51b815260206004820152602160248201527f73657457686974656c697374416464726573733a205a65726f206164647265736044820152607360f81b6064820152608401610890565b6001600160a01b03821660008181526101fa6020908152604091829020805460ff19168515159081179091558251938452908301527fc03feb136ee85ef1974671b8c663f063c37bc61afb187b94ddfb1a959d73d180910160405180910390a15050565b306001600160a01b037f0000000000000000000000000000000000000000000000000000000000000000161415610bdb5760405162461bcd60e51b815260040161089090612f19565b7f00000000000000000000000000000000000000000000000000000000000000006001600160a01b0316610c0d61176e565b6001600160a01b031614610c335760405162461bcd60e51b815260040161089090612f65565b610c3c8261179c565b610c4882826001611814565b5050565b6001600160a01b0380821660009081526101306020526040902054165b919050565b6109f03382611a38565b610194546001600160a01b03163314610ca35760405162461bcd60e51b815260040161089090612fb1565b6001600160a01b038116610cf95760405162461bcd60e51b815260206004820181905260248201527f7365745472656173757279416464726573733a205a65726f20616464726573736044820152606401610890565b6101f880546001600160a01b0319166001600160a01b03831690811790915560008181526101fa6020908152604091829020805460ff1916600117905590519182527fb6a5e89655cf506139085f051af608195ed056f8dc550b180a1c38d401e2b6c49101610910565b6001600160a01b03811660009081526101316020526040812054610d8690611ad5565b92915050565b610194546001600160a01b03163314610db75760405162461bcd60e51b815260040161089090612fb1565b610dc16000611b3e565b565b60006108ac610dd28484610a2f565b611b91565b6001600160a01b038116600090815260fd6020526040812054610d86565b6000438210610e465760405162461bcd60e51b815260206004820152601f60248201527f4552433230566f7465733a20626c6f636b206e6f7420796574206d696e6564006044820152606401610890565b610d866101328361195f565b6060609b8054610769906130cb565b6001600160a01b038116600090815261013160205260408120548015610ee5576001600160a01b038316600090815261013160205260409020610ea5600183613088565b81548110610ec357634e487b7160e01b600052603260045260246000fd5b60009182526020909120015464010000000090046001600160e01b0316610ee8565b60005b6001600160e01b03169392505050565b3360009081526098602090815260408083206001600160a01b038616845290915281205482811015610f7a5760405162461bcd60e51b815260206004820152602560248201527f45524332303a2064656372656173656420616c6c6f77616e63652062656c6f77604482015264207a65726f60d81b6064820152608401610890565b610f8733858584036114b6565b5060019392505050565b60006107f93384846115da565b6000610d86610dd283610e61565b83421115610ffc5760405162461bcd60e51b815260206004820152601d60248201527f4552433230566f7465733a207369676e617475726520657870697265640000006044820152606401610890565b604080517fe48329057bfd03d55e49b547132e39cffd9c1820ad7b9d4c5307691425d15adf60208201526001600160a01b0388169181019190915260608101869052608081018590526000906110769061106e9060a00160405160208183030381529060405280519060200120611bfe565b858585611c4c565b905061108181611c74565b86146110cf5760405162461bcd60e51b815260206004820152601960248201527f4552433230566f7465733a20696e76616c6964206e6f6e6365000000000000006044820152606401610890565b6110d98188611a38565b50505050505050565b600054610100900460ff166110fd5760005460ff1615611101565b303b155b6111645760405162461bcd60e51b815260206004820152602e60248201527f496e697469616c697a61626c653a20636f6e747261637420697320616c72656160448201526d191e481a5b9a5d1a585b1a5e995960921b6064820152608401610890565b600054610100900460ff1615801561118f576000805460ff1961ff0019909116610100171660011790555b611197611c9c565b6111df604051806040016040528060098152602001685245414c4d2044414f60b81b815250604051806040016040528060058152602001645245414c4d60d81b815250611cd3565b611205604051806040016040528060058152602001647265616c6d60d81b815250611d0c565b61120d611d67565b611215611d8e565b61121d611d67565b6112278383611dc2565b60046101f955801561123f576000805461ff00191690555b505050565b834211156112945760405162461bcd60e51b815260206004820152601d60248201527f45524332305065726d69743a206578706972656420646561646c696e650000006044820152606401610890565b600060fe548888886112a58c611c74565b6040805160208101969096526001600160a01b0394851690860152929091166060840152608083015260a082015260c0810186905260e001604051602081830303815290604052805190602001209050600061130082611bfe565b9050600061131082878787611c4c565b9050896001600160a01b0316816001600160a01b0316146113735760405162461bcd60e51b815260206004820152601e60248201527f45524332305065726d69743a20696e76616c6964207369676e617475726500006044820152606401610890565b61137e8a8a8a6114b6565b50505050505050505050565b60408051808201909152600080825260208201526001600160a01b038316600090815261013160205260409020805463ffffffff84169081106113dd57634e487b7160e01b600052603260045260246000fd5b60009182526020918290206040805180820190915291015463ffffffff8116825264010000000090046001600160e01b0316918101919091529392505050565b610194546001600160a01b031633146114485760405162461bcd60e51b815260040161089090612fb1565b6001600160a01b0381166114ad5760405162461bcd60e51b815260206004820152602660248201527f4f776e61626c653a206e6577206f776e657220697320746865207a65726f206160448201526564647265737360d01b6064820152608401610890565b6109f081611b3e565b6001600160a01b0383166115185760405162461bcd60e51b8152602060048201526024808201527f45524332303a20617070726f76652066726f6d20746865207a65726f206164646044820152637265737360e01b6064820152608401610890565b6001600160a01b0382166115795760405162461bcd60e51b815260206004820152602260248201527f45524332303a20617070726f766520746f20746865207a65726f206164647265604482015261737360f01b6064820152608401610890565b6001600160a01b0383811660008181526098602090815260408083209487168084529482529182902085905590518481527f8c5be1e5ebec7d5bd14f71427d1e84f3dd0314c0f7b2291e5b200ac8c7c3b925910160405180910390a3505050565b6001600160a01b03831660009081526101fa602052604090205460ff168061161b57506001600160a01b03821660009081526101fa602052604090205460ff165b156116305761162b838383611dcc565b61123f565b60006116546103e861164e6101f95485611fab90919063ffffffff16565b90611fb7565b6101f8549091506116709085906001600160a01b031683611dcc565b611684848461167f8585611fc3565b611dcc565b6101f860009054906101000a90046001600160a01b03166001600160a01b031663a1485f646040518163ffffffff1660e01b8152600401600060405180830381600087803b1580156116d557600080fd5b505af11580156116e9573d6000803e3d6000fd5b5050505050505050565b60006109257f8b73c3c69bb8fe3d512ecc4cf759cc79239f7b179b0ffacaa9a75d522b39400f61172260c95490565b60ca546040805160208101859052908101839052606081018290524660808201523060a082015260009060c0016040516020818303038152906040528051906020012090509392505050565b7f360894a13ba1a3210667c828492db98dca3e2076cc3735a920a3ca505d382bbc546001600160a01b031690565b336117b0610194546001600160a01b031690565b6001600160a01b0316146109f05760405162461bcd60e51b815260206004820152602560248201527f4f6e6c79206f776e65722063616e207570677261646520696d706c656d656e7460448201526430ba34b7b760d91b6064820152608401610890565b600061181e61176e565b905061182984611fcf565b6000835111806118365750815b15611847576118458484612074565b505b7f4910fdfa16fed3260ed0e7147f7cc6da11a60208b5b9406d12a635614ffd9143805460ff1661195857805460ff191660011781556040516001600160a01b03831660248201526118c690869060440160408051601f198184030181529190526020810180516001600160e01b0316631b2ce7f360e11b179052612074565b50805460ff191681556118d761176e565b6001600160a01b0316826001600160a01b03161461194f5760405162461bcd60e51b815260206004820152602f60248201527f45524331393637557067726164653a207570677261646520627265616b73206660448201526e75727468657220757067726164657360881b6064820152608401610890565b6119588561215f565b5050505050565b8154600090815b818110156119d157600061197a828461219f565b90508486828154811061199d57634e487b7160e01b600052603260045260246000fd5b60009182526020909120015463ffffffff1611156119bd578092506119cb565b6119c8816001613031565b91505b50611966565b8115611a2357846119e3600184613088565b81548110611a0157634e487b7160e01b600052603260045260246000fd5b60009182526020909120015464010000000090046001600160e01b0316611a26565b60005b6001600160e01b031695945050505050565b6000611a4383610c4c565b90506000611a66846001600160a01b031660009081526097602052604090205490565b6001600160a01b038581166000818152610130602052604080822080546001600160a01b031916898616908117909155905194955093928616927f3134e8a2e6d97e929a7e54011ea5485d7d196dd5f0ba4d4ef95803e8e3fc257f9190a4611acf8284836121ba565b50505050565b600063ffffffff821115611b3a5760405162461bcd60e51b815260206004820152602660248201527f53616665436173743a2076616c756520646f65736e27742066697420696e203360448201526532206269747360d01b6064820152608401610890565b5090565b61019480546001600160a01b038381166001600160a01b0319831681179093556040519116919082907f8be0079c531659141344cd1fd0a4f28419497f9722a3daafe3b4186f6b6457e090600090a35050565b60006bffffffffffffffffffffffff821115611b3a5760405162461bcd60e51b815260206004820152602660248201527f53616665436173743a2076616c756520646f65736e27742066697420696e203960448201526536206269747360d01b6064820152608401610890565b6000610d86611c0b6116f3565b8360405161190160f01b6020820152602281018390526042810182905260009060620160405160208183030381529060405280519060200120905092915050565b6000806000611c5d878787876122f9565b91509150611c6a816123e6565b5095945050505050565b6001600160a01b038116600090815260fd602052604090208054600181018255905b50919050565b600054610100900460ff16611cc35760405162461bcd60e51b815260040161089090612fe6565b611ccb611d67565b610dc16125e9565b600054610100900460ff16611cfa5760405162461bcd60e51b815260040161089090612fe6565b611d02611d67565b610c488282612619565b600054610100900460ff16611d335760405162461bcd60e51b815260040161089090612fe6565b611d3b611d67565b611d5e81604051806040016040528060018152602001603160f81b815250612667565b6109f0816126a8565b600054610100900460ff16610dc15760405162461bcd60e51b815260040161089090612fe6565b600054610100900460ff16611db55760405162461bcd60e51b815260040161089090612fe6565b6101c6805460ff19169055565b610c4882826126f6565b6001600160a01b038316611e305760405162461bcd60e51b815260206004820152602560248201527f45524332303a207472616e736665722066726f6d20746865207a65726f206164604482015264647265737360d81b6064820152608401610890565b6001600160a01b038216611e925760405162461bcd60e51b815260206004820152602360248201527f45524332303a207472616e7366657220746f20746865207a65726f206164647260448201526265737360e81b6064820152608401610890565b611e9d838383612781565b6001600160a01b03831660009081526097602052604090205481811015611f155760405162461bcd60e51b815260206004820152602660248201527f45524332303a207472616e7366657220616d6f756e7420657863656564732062604482015265616c616e636560d01b6064820152608401610890565b6001600160a01b03808516600090815260976020526040808220858503905591851681529081208054849290611f4c908490613031565b92505081905550826001600160a01b0316846001600160a01b03167fddf252ad1be2c89b69c2b068fc378daa952ba7f163c4a11628f55a4df523b3ef84604051611f9891815260200190565b60405180910390a3611acf8484846127e8565b60006108ac8284613069565b60006108ac8284613049565b60006108ac8284613088565b803b6120335760405162461bcd60e51b815260206004820152602d60248201527f455243313936373a206e657720696d706c656d656e746174696f6e206973206e60448201526c1bdd08184818dbdb9d1c9858dd609a1b6064820152608401610890565b7f360894a13ba1a3210667c828492db98dca3e2076cc3735a920a3ca505d382bbc80546001600160a01b0319166001600160a01b0392909216919091179055565b6060823b6120d35760405162461bcd60e51b815260206004820152602660248201527f416464726573733a2064656c65676174652063616c6c20746f206e6f6e2d636f6044820152651b9d1c9858dd60d21b6064820152608401610890565b600080846001600160a01b0316846040516120ee9190612eca565b600060405180830381855af49150503d8060008114612129576040519150601f19603f3d011682016040523d82523d6000602084013e61212e565b606091505b5091509150612156828260405180606001604052806027815260200161312d602791396127f3565b95945050505050565b61216881611fcf565b6040516001600160a01b038216907fbc7cd75a20ee27fd9adebab32041f755214dbc6bffa90cc0225b39da2e5c2d3b90600090a250565b60006121ae6002848418613049565b6108ac90848416613031565b816001600160a01b0316836001600160a01b0316141580156121dc5750600081115b1561123f576001600160a01b0383161561226b576001600160a01b038316600090815261013160205260408120819061221890611fc38561282c565b91509150846001600160a01b03167fdec2bacdd2f05b59de34da9b523dff8be42e5e38e818c82fdb0bae774387a7248383604051612260929190918252602082015260400190565b60405180910390a250505b6001600160a01b0382161561123f576001600160a01b03821660009081526101316020526040812081906122a2906129dd8561282c565b91509150836001600160a01b03167fdec2bacdd2f05b59de34da9b523dff8be42e5e38e818c82fdb0bae774387a72483836040516122ea929190918252602082015260400190565b60405180910390a25050505050565b6000807f7fffffffffffffffffffffffffffffff5d576e7357a4501ddfe92f46681b20a083111561233057506000905060036123dd565b8460ff16601b1415801561234857508460ff16601c14155b1561235957506000905060046123dd565b6040805160008082526020820180845289905260ff881692820192909252606081018690526080810185905260019060a0016020604051602081039080840390855afa1580156123ad573d6000803e3d6000fd5b5050604051601f1901519150506001600160a01b0381166123d6576000600192509250506123dd565b9150600090505b94509492505050565b600081600481111561240857634e487b7160e01b600052602160045260246000fd5b1415612413576109f0565b600181600481111561243557634e487b7160e01b600052602160045260246000fd5b14156124835760405162461bcd60e51b815260206004820152601860248201527f45434453413a20696e76616c6964207369676e617475726500000000000000006044820152606401610890565b60028160048111156124a557634e487b7160e01b600052602160045260246000fd5b14156124f35760405162461bcd60e51b815260206004820152601f60248201527f45434453413a20696e76616c6964207369676e6174757265206c656e677468006044820152606401610890565b600381600481111561251557634e487b7160e01b600052602160045260246000fd5b141561256e5760405162461bcd60e51b815260206004820152602260248201527f45434453413a20696e76616c6964207369676e6174757265202773272076616c604482015261756560f01b6064820152608401610890565b600481600481111561259057634e487b7160e01b600052602160045260246000fd5b14156109f05760405162461bcd60e51b815260206004820152602260248201527f45434453413a20696e76616c6964207369676e6174757265202776272076616c604482015261756560f01b6064820152608401610890565b600054610100900460ff166126105760405162461bcd60e51b815260040161089090612fe6565b610dc133611b3e565b600054610100900460ff166126405760405162461bcd60e51b815260040161089090612fe6565b815161265390609a906020850190612b60565b50805161123f90609b906020840190612b60565b600054610100900460ff1661268e5760405162461bcd60e51b815260040161089090612fe6565b81516020928301208151919092012060c99190915560ca55565b600054610100900460ff166126cf5760405162461bcd60e51b815260040161089090612fe6565b507f6e71edae12b1b97f4d1f60370fef10105fa2faae0126114a169c64845d6126c960fe55565b61270082826129e9565b6099546001600160e01b0310156127725760405162461bcd60e51b815260206004820152603060248201527f4552433230566f7465733a20746f74616c20737570706c79207269736b73206f60448201526f766572666c6f77696e6720766f74657360801b6064820152608401610890565b611acf6101326129dd8361282c565b6101c65460ff161561123f5760405162461bcd60e51b815260206004820152602a60248201527f45524332305061757361626c653a20746f6b656e207472616e736665722077686044820152691a5b19481c185d5cd95960b21b6064820152608401610890565b61123f838383612adc565b606083156128025750816108ac565b8251156128125782518084602001fd5b8160405162461bcd60e51b81526004016108909190612ee6565b8254600090819080156128855785612845600183613088565b8154811061286357634e487b7160e01b600052603260045260246000fd5b60009182526020909120015464010000000090046001600160e01b0316612888565b60005b6001600160e01b031692506128a183858763ffffffff16565b91506000811180156128ed575043866128bb600184613088565b815481106128d957634e487b7160e01b600052603260045260246000fd5b60009182526020909120015463ffffffff16145b1561295b576128fb82612af7565b86612907600184613088565b8154811061292557634e487b7160e01b600052603260045260246000fd5b9060005260206000200160000160046101000a8154816001600160e01b0302191690836001600160e01b031602179055506129d4565b85604051806040016040528061297043611ad5565b63ffffffff16815260200161298485612af7565b6001600160e01b039081169091528254600181018455600093845260209384902083519101805493909401519091166401000000000263ffffffff91821663ffffffff1990931692909217161790555b50935093915050565b60006108ac8284613031565b6001600160a01b038216612a3f5760405162461bcd60e51b815260206004820152601f60248201527f45524332303a206d696e7420746f20746865207a65726f2061646472657373006044820152606401610890565b612a4b60008383612781565b8060996000828254612a5d9190613031565b90915550506001600160a01b03821660009081526097602052604081208054839290612a8a908490613031565b90915550506040518181526001600160a01b038316906000907fddf252ad1be2c89b69c2b068fc378daa952ba7f163c4a11628f55a4df523b3ef9060200160405180910390a3610c48600083836127e8565b61123f612ae884610c4c565b612af184610c4c565b836121ba565b60006001600160e01b03821115611b3a5760405162461bcd60e51b815260206004820152602760248201527f53616665436173743a2076616c756520646f65736e27742066697420696e20326044820152663234206269747360c81b6064820152608401610890565b828054612b6c906130cb565b90600052602060002090601f016020900481019282612b8e5760008555612bd4565b82601f10612ba757805160ff1916838001178555612bd4565b82800160010185558215612bd4579182015b82811115612bd4578251825591602001919060010190612bb9565b50611b3a9291505b80821115611b3a5760008155600101612bdc565b80356001600160a01b0381168114610c6957600080fd5b803560ff81168114610c6957600080fd5b600060208284031215612c29578081fd5b6108ac82612bf0565b60008060408385031215612c44578081fd5b612c4d83612bf0565b9150612c5b60208401612bf0565b90509250929050565b600080600060608486031215612c78578081fd5b612c8184612bf0565b9250612c8f60208501612bf0565b9150604084013590509250925092565b600080600080600080600060e0888a031215612cb9578283fd5b612cc288612bf0565b9650612cd060208901612bf0565b95506040880135945060608801359350612cec60808901612c07565b925060a0880135915060c0880135905092959891949750929550565b60008060408385031215612d1a578182fd5b612d2383612bf0565b915060208301358015158114612d37578182fd5b809150509250929050565b60008060408385031215612d54578182fd5b612d5d83612bf0565b9150602083013567ffffffffffffffff80821115612d79578283fd5b818501915085601f830112612d8c578283fd5b813581811115612d9e57612d9e613116565b604051601f8201601f19908116603f01168101908382118183101715612dc657612dc6613116565b81604052828152886020848701011115612dde578586fd5b82602086016020830137856020848301015280955050505050509250929050565b60008060408385031215612e11578182fd5b612e1a83612bf0565b946020939093013593505050565b60008060008060008060c08789031215612e40578182fd5b612e4987612bf0565b95506020870135945060408701359350612e6560608801612c07565b92506080870135915060a087013590509295509295509295565b60008060408385031215612e91578182fd5b612e9a83612bf0565b9150602083013563ffffffff81168114612d37578182fd5b600060208284031215612ec3578081fd5b5035919050565b60008251612edc81846020870161309f565b9190910192915050565b6000602082528251806020840152612f0581604085016020870161309f565b601f01601f19169190910160400192915050565b6020808252602c908201527f46756e6374696f6e206d7573742062652063616c6c6564207468726f7567682060408201526b19195b1959d85d1958d85b1b60a21b606082015260800190565b6020808252602c908201527f46756e6374696f6e206d7573742062652063616c6c6564207468726f7567682060408201526b6163746976652070726f787960a01b606082015260800190565b6020808252818101527f4f776e61626c653a2063616c6c6572206973206e6f7420746865206f776e6572604082015260600190565b6020808252602b908201527f496e697469616c697a61626c653a20636f6e7472616374206973206e6f74206960408201526a6e697469616c697a696e6760a81b606082015260800190565b6000821982111561304457613044613100565b500190565b60008261306457634e487b7160e01b81526012600452602481fd5b500490565b600081600019048311821515161561308357613083613100565b500290565b60008282101561309a5761309a613100565b500390565b60005b838110156130ba5781810151838201526020016130a2565b83811115611acf5750506000910152565b6002810460018216806130df57607f821691505b60208210811415611c9657634e487b7160e01b600052602260045260246000fd5b634e487b7160e01b600052601160045260246000fd5b634e487b7160e01b600052604160045260246000fdfe416464726573733a206c6f772d6c6576656c2064656c65676174652063616c6c206661696c6564a2646970667358221220f5ee1da472722d2838ef09c49d34eb75ab68cbc193a11da78f6863ccadb4dcbf64736f6c63430008020033",
  "linkReferences": {},
  "deployedLinkReferences": {}
}