{
  "_format": "hh-sol-artifact-1",
  "contractName": "GovernorBravoDelegate",
  "sourceName": "contracts/governance.sol",
  "abi": [
    {
      "anonymous": false,
      "inputs": [
        {
          "indexed": false,
          "internalType": "address",
          "name": "previousAdmin",
          "type": "address"
        },
        {
          "indexed": false,
          "internalType": "address",
          "name": "newAdmin",
          "type": "address"
        }
      ],
      "name": "AdminChanged",
      "type": "event"
    },
    {
      "anonymous": false,
      "inputs": [
        {
          "indexed": true,
          "internalType": "address",
          "name": "beacon",
          "type": "address"
        }
      ],
      "name": "BeaconUpgraded",
      "type": "event"
    },
    {
      "anonymous": false,
      "inputs": [
        {
          "indexed": false,
          "internalType": "address",
          "name": "governanceAddress",
          "type": "address"
        }
      ],
      "name": "GovernanceInitiated",
      "type": "event"
    },
    {
      "anonymous": false,
      "inputs": [
        {
          "indexed": false,
          "internalType": "address",
          "name": "investee",
          "type": "address"
        },
        {
          "indexed": false,
          "internalType": "uint256",
          "name": "id",
          "type": "uint256"
        }
      ],
      "name": "InvesteeFunded",
      "type": "event"
    },
    {
      "anonymous": false,
      "inputs": [
        {
          "indexed": false,
          "internalType": "address",
          "name": "investee",
          "type": "address"
        },
        {
          "indexed": false,
          "internalType": "uint256",
          "name": "id",
          "type": "uint256"
        }
      ],
      "name": "InvesteeSet",
      "type": "event"
    },
    {
      "anonymous": false,
      "inputs": [
        {
          "indexed": false,
          "internalType": "address",
          "name": "oldAdmin",
          "type": "address"
        },
        {
          "indexed": false,
          "internalType": "address",
          "name": "newAdmin",
          "type": "address"
        }
      ],
      "name": "NewAdmin",
      "type": "event"
    },
    {
      "anonymous": false,
      "inputs": [
        {
          "indexed": false,
          "internalType": "address",
          "name": "oldImplementation",
          "type": "address"
        },
        {
          "indexed": false,
          "internalType": "address",
          "name": "newImplementation",
          "type": "address"
        }
      ],
      "name": "NewImplementation",
      "type": "event"
    },
    {
      "anonymous": false,
      "inputs": [
        {
          "indexed": false,
          "internalType": "address",
          "name": "oldPendingAdmin",
          "type": "address"
        },
        {
          "indexed": false,
          "internalType": "address",
          "name": "newPendingAdmin",
          "type": "address"
        }
      ],
      "name": "NewPendingAdmin",
      "type": "event"
    },
    {
      "anonymous": false,
      "inputs": [
        {
          "indexed": false,
          "internalType": "uint256",
          "name": "id",
          "type": "uint256"
        }
      ],
      "name": "ProposalCanceled",
      "type": "event"
    },
    {
      "anonymous": false,
      "inputs": [
        {
          "indexed": false,
          "internalType": "uint256",
          "name": "id",
          "type": "uint256"
        },
        {
          "indexed": false,
          "internalType": "address",
          "name": "proposer",
          "type": "address"
        },
        {
          "indexed": false,
          "internalType": "address[]",
          "name": "targets",
          "type": "address[]"
        },
        {
          "indexed": false,
          "internalType": "uint256[]",
          "name": "values",
          "type": "uint256[]"
        },
        {
          "indexed": false,
          "internalType": "string[]",
          "name": "signatures",
          "type": "string[]"
        },
        {
          "indexed": false,
          "internalType": "bytes[]",
          "name": "calldatas",
          "type": "bytes[]"
        },
        {
          "indexed": false,
          "internalType": "uint256",
          "name": "startBlock",
          "type": "uint256"
        },
        {
          "indexed": false,
          "internalType": "uint256",
          "name": "endBlock",
          "type": "uint256"
        },
        {
          "indexed": false,
          "internalType": "string",
          "name": "description",
          "type": "string"
        }
      ],
      "name": "ProposalCreated",
      "type": "event"
    },
    {
      "anonymous": false,
      "inputs": [
        {
          "indexed": false,
          "internalType": "uint256",
          "name": "id",
          "type": "uint256"
        }
      ],
      "name": "ProposalExecuted",
      "type": "event"
    },
    {
      "anonymous": false,
      "inputs": [
        {
          "indexed": false,
          "internalType": "uint256",
          "name": "id",
          "type": "uint256"
        },
        {
          "indexed": false,
          "internalType": "uint256",
          "name": "eta",
          "type": "uint256"
        }
      ],
      "name": "ProposalQueued",
      "type": "event"
    },
    {
      "anonymous": false,
      "inputs": [
        {
          "indexed": false,
          "internalType": "uint256",
          "name": "oldProposalThreshold",
          "type": "uint256"
        },
        {
          "indexed": false,
          "internalType": "uint256",
          "name": "newProposalThreshold",
          "type": "uint256"
        }
      ],
      "name": "ProposalThresholdSet",
      "type": "event"
    },
    {
      "anonymous": false,
      "inputs": [
        {
          "indexed": true,
          "internalType": "address",
          "name": "implementation",
          "type": "address"
        }
      ],
      "name": "Upgraded",
      "type": "event"
    },
    {
      "anonymous": false,
      "inputs": [
        {
          "indexed": true,
          "internalType": "address",
          "name": "voter",
          "type": "address"
        },
        {
          "indexed": false,
          "internalType": "uint256",
          "name": "proposalId",
          "type": "uint256"
        },
        {
          "indexed": false,
          "internalType": "uint8",
          "name": "support",
          "type": "uint8"
        },
        {
          "indexed": false,
          "internalType": "uint256",
          "name": "votes",
          "type": "uint256"
        },
        {
          "indexed": false,
          "internalType": "string",
          "name": "reason",
          "type": "string"
        }
      ],
      "name": "VoteCast",
      "type": "event"
    },
    {
      "anonymous": false,
      "inputs": [
        {
          "indexed": false,
          "internalType": "uint256",
          "name": "oldVotingDelay",
          "type": "uint256"
        },
        {
          "indexed": false,
          "internalType": "uint256",
          "name": "newVotingDelay",
          "type": "uint256"
        }
      ],
      "name": "VotingDelaySet",
      "type": "event"
    },
    {
      "anonymous": false,
      "inputs": [
        {
          "indexed": false,
          "internalType": "uint256",
          "name": "oldVotingPeriod",
          "type": "uint256"
        },
        {
          "indexed": false,
          "internalType": "uint256",
          "name": "newVotingPeriod",
          "type": "uint256"
        }
      ],
      "name": "VotingPeriodSet",
      "type": "event"
    },
    {
      "anonymous": false,
      "inputs": [
        {
          "indexed": false,
          "internalType": "address",
          "name": "account",
          "type": "address"
        },
        {
          "indexed": false,
          "internalType": "uint256",
          "name": "expiration",
          "type": "uint256"
        }
      ],
      "name": "WhitelistAccountExpirationSet",
      "type": "event"
    },
    {
      "anonymous": false,
      "inputs": [
        {
          "indexed": false,
          "internalType": "address",
          "name": "oldGuardian",
          "type": "address"
        },
        {
          "indexed": false,
          "internalType": "address",
          "name": "newGuardian",
          "type": "address"
        }
      ],
      "name": "WhitelistGuardianSet",
      "type": "event"
    },
    {
      "inputs": [],
      "name": "BALLOT_TYPEHASH",
      "outputs": [
        {
          "internalType": "bytes32",
          "name": "",
          "type": "bytes32"
        }
      ],
      "stateMutability": "view",
      "type": "function"
    },
    {
      "inputs": [],
      "name": "DOMAIN_TYPEHASH",
      "outputs": [
        {
          "internalType": "bytes32",
          "name": "",
          "type": "bytes32"
        }
      ],
      "stateMutability": "view",
      "type": "function"
    },
    {
      "inputs": [],
      "name": "MAX_PROPOSAL_THRESHOLD",
      "outputs": [
        {
          "internalType": "uint256",
          "name": "",
          "type": "uint256"
        }
      ],
      "stateMutability": "view",
      "type": "function"
    },
    {
      "inputs": [],
      "name": "MAX_VOTING_DELAY",
      "outputs": [
        {
          "internalType": "uint256",
          "name": "",
          "type": "uint256"
        }
      ],
      "stateMutability": "view",
      "type": "function"
    },
    {
      "inputs": [],
      "name": "MAX_VOTING_PERIOD",
      "outputs": [
        {
          "internalType": "uint256",
          "name": "",
          "type": "uint256"
        }
      ],
      "stateMutability": "view",
      "type": "function"
    },
    {
      "inputs": [],
      "name": "MIN_PROPOSAL_THRESHOLD",
      "outputs": [
        {
          "internalType": "uint256",
          "name": "",
          "type": "uint256"
        }
      ],
      "stateMutability": "view",
      "type": "function"
    },
    {
      "inputs": [],
      "name": "MIN_VOTING_DELAY",
      "outputs": [
        {
          "internalType": "uint256",
          "name": "",
          "type": "uint256"
        }
      ],
      "stateMutability": "view",
      "type": "function"
    },
    {
      "inputs": [],
      "name": "MIN_VOTING_PERIOD",
      "outputs": [
        {
          "internalType": "uint256",
          "name": "",
          "type": "uint256"
        }
      ],
      "stateMutability": "view",
      "type": "function"
    },
    {
      "inputs": [],
      "name": "_AcceptTimelockAdmin",
      "outputs": [],
      "stateMutability": "nonpayable",
      "type": "function"
    },
    {
      "inputs": [],
      "name": "_acceptAdmin",
      "outputs": [],
      "stateMutability": "nonpayable",
      "type": "function"
    },
    {
      "inputs": [],
      "name": "_fundInvestee",
      "outputs": [
        {
          "internalType": "address",
          "name": "",
          "type": "address"
        }
      ],
      "stateMutability": "nonpayable",
      "type": "function"
    },
    {
      "inputs": [
        {
          "internalType": "address",
          "name": "governorAlpha",
          "type": "address"
        }
      ],
      "name": "_initiate",
      "outputs": [],
      "stateMutability": "nonpayable",
      "type": "function"
    },
    {
      "inputs": [
        {
          "internalType": "address",
          "name": "_investee",
          "type": "address"
        }
      ],
      "name": "_setInvesteeDetails",
      "outputs": [],
      "stateMutability": "nonpayable",
      "type": "function"
    },
    {
      "inputs": [
        {
          "internalType": "address",
          "name": "newPendingAdmin",
          "type": "address"
        }
      ],
      "name": "_setPendingAdmin",
      "outputs": [],
      "stateMutability": "nonpayable",
      "type": "function"
    },
    {
      "inputs": [
        {
          "internalType": "uint256",
          "name": "newProposalThreshold",
          "type": "uint256"
        }
      ],
      "name": "_setProposalThreshold",
      "outputs": [],
      "stateMutability": "nonpayable",
      "type": "function"
    },
    {
      "inputs": [
        {
          "internalType": "uint256",
          "name": "newVotingDelay",
          "type": "uint256"
        }
      ],
      "name": "_setVotingDelay",
      "outputs": [],
      "stateMutability": "nonpayable",
      "type": "function"
    },
    {
      "inputs": [
        {
          "internalType": "uint256",
          "name": "newVotingPeriod",
          "type": "uint256"
        }
      ],
      "name": "_setVotingPeriod",
      "outputs": [],
      "stateMutability": "nonpayable",
      "type": "function"
    },
    {
      "inputs": [
        {
          "internalType": "address",
          "name": "account",
          "type": "address"
        },
        {
          "internalType": "uint256",
          "name": "expiration",
          "type": "uint256"
        }
      ],
      "name": "_setWhitelistAccountExpiration",
      "outputs": [],
      "stateMutability": "nonpayable",
      "type": "function"
    },
    {
      "inputs": [
        {
          "internalType": "address",
          "name": "account",
          "type": "address"
        }
      ],
      "name": "_setWhitelistGuardian",
      "outputs": [],
      "stateMutability": "nonpayable",
      "type": "function"
    },
    {
      "inputs": [],
      "name": "admin",
      "outputs": [
        {
          "internalType": "address",
          "name": "",
          "type": "address"
        }
      ],
      "stateMutability": "view",
      "type": "function"
    },
    {
      "inputs": [
        {
          "internalType": "uint256",
          "name": "proposalId",
          "type": "uint256"
        }
      ],
      "name": "cancel",
      "outputs": [],
      "stateMutability": "nonpayable",
      "type": "function"
    },
    {
      "inputs": [
        {
          "internalType": "uint256",
          "name": "proposalId",
          "type": "uint256"
        },
        {
          "internalType": "uint8",
          "name": "support",
          "type": "uint8"
        }
      ],
      "name": "castVote",
      "outputs": [],
      "stateMutability": "nonpayable",
      "type": "function"
    },
    {
      "inputs": [
        {
          "internalType": "uint256",
          "name": "proposalId",
          "type": "uint256"
        },
        {
          "internalType": "uint8",
          "name": "support",
          "type": "uint8"
        },
        {
          "internalType": "uint8",
          "name": "v",
          "type": "uint8"
        },
        {
          "internalType": "bytes32",
          "name": "r",
          "type": "bytes32"
        },
        {
          "internalType": "bytes32",
          "name": "s",
          "type": "bytes32"
        }
      ],
      "name": "castVoteBySig",
      "outputs": [],
      "stateMutability": "nonpayable",
      "type": "function"
    },
    {
      "inputs": [
        {
          "internalType": "uint256",
          "name": "proposalId",
          "type": "uint256"
        },
        {
          "internalType": "uint8",
          "name": "support",
          "type": "uint8"
        },
        {
          "internalType": "string",
          "name": "reason",
          "type": "string"
        }
      ],
      "name": "castVoteWithReason",
      "outputs": [],
      "stateMutability": "nonpayable",
      "type": "function"
    },
    {
      "inputs": [],
      "name": "dRealm",
      "outputs": [
        {
          "internalType": "contract dRealmInterface",
          "name": "",
          "type": "address"
        }
      ],
      "stateMutability": "view",
      "type": "function"
    },
    {
      "inputs": [
        {
          "internalType": "uint256",
          "name": "proposalId",
          "type": "uint256"
        }
      ],
      "name": "execute",
      "outputs": [],
      "stateMutability": "payable",
      "type": "function"
    },
    {
      "inputs": [
        {
          "internalType": "uint256",
          "name": "proposalId",
          "type": "uint256"
        }
      ],
      "name": "getActions",
      "outputs": [
        {
          "internalType": "address[]",
          "name": "targets",
          "type": "address[]"
        },
        {
          "internalType": "uint256[]",
          "name": "values",
          "type": "uint256[]"
        },
        {
          "internalType": "string[]",
          "name": "signatures",
          "type": "string[]"
        },
        {
          "internalType": "bytes[]",
          "name": "calldatas",
          "type": "bytes[]"
        }
      ],
      "stateMutability": "view",
      "type": "function"
    },
    {
      "inputs": [
        {
          "internalType": "uint256",
          "name": "proposalId",
          "type": "uint256"
        },
        {
          "internalType": "address",
          "name": "voter",
          "type": "address"
        }
      ],
      "name": "getReceipt",
      "outputs": [
        {
          "components": [
            {
              "internalType": "bool",
              "name": "hasVoted",
              "type": "bool"
            },
            {
              "internalType": "uint8",
              "name": "support",
              "type": "uint8"
            },
            {
              "internalType": "uint256",
              "name": "votes",
              "type": "uint256"
            }
          ],
          "internalType": "struct GovernorBravoDelegateStorageV1.Receipt",
          "name": "",
          "type": "tuple"
        }
      ],
      "stateMutability": "view",
      "type": "function"
    },
    {
      "inputs": [],
      "name": "implementation",
      "outputs": [
        {
          "internalType": "address",
          "name": "",
          "type": "address"
        }
      ],
      "stateMutability": "view",
      "type": "function"
    },
    {
      "inputs": [],
      "name": "initialProposalId",
      "outputs": [
        {
          "internalType": "uint256",
          "name": "",
          "type": "uint256"
        }
      ],
      "stateMutability": "view",
      "type": "function"
    },
    {
      "inputs": [
        {
          "internalType": "address",
          "name": "timelock_",
          "type": "address"
        },
        {
          "internalType": "address",
          "name": "dRealm_",
          "type": "address"
        },
        {
          "internalType": "uint256",
          "name": "votingPeriod_",
          "type": "uint256"
        },
        {
          "internalType": "uint256",
          "name": "votingDelay_",
          "type": "uint256"
        },
        {
          "internalType": "uint256",
          "name": "proposalThreshold_",
          "type": "uint256"
        },
        {
          "internalType": "address",
          "name": "treasury_",
          "type": "address"
        }
      ],
      "name": "initialize",
      "outputs": [],
      "stateMutability": "nonpayable",
      "type": "function"
    },
    {
      "inputs": [
        {
          "internalType": "uint256",
          "name": "",
          "type": "uint256"
        }
      ],
      "name": "investeeDetails",
      "outputs": [
        {
          "internalType": "address",
          "name": "",
          "type": "address"
        }
      ],
      "stateMutability": "view",
      "type": "function"
    },
    {
      "inputs": [
        {
          "internalType": "address",
          "name": "account",
          "type": "address"
        }
      ],
      "name": "isWhitelisted",
      "outputs": [
        {
          "internalType": "bool",
          "name": "",
          "type": "bool"
        }
      ],
      "stateMutability": "view",
      "type": "function"
    },
    {
      "inputs": [
        {
          "internalType": "address",
          "name": "",
          "type": "address"
        }
      ],
      "name": "latestProposalIds",
      "outputs": [
        {
          "internalType": "uint256",
          "name": "",
          "type": "uint256"
        }
      ],
      "stateMutability": "view",
      "type": "function"
    },
    {
      "inputs": [],
      "name": "name",
      "outputs": [
        {
          "internalType": "string",
          "name": "",
          "type": "string"
        }
      ],
      "stateMutability": "view",
      "type": "function"
    },
    {
      "inputs": [],
      "name": "nextInvestee",
      "outputs": [
        {
          "internalType": "uint256",
          "name": "",
          "type": "uint256"
        }
      ],
      "stateMutability": "view",
      "type": "function"
    },
    {
      "inputs": [],
      "name": "nextInvesteeFund",
      "outputs": [
        {
          "internalType": "uint256",
          "name": "",
          "type": "uint256"
        }
      ],
      "stateMutability": "view",
      "type": "function"
    },
    {
      "inputs": [],
      "name": "pendingAdmin",
      "outputs": [
        {
          "internalType": "address",
          "name": "",
          "type": "address"
        }
      ],
      "stateMutability": "view",
      "type": "function"
    },
    {
      "inputs": [],
      "name": "proposalCount",
      "outputs": [
        {
          "internalType": "uint256",
          "name": "",
          "type": "uint256"
        }
      ],
      "stateMutability": "view",
      "type": "function"
    },
    {
      "inputs": [],
      "name": "proposalMaxOperations",
      "outputs": [
        {
          "internalType": "uint256",
          "name": "",
          "type": "uint256"
        }
      ],
      "stateMutability": "view",
      "type": "function"
    },
    {
      "inputs": [],
      "name": "proposalThreshold",
      "outputs": [
        {
          "internalType": "uint256",
          "name": "",
          "type": "uint256"
        }
      ],
      "stateMutability": "view",
      "type": "function"
    },
    {
      "inputs": [
        {
          "internalType": "uint256",
          "name": "",
          "type": "uint256"
        }
      ],
      "name": "proposals",
      "outputs": [
        {
          "internalType": "uint256",
          "name": "id",
          "type": "uint256"
        },
        {
          "internalType": "address",
          "name": "proposer",
          "type": "address"
        },
        {
          "internalType": "uint256",
          "name": "eta",
          "type": "uint256"
        },
        {
          "internalType": "uint256",
          "name": "startBlock",
          "type": "uint256"
        },
        {
          "internalType": "uint256",
          "name": "endBlock",
          "type": "uint256"
        },
        {
          "internalType": "uint256",
          "name": "forVotes",
          "type": "uint256"
        },
        {
          "internalType": "uint256",
          "name": "againstVotes",
          "type": "uint256"
        },
        {
          "internalType": "uint256",
          "name": "abstainVotes",
          "type": "uint256"
        },
        {
          "internalType": "bool",
          "name": "canceled",
          "type": "bool"
        },
        {
          "internalType": "bool",
          "name": "executed",
          "type": "bool"
        }
      ],
      "stateMutability": "view",
      "type": "function"
    },
    {
      "inputs": [
        {
          "internalType": "address[]",
          "name": "targets",
          "type": "address[]"
        },
        {
          "internalType": "uint256[]",
          "name": "values",
          "type": "uint256[]"
        },
        {
          "internalType": "string[]",
          "name": "signatures",
          "type": "string[]"
        },
        {
          "internalType": "bytes[]",
          "name": "calldatas",
          "type": "bytes[]"
        },
        {
          "internalType": "string",
          "name": "description",
          "type": "string"
        }
      ],
      "name": "propose",
      "outputs": [
        {
          "internalType": "uint256",
          "name": "",
          "type": "uint256"
        }
      ],
      "stateMutability": "nonpayable",
      "type": "function"
    },
    {
      "inputs": [
        {
          "internalType": "uint256",
          "name": "proposalId",
          "type": "uint256"
        }
      ],
      "name": "queue",
      "outputs": [],
      "stateMutability": "nonpayable",
      "type": "function"
    },
    {
      "inputs": [],
      "name": "quorumVotes",
      "outputs": [
        {
          "internalType": "uint256",
          "name": "",
          "type": "uint256"
        }
      ],
      "stateMutability": "view",
      "type": "function"
    },
    {
      "inputs": [
        {
          "internalType": "uint256",
          "name": "proposalId",
          "type": "uint256"
        }
      ],
      "name": "state",
      "outputs": [
        {
          "internalType": "enum GovernorBravoDelegateStorageV1.ProposalState",
          "name": "",
          "type": "uint8"
        }
      ],
      "stateMutability": "view",
      "type": "function"
    },
    {
      "inputs": [],
      "name": "timelock",
      "outputs": [
        {
          "internalType": "contract TimelockInterface",
          "name": "",
          "type": "address"
        }
      ],
      "stateMutability": "view",
      "type": "function"
    },
    {
      "inputs": [],
      "name": "treasury",
      "outputs": [
        {
          "internalType": "address",
          "name": "",
          "type": "address"
        }
      ],
      "stateMutability": "view",
      "type": "function"
    },
    {
      "inputs": [
        {
          "internalType": "address",
          "name": "newImplementation",
          "type": "address"
        }
      ],
      "name": "upgradeTo",
      "outputs": [],
      "stateMutability": "nonpayable",
      "type": "function"
    },
    {
      "inputs": [
        {
          "internalType": "address",
          "name": "newImplementation",
          "type": "address"
        },
        {
          "internalType": "bytes",
          "name": "data",
          "type": "bytes"
        }
      ],
      "name": "upgradeToAndCall",
      "outputs": [],
      "stateMutability": "payable",
      "type": "function"
    },
    {
      "inputs": [],
      "name": "votingDelay",
      "outputs": [
        {
          "internalType": "uint256",
          "name": "",
          "type": "uint256"
        }
      ],
      "stateMutability": "view",
      "type": "function"
    },
    {
      "inputs": [],
      "name": "votingPeriod",
      "outputs": [
        {
          "internalType": "uint256",
          "name": "",
          "type": "uint256"
        }
      ],
      "stateMutability": "view",
      "type": "function"
    },
    {
      "inputs": [
        {
          "internalType": "address",
          "name": "",
          "type": "address"
        }
      ],
      "name": "whitelistAccountExpirations",
      "outputs": [
        {
          "internalType": "uint256",
          "name": "",
          "type": "uint256"
        }
      ],
      "stateMutability": "view",
      "type": "function"
    },
    {
      "inputs": [],
      "name": "whitelistGuardian",
      "outputs": [
        {
          "internalType": "address",
          "name": "",
          "type": "address"
        }
      ],
      "stateMutability": "view",
      "type": "function"
    }
  ],
  "bytecode": "0x60a06040523060601b60805234801561001757600080fd5b5060805160601c614c5e61004b6000396000818161130f0152818161134f01528181611bda0152611c1a0152614c5e6000f3fe6080604052600436106103355760003560e01c80636754ae56116101ab578063d54db348116100f7578063e7da33b811610095578063f851a4401161006f578063f851a44014610aed578063f9d28b8014610b0d578063fc4eee4214610b2d578063fe0d94c114610b4357610335565b8063e7da33b814610aa3578063e9c714f214610ac3578063f03cd27114610ad857610335565b8063ddf0b009116100d1578063ddf0b00914610999578063deaaa7cc146109b9578063e23a9a52146109ed578063e48083fe1461056557610335565b8063d54db3481461094d578063da35c66414610963578063da95691a1461097957610335565b8063a64e024a11610164578063b58131b01161013e578063b58131b0146108d7578063b71d1a0c146108ed578063c5a8425d1461090d578063d33219b41461092d57610335565b8063a64e024a1461088a578063b1126263146108a1578063b1a5d12d146108b757610335565b80636754ae56146107cc578063791f5d23146108025780637b3c71d3146108205780637bdbe4d0146108405780639953336514610855578063a37ee07d1461087557610335565b8063328dd9821161028557806340e58ee51161022357806356781388116101fd57806356781388146107565780635c60da1b1461077657806361d027b314610796578063647abf78146107b657610335565b806340e58ee5146107035780634d6733d2146107235780634f1ef2861461074357610335565b80633932abb11161025f5780633932abb1146106705780633af32abf146106865780633bccf4fd146106b65780633e4f49e6146106d657610335565b8063328dd982146105f35780633659cfe61461062357806338bd0dda1461064357610335565b806317ba1b8b116102f2578063215809ca116102cc578063215809ca1461056557806324bc1a641461057a57806325fd935a1461059a57806326782247146105bb57610335565b806317ba1b8b146104f15780631dfb1b5a1461051157806320606b701461053157610335565b8063013cf08b1461033a57806302a251a31461041157806306b8aa491461043557806306fdde03146104575780630ea2d98c146104a457806317977c61146104c4575b600080fd5b34801561034657600080fd5b506103b66103553660046144c5565b606f602052600090815260409020805460018201546002830154600784015460088501546009860154600a870154600b880154600c9098015496976001600160a01b0390961696949593949293919290919060ff808216916101009004168a565b604080519a8b526001600160a01b0390991660208b0152978901969096526060880194909452608087019290925260a086015260c085015260e084015215156101008301521515610120820152610140015b60405180910390f35b34801561041d57600080fd5b5061042760695481565b604051908152602001610408565b34801561044157600080fd5b5061045561045036600461426a565b610b56565b005b34801561046357600080fd5b50610497604051806040016040528060148152602001735265616c6d20476f7665726e6f7220427261766f60601b81525081565b60405161040891906148e3565b3480156104b057600080fd5b506104556104bf3660046144c5565b610ccd565b3480156104d057600080fd5b506104276104df36600461426a565b60706020526000908152604090205481565b3480156104fd57600080fd5b5061045561050c3660046144c5565b610e00565b34801561051d57600080fd5b5061045561052c3660046144c5565b610f4c565b34801561053d57600080fd5b506104277f8cad95687ba82c2ce50e74f7b754645e5117c3a5bec8151c0726d5857980a86681565b34801561057157600080fd5b50610427600181565b34801561058657600080fd5b506104276b033b2e3c9fd0803ce800000081565b3480156105a657600080fd5b506104276c4bbb0bace1a6bd937d8000000081565b3480156105c757600080fd5b506066546105db906001600160a01b031681565b6040516001600160a01b039091168152602001610408565b3480156105ff57600080fd5b5061061361060e3660046144c5565b611073565b6040516104089493929190614863565b34801561062f57600080fd5b5061045561063e36600461426a565b611304565b34801561064f57600080fd5b5061042761065e36600461426a565b60716020526000908152604090205481565b34801561067c57600080fd5b5061042760685481565b34801561069257600080fd5b506106a66106a136600461426a565b6113cd565b6040519015158152602001610408565b3480156106c257600080fd5b506104556106d13660046145ac565b6113ee565b3480156106e257600080fd5b506106f66106f13660046144c5565b61165f565b60405161040891906148bb565b34801561070f57600080fd5b5061045561071e3660046144c5565b61182e565b34801561072f57600080fd5b5061045561073e36600461432e565b611ae9565b6104556107513660046142e2565b611bcf565b34801561076257600080fd5b50610455610771366004614508565b611c89565b34801561078257600080fd5b506067546105db906001600160a01b031681565b3480156107a257600080fd5b506076546105db906001600160a01b031681565b3480156107c257600080fd5b5061042760755481565b3480156107d857600080fd5b506105db6107e73660046144c5565b6073602052600090815260409020546001600160a01b031681565b34801561080e57600080fd5b50610427690a968163f0a57b40000081565b34801561082c57600080fd5b5061045561083b36600461452a565b611ceb565b34801561084c57600080fd5b50610427600a81565b34801561086157600080fd5b5061045561087036600461426a565b611d3b565b34801561088157600080fd5b50610455611e78565b34801561089657600080fd5b5061042762013b0081565b3480156108ad57600080fd5b50610427619d8081565b3480156108c357600080fd5b506104556108d2366004614284565b611ee2565b3480156108e357600080fd5b50610427606a5481565b3480156108f957600080fd5b5061045561090836600461426a565b6122df565b34801561091957600080fd5b506072546105db906001600160a01b031681565b34801561093957600080fd5b50606d546105db906001600160a01b031681565b34801561095957600080fd5b5061042760745481565b34801561096f57600080fd5b50610427606c5481565b34801561098557600080fd5b50610427610994366004614357565b612411565b3480156109a557600080fd5b506104556109b43660046144c5565b6129ba565b3480156109c557600080fd5b506104277f150214d74d59b7d1e90c73fc22ef3d991dd0a76b046543d4d80ab92d2a50328f81565b3480156109f957600080fd5b50610a7c610a083660046144dd565b6040805160608101825260008082526020820181905291810191909152506000918252606f602090815260408084206001600160a01b03939093168452600d9092018152918190208151606081018352815460ff808216151583526101009091041693810193909352600101549082015290565b6040805182511515815260208084015160ff16908201529181015190820152606001610408565b348015610aaf57600080fd5b50606e546105db906001600160a01b031681565b348015610acf57600080fd5b50610455612d07565b348015610ae457600080fd5b506105db612e31565b348015610af957600080fd5b506065546105db906001600160a01b031681565b348015610b1957600080fd5b50610455610b2836600461426a565b612fce565b348015610b3957600080fd5b50610427606b5481565b610455610b513660046144c5565b6131b0565b6065546001600160a01b03163314610bcc5760405162461bcd60e51b815260206004820152602e60248201527f476f7665726e6f72427261766f3a3a5f736574496e766573746565446574616960448201526d6c733a2061646d696e206f6e6c7960901b60648201526084015b60405180910390fd5b6001600160a01b038116610c3b5760405162461bcd60e51b815260206004820152603060248201527f476f7665726e6f72427261766f3a3a5f736574496e766573746565446574616960448201526f6c733a207a65726f206164647265737360801b6064820152608401610bc3565b60748054600090815260736020526040902080546001600160a01b0319166001600160a01b03841617905554610c72906001613450565b6074819055507f59f0b8051a7417e410325aa8686c7c34f2dbabef2f0d168ae2753b7a8049f63781610ca760745460016134aa565b604080516001600160a01b0390931683526020830191909152015b60405180910390a150565b6065546001600160a01b03163314610d3b5760405162461bcd60e51b815260206004820152602b60248201527f476f7665726e6f72427261766f3a3a5f736574566f74696e67506572696f643a60448201526a2061646d696e206f6e6c7960a81b6064820152608401610bc3565b60018110158015610d4f575062013b008111155b610dba5760405162461bcd60e51b815260206004820152603660248201527f476f7665726e6f72427261766f3a3a5f736574566f74696e67506572696f643a604482015275081a5b9d985b1a59081d9bdd1a5b99c81c195c9a5bd960521b6064820152608401610bc3565b606980549082905560408051828152602081018490527f7e3f7f0708a84de9203036abaa450dccc85ad5ff52f78c170f3edb55cf5e882891015b60405180910390a15050565b6065546001600160a01b03163314610e735760405162461bcd60e51b815260206004820152603060248201527f476f7665726e6f72427261766f3a3a5f73657450726f706f73616c546872657360448201526f686f6c643a2061646d696e206f6e6c7960801b6064820152608401610bc3565b690a968163f0a57b4000008110158015610e9a57506c4bbb0bace1a6bd937d800000008111155b610f0e576040805162461bcd60e51b81526020600482015260248101919091527f476f7665726e6f72427261766f3a3a5f73657450726f706f73616c546872657360448201527f686f6c643a20696e76616c69642070726f706f73616c207468726573686f6c646064820152608401610bc3565b606a80549082905560408051828152602081018490527fccb45da8d5717e6c4544694297c4ba5cf151d455c9bb0ed4fc7a38411bc054619101610df4565b6065546001600160a01b03163314610fb95760405162461bcd60e51b815260206004820152602a60248201527f476f7665726e6f72427261766f3a3a5f736574566f74696e6744656c61793a2060448201526961646d696e206f6e6c7960b01b6064820152608401610bc3565b60018110158015610fcc5750619d808111155b6110355760405162461bcd60e51b815260206004820152603460248201527f476f7665726e6f72427261766f3a3a5f736574566f74696e6744656c61793a20604482015273696e76616c696420766f74696e672064656c617960601b6064820152608401610bc3565b606880549082905560408051828152602081018490527fc565b045403dc03c2eea82b81a0465edad9e2e7fc4d97e11421c209da93d7a939101610df4565b6060806060806000606f6000878152602001908152602001600020905080600301816004018260050183600601838054806020026020016040519081016040528092919081815260200182805480156110f557602002820191906000526020600020905b81546001600160a01b031681526001909101906020018083116110d7575b505050505093508280548060200260200160405190810160405280929190818152602001828054801561114757602002820191906000526020600020905b815481526020019060010190808311611133575b5050505050925081805480602002602001604051908101604052809291908181526020016000905b8282101561121b57838290600052602060002001805461118e90614b45565b80601f01602080910402602001604051908101604052809291908181526020018280546111ba90614b45565b80156112075780601f106111dc57610100808354040283529160200191611207565b820191906000526020600020905b8154815290600101906020018083116111ea57829003601f168201915b50505050508152602001906001019061116f565b50505050915080805480602002602001604051908101604052809291908181526020016000905b828210156112ee57838290600052602060002001805461126190614b45565b80601f016020809104026020016040519081016040528092919081815260200182805461128d90614b45565b80156112da5780601f106112af576101008083540402835291602001916112da565b820191906000526020600020905b8154815290600101906020018083116112bd57829003601f168201915b505050505081526020019060010190611242565b5050505090509450945094509450509193509193565b306001600160a01b037f000000000000000000000000000000000000000000000000000000000000000016141561134d5760405162461bcd60e51b8152600401610bc3906148f6565b7f00000000000000000000000000000000000000000000000000000000000000006001600160a01b031661137f6134fe565b6001600160a01b0316146113a55760405162461bcd60e51b8152600401610bc390614942565b6113ae8161352c565b604080516000808252602082019092526113ca91839190613594565b50565b6001600160a01b03811660009081526071602052604090205442105b919050565b60408051808201825260148152735265616c6d20476f7665726e6f7220427261766f60601b60209182015281517f8cad95687ba82c2ce50e74f7b754645e5117c3a5bec8151c0726d5857980a866818301527f86533a194d07e1194012b12deb8a25da59ce198053cb88f620ce3f07c831dfd381840152466060820152306080808301919091528351808303909101815260a0820184528051908301207f150214d74d59b7d1e90c73fc22ef3d991dd0a76b046543d4d80ab92d2a50328f60c083015260e0820189905260ff8816610100808401919091528451808403909101815261012083019094528351939092019290922061190160f01b6101408401526101428301829052610162830181905290916000906101820160408051601f198184030181528282528051602091820120600080855291840180845281905260ff8a169284019290925260608301889052608083018790529092509060019060a0016020604051602081039080840390855afa158015611572573d6000803e3d6000fd5b5050604051601f1901519150506001600160a01b0381166115ed5760405162461bcd60e51b815260206004820152602f60248201527f476f7665726e6f72427261766f3a3a63617374566f746542795369673a20696e60448201526e76616c6964207369676e617475726560881b6064820152608401610bc3565b806001600160a01b03167fb8e138887d0aa13bab447e82de9d5c1777041ecd21ca36ba824ff1e6c07ddda48a8a611625858e8e6136df565b6040805193845260ff90921660208401529082015260806060820181905260009082015260a00160405180910390a2505050505050505050565b600081606c54101580156116745750606b5482115b6116d25760405162461bcd60e51b815260206004820152602960248201527f476f7665726e6f72427261766f3a3a73746174653a20696e76616c69642070726044820152681bdc1bdcd85b081a5960ba1b6064820152608401610bc3565b6000828152606f60205260409020600c81015460ff16156116f75760029150506113e9565b8060070154431161170c5760009150506113e9565b806008015443116117215760019150506113e9565b80600a0154816009015411158061174757506b033b2e3c9fd0803ce80000008160090154105b156117565760039150506113e9565b60028101546117695760049150506113e9565b600c810154610100900460ff16156117855760079150506113e9565b6002810154606d54604080516360d143f160e11b8152905161180e93926001600160a01b03169163c1a287e2916004808301926020929190829003018186803b1580156117d157600080fd5b505afa1580156117e5573d6000803e3d6000fd5b505050506040513d601f19601f820116820180604052508101906118099190614443565b613450565b421061181e5760069150506113e9565b60059150506113e9565b50919050565b60076118398261165f565b600781111561185857634e487b7160e01b600052602160045260246000fd5b14156118c55760405162461bcd60e51b815260206004820152603660248201527f476f7665726e6f72427261766f3a3a63616e63656c3a2063616e6e6f742063616044820152751b98d95b08195e1958dd5d1959081c1c9bdc1bdcd85b60521b6064820152608401610bc3565b6000818152606f6020526040902060018101546001600160a01b031633146119555760405162461bcd60e51b815260206004820152603860248201527f476f7665726e6f72427261766f3a3a63616e63656c3a204f746865722075736560448201527f722063616e6e6f742063616e63656c2070726f706f73616c00000000000000006064820152608401610bc3565b600c8101805460ff1916600117905560005b6003820154811015611ab857606d546003830180546001600160a01b039092169163591fcdfe9190849081106119ad57634e487b7160e01b600052603260045260246000fd5b6000918252602090912001546004850180546001600160a01b0390921691859081106119e957634e487b7160e01b600052603260045260246000fd5b9060005260206000200154856005018581548110611a1757634e487b7160e01b600052603260045260246000fd5b90600052602060002001866006018681548110611a4457634e487b7160e01b600052603260045260246000fd5b9060005260206000200187600201546040518663ffffffff1660e01b8152600401611a7395949392919061482a565b600060405180830381600087803b158015611a8d57600080fd5b505af1158015611aa1573d6000803e3d6000fd5b505050508080611ab090614b7a565b915050611967565b506040518281527f789cf55be980739dad1d0699b93b58e806b51c9d96619bfa8fe0a28abaa7b30c90602001610df4565b6065546001600160a01b0316331480611b0c57506072546001600160a01b031633145b611b7e5760405162461bcd60e51b815260206004820152603960248201527f476f7665726e6f72427261766f3a3a5f73657457686974656c6973744163636f60448201527f756e7445787069726174696f6e3a2061646d696e206f6e6c79000000000000006064820152608401610bc3565b6001600160a01b038216600081815260716020908152604091829020849055815192835282018390527f4e7b7545bc5744d0e30425959f4687475774b6c7edad77d24cb51c7d967d45159101610df4565b306001600160a01b037f0000000000000000000000000000000000000000000000000000000000000000161415611c185760405162461bcd60e51b8152600401610bc3906148f6565b7f00000000000000000000000000000000000000000000000000000000000000006001600160a01b0316611c4a6134fe565b6001600160a01b031614611c705760405162461bcd60e51b8152600401610bc390614942565b611c798261352c565b611c8582826001613594565b5050565b337fb8e138887d0aa13bab447e82de9d5c1777041ecd21ca36ba824ff1e6c07ddda48383611cb88483836136df565b6040805193845260ff90921660208401529082015260806060820181905260009082015260a00160405180910390a25050565b337fb8e138887d0aa13bab447e82de9d5c1777041ecd21ca36ba824ff1e6c07ddda48585611d1a8483836136df565b8686604051611d2d959493929190614a26565b60405180910390a250505050565b6001600160a01b038116611dab5760405162461bcd60e51b815260206004820152603160248201527f476f7665726e6f72427261766f3a5f73657457686974656c697374477561726460448201527069616e3a207a65726f206164647265737360781b6064820152608401610bc3565b6065546001600160a01b03163314611e1e5760405162461bcd60e51b815260206004820152603060248201527f476f7665726e6f72427261766f3a3a5f73657457686974656c6973744775617260448201526f6469616e3a2061646d696e206f6e6c7960801b6064820152608401610bc3565b607280546001600160a01b038381166001600160a01b031983161792839055604080519282168084529390911660208301527f80a07e73e552148844a9c216d9724212d609cfa54e9c1a2e97203bdd2c4ad3419101610df4565b606d60009054906101000a90046001600160a01b03166001600160a01b0316630e18b6816040518163ffffffff1660e01b8152600401600060405180830381600087803b158015611ec857600080fd5b505af1158015611edc573d6000803e3d6000fd5b50505050565b600054610100900460ff16611efd5760005460ff1615611f01565b303b155b611f645760405162461bcd60e51b815260206004820152602e60248201527f496e697469616c697a61626c653a20636f6e747261637420697320616c72656160448201526d191e481a5b9a5d1a585b1a5e995960921b6064820152608401610bc3565b600054610100900460ff16158015611f8f576000805460ff1961ff0019909116610100171660011790555b606d546001600160a01b0316156120045760405162461bcd60e51b815260206004820152603360248201527f476f7665726e6f72427261766f3a3a696e697469616c697a653a2063616e206f6044820152726e6c7920696e697469616c697a65206f6e636560681b6064820152608401610bc3565b6001600160a01b0387166120645760405162461bcd60e51b81526020600482015260336024820152600080516020614be283398151915260448201527269642074696d656c6f636b206164647265737360681b6064820152608401610bc3565b6001600160a01b0386166120c25760405162461bcd60e51b81526020600482015260316024820152600080516020614be2833981519152604482015270696420645265616c6d206164647265737360781b6064820152608401610bc3565b600185101580156120d6575062013b008511155b6121295760405162461bcd60e51b81526020600482015260306024820152600080516020614be283398151915260448201526f1a59081d9bdd1a5b99c81c195c9a5bd960821b6064820152608401610bc3565b6001841015801561213c5750619d808411155b61218e5760405162461bcd60e51b815260206004820152602f6024820152600080516020614be283398151915260448201526e696420766f74696e672064656c617960881b6064820152608401610bc3565b690a968163f0a57b40000083101580156121b557506c4bbb0bace1a6bd937d800000008311155b61220d5760405162461bcd60e51b81526020600482015260356024820152600080516020614be28339815191526044820152741a59081c1c9bdc1bdcd85b081d1a1c995cda1bdb19605a1b6064820152608401610bc3565b6001600160a01b03821661226d5760405162461bcd60e51b81526020600482015260336024820152600080516020614be28339815191526044820152726964207472656173757279206164647265737360681b6064820152608401610bc3565b606d80546001600160a01b03199081166001600160a01b038a8116918217909355606e805483168a851617905560698890556068879055606a86905560658054831690911790556076805490911691841691909117905580156122d6576000805461ff00191690555b50505050505050565b6001600160a01b03811661234a5760405162461bcd60e51b815260206004820152602c60248201527f476f7665726e6f72427261766f3a5f73657450656e64696e6741646d696e3a2060448201526b7a65726f206164647265737360a01b6064820152608401610bc3565b6065546001600160a01b031633146123b75760405162461bcd60e51b815260206004820152602a60248201527f476f7665726e6f72427261766f3a5f73657450656e64696e6741646d696e3a2060448201526961646d696e206f6e6c7960b01b6064820152608401610bc3565b606680546001600160a01b038381166001600160a01b031983168117909355604080519190921680825260208201939093527fca4f2f25d0898edd99413412fb94012f9e54ec8142f9b093e7720646a95b16a99101610df4565b606e54604051636e2e2d7360e01b8152600060048201819052336024830152916001600160a01b031690636e2e2d7390604401602060405180830381600087803b15801561245e57600080fd5b505af1158015612472573d6000803e3d6000fd5b505050506040513d601f19601f820116820180604052508101906124969190614423565b6124f25760405162461bcd60e51b815260206004820152602760248201527f476f7665726e6f72427261766f3a3a70726f706f73653a206f6e6c7920746f706044820152661039ba30b5b2b960c91b6064820152608401610bc3565b84518651148015612504575083518651145b8015612511575082518651145b6125915760405162461bcd60e51b8152602060048201526044602482018190527f476f7665726e6f72427261766f3a3a70726f706f73653a2070726f706f73616c908201527f2066756e6374696f6e20696e666f726d6174696f6e206172697479206d69736d6064820152630c2e8c6d60e31b608482015260a401610bc3565b85516125f45760405162461bcd60e51b815260206004820152602c60248201527f476f7665726e6f72427261766f3a3a70726f706f73653a206d7573742070726f60448201526b7669646520616374696f6e7360a01b6064820152608401610bc3565b600a865111156126575760405162461bcd60e51b815260206004820152602860248201527f476f7665726e6f72427261766f3a3a70726f706f73653a20746f6f206d616e7960448201526720616374696f6e7360c01b6064820152608401610bc3565b3360009081526070602052604090205480156127f45760006126788261165f565b9050600181600781111561269c57634e487b7160e01b600052602160045260246000fd5b14156127365760405162461bcd60e51b815260206004820152605860248201527f476f7665726e6f72427261766f3a3a70726f706f73653a206f6e65206c69766560448201527f2070726f706f73616c207065722070726f706f7365722c20666f756e6420616e60648201527f20616c7265616479206163746976652070726f706f73616c0000000000000000608482015260a401610bc3565b600081600781111561275857634e487b7160e01b600052602160045260246000fd5b14156127f25760405162461bcd60e51b815260206004820152605960248201527f476f7665726e6f72427261766f3a3a70726f706f73653a206f6e65206c69766560448201527f2070726f706f73616c207065722070726f706f7365722c20666f756e6420616e60648201527f20616c72656164792070656e64696e672070726f706f73616c00000000000000608482015260a401610bc3565b505b600061280243606854613450565b9050600061281282606954613450565b606c8054919250600061282483614b7a565b9091555050606c546000818152606f6020908152604082209283556001830180546001600160a01b0319163317905560028301919091558a5161286f916003840191908d0190613e2f565b50885161288590600483019060208c0190613e94565b50875161289b90600583019060208b0190613ecf565b5086516128b190600683019060208a0190613f28565b5082816007018190555081816008018190555060008160090181905550600081600a0181905550600081600b0181905550600081600c0160006101000a81548160ff021916908315150217905550600081600c0160016101000a81548160ff0219169083151502179055508060000154607060008360010160009054906101000a90046001600160a01b03166001600160a01b03166001600160a01b03168152602001908152602001600020819055507f7d84a6263ae0d98d3329bd7b46bb4e8d6f98cd35a7adb45c274c8b7fd5ebd5e08160000154338c8c8c8c89898e6040516129a49998979695949392919061498e565b60405180910390a1549998505050505050505050565b60046129c58261165f565b60078111156129e457634e487b7160e01b600052602160045260246000fd5b14612a655760405162461bcd60e51b8152602060048201526044602482018190527f476f7665726e6f72427261766f3a3a71756575653a2070726f706f73616c2063908201527f616e206f6e6c79206265207175657565642069662069742069732073756363656064820152631959195960e21b608482015260a401610bc3565b6000818152606f60209081526040808320606d548251630d48571f60e31b81529251919493612abf9342936001600160a01b0390931692636a42b8f892600480840193919291829003018186803b1580156117d157600080fd5b905060005b6003830154811015612cc157612caf836003018281548110612af657634e487b7160e01b600052603260045260246000fd5b6000918252602090912001546004850180546001600160a01b039092169184908110612b3257634e487b7160e01b600052603260045260246000fd5b9060005260206000200154856005018481548110612b6057634e487b7160e01b600052603260045260246000fd5b906000526020600020018054612b7590614b45565b80601f0160208091040260200160405190810160405280929190818152602001828054612ba190614b45565b8015612bee5780601f10612bc357610100808354040283529160200191612bee565b820191906000526020600020905b815481529060010190602001808311612bd157829003601f168201915b5050505050866006018581548110612c1657634e487b7160e01b600052603260045260246000fd5b906000526020600020018054612c2b90614b45565b80601f0160208091040260200160405190810160405280929190818152602001828054612c5790614b45565b8015612ca45780601f10612c7957610100808354040283529160200191612ca4565b820191906000526020600020905b815481529060010190602001808311612c8757829003601f168201915b505050505086613a51565b80612cb981614b7a565b915050612ac4565b506002820181905560408051848152602081018390527f9a2e42fd6722813d69113e7d0079d3d940171428df7373df9c7f7617cfda2892910160405180910390a1505050565b6066546001600160a01b031633148015612d2057503315155b612d835760405162461bcd60e51b815260206004820152602e60248201527f476f7665726e6f72427261766f3a5f61636365707441646d696e3a2070656e6460448201526d696e672061646d696e206f6e6c7960901b6064820152608401610bc3565b60658054606680546001600160a01b038082166001600160a01b031980861682179687905590921690925560408051938316808552949092166020840152917ff9ffabca9c8276e99321725bcb43fb076a6c66a54b7f21c4e8146d8519b417dc910160405180910390a1606654604080516001600160a01b03808516825290921660208301527fca4f2f25d0898edd99413412fb94012f9e54ec8142f9b093e7720646a95b16a99101610df4565b6076546000906001600160a01b03163314612ea25760405162461bcd60e51b815260206004820152602b60248201527f476f7665726e6f72427261766f3a3a5f66756e64496e7665737465653a20747260448201526a656173757279206f6e6c7960a81b6064820152608401610bc3565b6074546075541115612f0c5760405162461bcd60e51b815260206004820152602d60248201527f476f7665726e6f72427261766f3a3a5f66756e64496e7665737465653a204e6f60448201526c206e657720696e76657374656560981b6064820152608401610bc3565b612f196075546001613450565b6075819055507fc5c30592579df2868ccc9809f55485e57c9503d99abf37c40e084f99709f2e2060736000612f5160755460016134aa565b81526020810191909152604001600020546075546001600160a01b0390911690612f7c9060016134aa565b604080516001600160a01b03909316835260208301919091520160405180910390a160736000612faf60755460016134aa565b81526020810191909152604001600020546001600160a01b0316905090565b6065546001600160a01b031633146130345760405162461bcd60e51b8152602060048201526024808201527f476f7665726e6f72427261766f3a3a5f696e6974696174653a2061646d696e206044820152636f6e6c7960e01b6064820152608401610bc3565b606b541561309d5760405162461bcd60e51b815260206004820152603060248201527f476f7665726e6f72427261766f3a3a5f696e6974696174653a2063616e206f6e60448201526f6c7920696e697469617465206f6e636560801b6064820152608401610bc3565b806001600160a01b031663da35c6646040518163ffffffff1660e01b8152600401602060405180830381600087803b1580156130d857600080fd5b505af11580156130ec573d6000803e3d6000fd5b505050506040513d601f19601f820116820180604052508101906131109190614443565b606c819055606b55606d5460408051630e18b68160e01b815290516001600160a01b0390921691630e18b6819160048082019260009290919082900301818387803b15801561315e57600080fd5b505af1158015613172573d6000803e3d6000fd5b50506040516001600160a01b03841681527fc6055e6fe22e34bcdffce73c5d2968b6b2b71a5202db09bf28a9cda3002c479a92506020019050610cc2565b60056131bb8261165f565b60078111156131da57634e487b7160e01b600052602160045260246000fd5b1461325b5760405162461bcd60e51b815260206004820152604560248201527f476f7665726e6f72427261766f3a3a657865637574653a2070726f706f73616c60448201527f2063616e206f6e6c7920626520657865637574656420696620697420697320716064820152641d595d595960da1b608482015260a401610bc3565b6000818152606f60205260408120600c8101805461ff001916610100179055905b600382015481101561341f57606d546004830180546001600160a01b0390921691630825f38f9190849081106132c257634e487b7160e01b600052603260045260246000fd5b90600052602060002001548460030184815481106132f057634e487b7160e01b600052603260045260246000fd5b6000918252602090912001546004860180546001600160a01b03909216918690811061332c57634e487b7160e01b600052603260045260246000fd5b906000526020600020015486600501868154811061335a57634e487b7160e01b600052603260045260246000fd5b9060005260206000200187600601878154811061338757634e487b7160e01b600052603260045260246000fd5b9060005260206000200188600201546040518763ffffffff1660e01b81526004016133b695949392919061482a565b6000604051808303818588803b1580156133cf57600080fd5b505af11580156133e3573d6000803e3d6000fd5b50505050506040513d6000823e601f3d908101601f1916820160405261340c919081019061445b565b508061341781614b7a565b91505061327c565b506040518281527f712ae1383f79ac853f8d882153778e0260ef8f03b504e2866e0593e04d2b291f90602001610df4565b60008061345d8385614aea565b9050838110156134a35760405162461bcd60e51b81526020600482015260116024820152706164646974696f6e206f766572666c6f7760781b6044820152606401610bc3565b9392505050565b6000828211156134f45760405162461bcd60e51b81526020600482015260156024820152747375627472616374696f6e20756e646572666c6f7760581b6044820152606401610bc3565b6134a38284614b02565b7f360894a13ba1a3210667c828492db98dca3e2076cc3735a920a3ca505d382bbc546001600160a01b031690565b6065546001600160a01b031633146113ca5760405162461bcd60e51b815260206004820152602560248201527f4f6e6c792061646d696e2063616e207570677261646520696d706c656d656e7460448201526430ba34b7b760d91b6064820152608401610bc3565b600061359e6134fe565b90506135a984613c26565b6000835111806135b65750815b156135c7576135c58484613ccb565b505b7f4910fdfa16fed3260ed0e7147f7cc6da11a60208b5b9406d12a635614ffd9143805460ff166136d857805460ff191660011781556040516001600160a01b038316602482015261364690869060440160408051601f198184030181529190526020810180516001600160e01b0316631b2ce7f360e11b179052613ccb565b50805460ff191681556136576134fe565b6001600160a01b0316826001600160a01b0316146136cf5760405162461bcd60e51b815260206004820152602f60248201527f45524331393637557067726164653a207570677261646520627265616b73206660448201526e75727468657220757067726164657360881b6064820152608401610bc3565b6136d885613db6565b5050505050565b606e54604051636e2e2d7360e01b8152600060048201819052336024830152916001600160a01b031690636e2e2d7390604401602060405180830381600087803b15801561372c57600080fd5b505af1158015613740573d6000803e3d6000fd5b505050506040513d601f19601f820116820180604052508101906137649190614423565b156137c55760405162461bcd60e51b81526020600482015260376024820152600080516020614bc283398151915260448201527f20546f70207374616b65722063616e6e6f7420766f74650000000000000000006064820152608401610bc3565b60016137d08461165f565b60078111156137ef57634e487b7160e01b600052602160045260246000fd5b146138445760405162461bcd60e51b81526020600482015260316024820152600080516020614bc2833981519152604482015270081d9bdd1a5b99c81a5cc818db1bdcd959607a1b6064820152608401610bc3565b60028260ff1611156138a15760405162461bcd60e51b81526020600482015260326024820152600080516020614bc283398151915260448201527120696e76616c696420766f7465207479706560701b6064820152608401610bc3565b6000838152606f602090815260408083206001600160a01b0388168452600d8101909252909120805460ff16156139255760405162461bcd60e51b81526020600482015260346024820152600080516020614bc2833981519152604482015273081d9bdd195c88185b1c9958591e481d9bdd195960621b6064820152608401610bc3565b606e546007830154604051630748d63560e31b81526000926001600160a01b031691633a46b1a89161396f918b916004016001600160a01b03929092168252602082015260400190565b60206040518083038186803b15801561398757600080fd5b505afa15801561399b573d6000803e3d6000fd5b505050506040513d601f19601f820116820180604052508101906139bf9190614443565b905060ff85166139e1576139d783600a015482613450565b600a840155613a25565b8460ff1660011415613a05576139fb836009015482613450565b6009840155613a25565b8460ff1660021415613a2557613a1f83600b015482613450565b600b8401555b8154600160ff19909116811761ff00191661010060ff8816021783559091018190559150509392505050565b606d546040516001600160a01b039091169063f2b0653790613a7f90889088908890889088906020016147de565b604051602081830303815290604052805190602001206040518263ffffffff1660e01b8152600401613ab391815260200190565b60206040518083038186803b158015613acb57600080fd5b505afa158015613adf573d6000803e3d6000fd5b505050506040513d601f19601f82011682018060405250810190613b039190614423565b15613b945760405162461bcd60e51b815260206004820152605560248201527f476f7665726e6f72427261766f3a3a71756575654f72526576657274496e746560448201527f726e616c3a206964656e746963616c2070726f706f73616c20616374696f6e20606482015274616c7265616479207175657565642061742065746160581b608482015260a401610bc3565b606d54604051633a66f90160e01b81526001600160a01b0390911690633a66f90190613bcc90889088908890889088906004016147de565b602060405180830381600087803b158015613be657600080fd5b505af1158015613bfa573d6000803e3d6000fd5b505050506040513d601f19601f82011682018060405250810190613c1e9190614443565b505050505050565b803b613c8a5760405162461bcd60e51b815260206004820152602d60248201527f455243313936373a206e657720696d706c656d656e746174696f6e206973206e60448201526c1bdd08184818dbdb9d1c9858dd609a1b6064820152608401610bc3565b7f360894a13ba1a3210667c828492db98dca3e2076cc3735a920a3ca505d382bbc80546001600160a01b0319166001600160a01b0392909216919091179055565b6060823b613d2a5760405162461bcd60e51b815260206004820152602660248201527f416464726573733a2064656c65676174652063616c6c20746f206e6f6e2d636f6044820152651b9d1c9858dd60d21b6064820152608401610bc3565b600080846001600160a01b031684604051613d4591906147c2565b600060405180830381855af49150503d8060008114613d80576040519150601f19603f3d011682016040523d82523d6000602084013e613d85565b606091505b5091509150613dad8282604051806060016040528060278152602001614c0260279139613df6565b95945050505050565b613dbf81613c26565b6040516001600160a01b038216907fbc7cd75a20ee27fd9adebab32041f755214dbc6bffa90cc0225b39da2e5c2d3b90600090a250565b60608315613e055750816134a3565b825115613e155782518084602001fd5b8160405162461bcd60e51b8152600401610bc391906148e3565b828054828255906000526020600020908101928215613e84579160200282015b82811115613e8457825182546001600160a01b0319166001600160a01b03909116178255602090920191600190910190613e4f565b50613e90929150613f81565b5090565b828054828255906000526020600020908101928215613e84579160200282015b82811115613e84578251825591602001919060010190613eb4565b828054828255906000526020600020908101928215613f1c579160200282015b82811115613f1c5782518051613f0c918491602090910190613f96565b5091602001919060010190613eef565b50613e90929150614009565b828054828255906000526020600020908101928215613f75579160200282015b82811115613f755782518051613f65918491602090910190613f96565b5091602001919060010190613f48565b50613e90929150614026565b5b80821115613e905760008155600101613f82565b828054613fa290614b45565b90600052602060002090601f016020900481019282613fc45760008555613e84565b82601f10613fdd57805160ff1916838001178555613e84565b82800160010185558215613e845791820182811115613e84578251825591602001919060010190613eb4565b80821115613e9057600061401d8282614043565b50600101614009565b80821115613e9057600061403a8282614043565b50600101614026565b50805461404f90614b45565b6000825580601f1061406157506113ca565b601f0160209004906000526020600020908101906113ca9190613f81565b80356001600160a01b03811681146113e957600080fd5b600082601f8301126140a6578081fd5b813560206140bb6140b683614a9e565b614a6d565b82815281810190858301838502870184018810156140d7578586fd5b855b858110156140fc576140ea8261407f565b845292840192908401906001016140d9565b5090979650505050505050565b600082601f830112614119578081fd5b813560206141296140b683614a9e565b82815281810190858301855b858110156140fc5761414c898684358b010161420d565b84529284019290840190600101614135565b600082601f83011261416e578081fd5b8135602061417e6140b683614a9e565b82815281810190858301855b858110156140fc576141a1898684358b010161420d565b8452928401929084019060010161418a565b600082601f8301126141c3578081fd5b813560206141d36140b683614a9e565b82815281810190858301838502870184018810156141ef578586fd5b855b858110156140fc578135845292840192908401906001016141f1565b600082601f83011261421d578081fd5b813561422b6140b682614ac2565b81815284602083860101111561423f578283fd5b816020850160208301379081016020019190915292915050565b803560ff811681146113e957600080fd5b60006020828403121561427b578081fd5b6134a38261407f565b60008060008060008060c0878903121561429c578182fd5b6142a58761407f565b95506142b36020880161407f565b94506040870135935060608701359250608087013591506142d660a0880161407f565b90509295509295509295565b600080604083850312156142f4578182fd5b6142fd8361407f565b9150602083013567ffffffffffffffff811115614318578182fd5b6143248582860161420d565b9150509250929050565b60008060408385031215614340578182fd5b6143498361407f565b946020939093013593505050565b600080600080600060a0868803121561436e578283fd5b853567ffffffffffffffff80821115614385578485fd5b61439189838a01614096565b965060208801359150808211156143a6578485fd5b6143b289838a016141b3565b955060408801359150808211156143c7578485fd5b6143d389838a0161415e565b945060608801359150808211156143e8578283fd5b6143f489838a01614109565b93506080880135915080821115614409578283fd5b506144168882890161420d565b9150509295509295909350565b600060208284031215614434578081fd5b815180151581146134a3578182fd5b600060208284031215614454578081fd5b5051919050565b60006020828403121561446c578081fd5b815167ffffffffffffffff811115614482578182fd5b8201601f81018413614492578182fd5b80516144a06140b682614ac2565b8181528560208385010111156144b4578384fd5b613dad826020830160208601614b19565b6000602082840312156144d6578081fd5b5035919050565b600080604083850312156144ef578182fd5b823591506144ff6020840161407f565b90509250929050565b6000806040838503121561451a578182fd5b823591506144ff60208401614259565b6000806000806060858703121561453f578182fd5b8435935061454f60208601614259565b9250604085013567ffffffffffffffff8082111561456b578384fd5b818701915087601f83011261457e578384fd5b81358181111561458c578485fd5b88602082850101111561459d578485fd5b95989497505060200194505050565b600080600080600060a086880312156145c3578283fd5b853594506145d360208701614259565b93506145e160408701614259565b94979396509394606081013594506080013592915050565b6000815180845260208085019450808401835b838110156146315781516001600160a01b03168752958201959082019060010161460c565b509495945050505050565b60008282518085526020808601955080818302840101818601855b848110156140fc57601f198684030189526146738383516146f7565b98840198925090830190600101614657565b6000815180845260208085019450848183028601828601855b858110156140fc5783830389526146b68383516146f7565b9885019892509084019060010161469e565b6000815180845260208085019450808401835b83811015614631578151875295820195908201906001016146db565b6000815180845261470f816020860160208601614b19565b601f01601f19169290920160200192915050565b80546000906002810460018083168061473d57607f831692505b602080841082141561475d57634e487b7160e01b86526022600452602486fd5b8388528180156147745760018114614788576147b6565b60ff198616898301526040890196506147b6565b876000528160002060005b868110156147ae5781548b8201850152908501908301614793565b8a0183019750505b50505050505092915050565b600082516147d4818460208701614b19565b9190910192915050565b600060018060a01b038716825285602083015260a0604083015261480560a08301866146f7565b828103606084015261481781866146f7565b9150508260808301529695505050505050565b600060018060a01b038716825285602083015260a0604083015261485160a0830186614723565b82810360608401526148178186614723565b60006080825261487660808301876145f9565b828103602084015261488881876146c8565b9050828103604084015261489c8186614685565b905082810360608401526148b0818561463c565b979650505050505050565b60208101600883106148dd57634e487b7160e01b600052602160045260246000fd5b91905290565b6000602082526134a360208301846146f7565b6020808252602c908201527f46756e6374696f6e206d7573742062652063616c6c6564207468726f7567682060408201526b19195b1959d85d1958d85b1b60a21b606082015260800190565b6020808252602c908201527f46756e6374696f6e206d7573742062652063616c6c6564207468726f7567682060408201526b6163746976652070726f787960a01b606082015260800190565b8981526001600160a01b0389166020820152610120604082018190526000906149b98382018b6145f9565b905082810360608401526149cd818a6146c8565b905082810360808401526149e18189614685565b905082810360a08401526149f5818861463c565b90508560c08401528460e0840152828103610100840152614a1681856146f7565b9c9b505050505050505050505050565b600086825260ff8616602083015284604083015260806060830152826080830152828460a084013781830160a090810191909152601f909201601f19160101949350505050565b604051601f8201601f1916810167ffffffffffffffff81118282101715614a9657614a96614bab565b604052919050565b600067ffffffffffffffff821115614ab857614ab8614bab565b5060209081020190565b600067ffffffffffffffff821115614adc57614adc614bab565b50601f01601f191660200190565b60008219821115614afd57614afd614b95565b500190565b600082821015614b1457614b14614b95565b500390565b60005b83811015614b34578181015183820152602001614b1c565b83811115611edc5750506000910152565b600281046001821680614b5957607f821691505b6020821081141561182857634e487b7160e01b600052602260045260246000fd5b6000600019821415614b8e57614b8e614b95565b5060010190565b634e487b7160e01b600052601160045260246000fd5b634e487b7160e01b600052604160045260246000fdfe476f7665726e6f72427261766f3a3a63617374566f7465496e7465726e616c3a476f7665726e6f72427261766f3a3a696e697469616c697a653a20696e76616c416464726573733a206c6f772d6c6576656c2064656c65676174652063616c6c206661696c6564a2646970667358221220bf7354b9bc010aa80c39082df0c9f98c1982c58dedc4399c6c5413c45643afed64736f6c63430008020033",
  "linkReferences": {},
  "deployedLinkReferences": {}
}