{
  "_format": "hh-sol-artifact-1",
  "contractName": "GovernorBravoDelegate",
  "sourceName": "contracts/governance.sol",
  "abi": [
    {
      "anonymous": false,
      "inputs": [
        {
          "indexed": false,
          "internalType": "address",
          "name": "previousAdmin",
          "type": "address"
        },
        {
          "indexed": false,
          "internalType": "address",
          "name": "newAdmin",
          "type": "address"
        }
      ],
      "name": "AdminChanged",
      "type": "event"
    },
    {
      "anonymous": false,
      "inputs": [
        {
          "indexed": true,
          "internalType": "address",
          "name": "beacon",
          "type": "address"
        }
      ],
      "name": "BeaconUpgraded",
      "type": "event"
    },
    {
      "anonymous": false,
      "inputs": [
        {
          "indexed": false,
          "internalType": "address",
          "name": "governanceAddress",
          "type": "address"
        }
      ],
      "name": "GovernanceInitiated",
      "type": "event"
    },
    {
      "anonymous": false,
      "inputs": [
        {
          "indexed": false,
          "internalType": "address",
          "name": "investee",
          "type": "address"
        },
        {
          "indexed": false,
          "internalType": "uint256",
          "name": "id",
          "type": "uint256"
        }
      ],
      "name": "InvesteeFunded",
      "type": "event"
    },
    {
      "anonymous": false,
      "inputs": [
        {
          "indexed": false,
          "internalType": "address",
          "name": "investee",
          "type": "address"
        },
        {
          "indexed": false,
          "internalType": "uint256",
          "name": "id",
          "type": "uint256"
        }
      ],
      "name": "InvesteeSet",
      "type": "event"
    },
    {
      "anonymous": false,
      "inputs": [
        {
          "indexed": false,
          "internalType": "address",
          "name": "oldAdmin",
          "type": "address"
        },
        {
          "indexed": false,
          "internalType": "address",
          "name": "newAdmin",
          "type": "address"
        }
      ],
      "name": "NewAdmin",
      "type": "event"
    },
    {
      "anonymous": false,
      "inputs": [
        {
          "indexed": false,
          "internalType": "address",
          "name": "oldImplementation",
          "type": "address"
        },
        {
          "indexed": false,
          "internalType": "address",
          "name": "newImplementation",
          "type": "address"
        }
      ],
      "name": "NewImplementation",
      "type": "event"
    },
    {
      "anonymous": false,
      "inputs": [
        {
          "indexed": false,
          "internalType": "address",
          "name": "oldPendingAdmin",
          "type": "address"
        },
        {
          "indexed": false,
          "internalType": "address",
          "name": "newPendingAdmin",
          "type": "address"
        }
      ],
      "name": "NewPendingAdmin",
      "type": "event"
    },
    {
      "anonymous": false,
      "inputs": [
        {
          "indexed": false,
          "internalType": "uint256",
          "name": "id",
          "type": "uint256"
        }
      ],
      "name": "ProposalCanceled",
      "type": "event"
    },
    {
      "anonymous": false,
      "inputs": [
        {
          "indexed": false,
          "internalType": "uint256",
          "name": "id",
          "type": "uint256"
        },
        {
          "indexed": false,
          "internalType": "address",
          "name": "proposer",
          "type": "address"
        },
        {
          "indexed": false,
          "internalType": "address[]",
          "name": "targets",
          "type": "address[]"
        },
        {
          "indexed": false,
          "internalType": "uint256[]",
          "name": "values",
          "type": "uint256[]"
        },
        {
          "indexed": false,
          "internalType": "string[]",
          "name": "signatures",
          "type": "string[]"
        },
        {
          "indexed": false,
          "internalType": "bytes[]",
          "name": "calldatas",
          "type": "bytes[]"
        },
        {
          "indexed": false,
          "internalType": "uint256",
          "name": "startBlock",
          "type": "uint256"
        },
        {
          "indexed": false,
          "internalType": "uint256",
          "name": "endBlock",
          "type": "uint256"
        },
        {
          "indexed": false,
          "internalType": "string",
          "name": "description",
          "type": "string"
        }
      ],
      "name": "ProposalCreated",
      "type": "event"
    },
    {
      "anonymous": false,
      "inputs": [
        {
          "indexed": false,
          "internalType": "uint256",
          "name": "id",
          "type": "uint256"
        }
      ],
      "name": "ProposalExecuted",
      "type": "event"
    },
    {
      "anonymous": false,
      "inputs": [
        {
          "indexed": false,
          "internalType": "uint256",
          "name": "id",
          "type": "uint256"
        },
        {
          "indexed": false,
          "internalType": "uint256",
          "name": "eta",
          "type": "uint256"
        }
      ],
      "name": "ProposalQueued",
      "type": "event"
    },
    {
      "anonymous": false,
      "inputs": [
        {
          "indexed": false,
          "internalType": "uint256",
          "name": "oldProposalThreshold",
          "type": "uint256"
        },
        {
          "indexed": false,
          "internalType": "uint256",
          "name": "newProposalThreshold",
          "type": "uint256"
        }
      ],
      "name": "ProposalThresholdSet",
      "type": "event"
    },
    {
      "anonymous": false,
      "inputs": [
        {
          "indexed": true,
          "internalType": "address",
          "name": "implementation",
          "type": "address"
        }
      ],
      "name": "Upgraded",
      "type": "event"
    },
    {
      "anonymous": false,
      "inputs": [
        {
          "indexed": true,
          "internalType": "address",
          "name": "voter",
          "type": "address"
        },
        {
          "indexed": false,
          "internalType": "uint256",
          "name": "proposalId",
          "type": "uint256"
        },
        {
          "indexed": false,
          "internalType": "uint8",
          "name": "support",
          "type": "uint8"
        },
        {
          "indexed": false,
          "internalType": "uint256",
          "name": "votes",
          "type": "uint256"
        },
        {
          "indexed": false,
          "internalType": "string",
          "name": "reason",
          "type": "string"
        }
      ],
      "name": "VoteCast",
      "type": "event"
    },
    {
      "anonymous": false,
      "inputs": [
        {
          "indexed": false,
          "internalType": "uint256",
          "name": "oldVotingDelay",
          "type": "uint256"
        },
        {
          "indexed": false,
          "internalType": "uint256",
          "name": "newVotingDelay",
          "type": "uint256"
        }
      ],
      "name": "VotingDelaySet",
      "type": "event"
    },
    {
      "anonymous": false,
      "inputs": [
        {
          "indexed": false,
          "internalType": "uint256",
          "name": "oldVotingPeriod",
          "type": "uint256"
        },
        {
          "indexed": false,
          "internalType": "uint256",
          "name": "newVotingPeriod",
          "type": "uint256"
        }
      ],
      "name": "VotingPeriodSet",
      "type": "event"
    },
    {
      "anonymous": false,
      "inputs": [
        {
          "indexed": false,
          "internalType": "address",
          "name": "account",
          "type": "address"
        },
        {
          "indexed": false,
          "internalType": "uint256",
          "name": "expiration",
          "type": "uint256"
        }
      ],
      "name": "WhitelistAccountExpirationSet",
      "type": "event"
    },
    {
      "anonymous": false,
      "inputs": [
        {
          "indexed": false,
          "internalType": "address",
          "name": "oldGuardian",
          "type": "address"
        },
        {
          "indexed": false,
          "internalType": "address",
          "name": "newGuardian",
          "type": "address"
        }
      ],
      "name": "WhitelistGuardianSet",
      "type": "event"
    },
    {
      "inputs": [],
      "name": "BALLOT_TYPEHASH",
      "outputs": [
        {
          "internalType": "bytes32",
          "name": "",
          "type": "bytes32"
        }
      ],
      "stateMutability": "view",
      "type": "function"
    },
    {
      "inputs": [],
      "name": "DOMAIN_TYPEHASH",
      "outputs": [
        {
          "internalType": "bytes32",
          "name": "",
          "type": "bytes32"
        }
      ],
      "stateMutability": "view",
      "type": "function"
    },
    {
      "inputs": [],
      "name": "MAX_PROPOSAL_THRESHOLD",
      "outputs": [
        {
          "internalType": "uint256",
          "name": "",
          "type": "uint256"
        }
      ],
      "stateMutability": "view",
      "type": "function"
    },
    {
      "inputs": [],
      "name": "MAX_VOTING_DELAY",
      "outputs": [
        {
          "internalType": "uint256",
          "name": "",
          "type": "uint256"
        }
      ],
      "stateMutability": "view",
      "type": "function"
    },
    {
      "inputs": [],
      "name": "MAX_VOTING_PERIOD",
      "outputs": [
        {
          "internalType": "uint256",
          "name": "",
          "type": "uint256"
        }
      ],
      "stateMutability": "view",
      "type": "function"
    },
    {
      "inputs": [],
      "name": "MIN_PROPOSAL_THRESHOLD",
      "outputs": [
        {
          "internalType": "uint256",
          "name": "",
          "type": "uint256"
        }
      ],
      "stateMutability": "view",
      "type": "function"
    },
    {
      "inputs": [],
      "name": "MIN_VOTING_DELAY",
      "outputs": [
        {
          "internalType": "uint256",
          "name": "",
          "type": "uint256"
        }
      ],
      "stateMutability": "view",
      "type": "function"
    },
    {
      "inputs": [],
      "name": "MIN_VOTING_PERIOD",
      "outputs": [
        {
          "internalType": "uint256",
          "name": "",
          "type": "uint256"
        }
      ],
      "stateMutability": "view",
      "type": "function"
    },
    {
      "inputs": [],
      "name": "_AcceptTimelockAdmin",
      "outputs": [],
      "stateMutability": "nonpayable",
      "type": "function"
    },
    {
      "inputs": [],
      "name": "_acceptAdmin",
      "outputs": [],
      "stateMutability": "nonpayable",
      "type": "function"
    },
    {
      "inputs": [],
      "name": "_fundInvestee",
      "outputs": [
        {
          "internalType": "address",
          "name": "",
          "type": "address"
        }
      ],
      "stateMutability": "nonpayable",
      "type": "function"
    },
    {
      "inputs": [
        {
          "internalType": "address",
          "name": "governorAlpha",
          "type": "address"
        }
      ],
      "name": "_initiate",
      "outputs": [],
      "stateMutability": "nonpayable",
      "type": "function"
    },
    {
      "inputs": [
        {
          "internalType": "address",
          "name": "_investee",
          "type": "address"
        }
      ],
      "name": "_setInvesteeDetails",
      "outputs": [],
      "stateMutability": "nonpayable",
      "type": "function"
    },
    {
      "inputs": [
        {
          "internalType": "address",
          "name": "newPendingAdmin",
          "type": "address"
        }
      ],
      "name": "_setPendingAdmin",
      "outputs": [],
      "stateMutability": "nonpayable",
      "type": "function"
    },
    {
      "inputs": [
        {
          "internalType": "uint256",
          "name": "newProposalThreshold",
          "type": "uint256"
        }
      ],
      "name": "_setProposalThreshold",
      "outputs": [],
      "stateMutability": "nonpayable",
      "type": "function"
    },
    {
      "inputs": [
        {
          "internalType": "uint256",
          "name": "newVotingDelay",
          "type": "uint256"
        }
      ],
      "name": "_setVotingDelay",
      "outputs": [],
      "stateMutability": "nonpayable",
      "type": "function"
    },
    {
      "inputs": [
        {
          "internalType": "uint256",
          "name": "newVotingPeriod",
          "type": "uint256"
        }
      ],
      "name": "_setVotingPeriod",
      "outputs": [],
      "stateMutability": "nonpayable",
      "type": "function"
    },
    {
      "inputs": [
        {
          "internalType": "address",
          "name": "account",
          "type": "address"
        },
        {
          "internalType": "uint256",
          "name": "expiration",
          "type": "uint256"
        }
      ],
      "name": "_setWhitelistAccountExpiration",
      "outputs": [],
      "stateMutability": "nonpayable",
      "type": "function"
    },
    {
      "inputs": [
        {
          "internalType": "address",
          "name": "account",
          "type": "address"
        }
      ],
      "name": "_setWhitelistGuardian",
      "outputs": [],
      "stateMutability": "nonpayable",
      "type": "function"
    },
    {
      "inputs": [],
      "name": "admin",
      "outputs": [
        {
          "internalType": "address",
          "name": "",
          "type": "address"
        }
      ],
      "stateMutability": "view",
      "type": "function"
    },
    {
      "inputs": [
        {
          "internalType": "uint256",
          "name": "proposalId",
          "type": "uint256"
        }
      ],
      "name": "cancel",
      "outputs": [],
      "stateMutability": "nonpayable",
      "type": "function"
    },
    {
      "inputs": [
        {
          "internalType": "uint256",
          "name": "proposalId",
          "type": "uint256"
        },
        {
          "internalType": "uint8",
          "name": "support",
          "type": "uint8"
        }
      ],
      "name": "castVote",
      "outputs": [],
      "stateMutability": "nonpayable",
      "type": "function"
    },
    {
      "inputs": [
        {
          "internalType": "uint256",
          "name": "proposalId",
          "type": "uint256"
        },
        {
          "internalType": "uint8",
          "name": "support",
          "type": "uint8"
        },
        {
          "internalType": "uint8",
          "name": "v",
          "type": "uint8"
        },
        {
          "internalType": "bytes32",
          "name": "r",
          "type": "bytes32"
        },
        {
          "internalType": "bytes32",
          "name": "s",
          "type": "bytes32"
        }
      ],
      "name": "castVoteBySig",
      "outputs": [],
      "stateMutability": "nonpayable",
      "type": "function"
    },
    {
      "inputs": [
        {
          "internalType": "uint256",
          "name": "proposalId",
          "type": "uint256"
        },
        {
          "internalType": "uint8",
          "name": "support",
          "type": "uint8"
        },
        {
          "internalType": "string",
          "name": "reason",
          "type": "string"
        }
      ],
      "name": "castVoteWithReason",
      "outputs": [],
      "stateMutability": "nonpayable",
      "type": "function"
    },
    {
      "inputs": [],
      "name": "dCult",
      "outputs": [
        {
          "internalType": "contract dCultInterface",
          "name": "",
          "type": "address"
        }
      ],
      "stateMutability": "view",
      "type": "function"
    },
    {
      "inputs": [
        {
          "internalType": "uint256",
          "name": "proposalId",
          "type": "uint256"
        }
      ],
      "name": "execute",
      "outputs": [],
      "stateMutability": "payable",
      "type": "function"
    },
    {
      "inputs": [
        {
          "internalType": "uint256",
          "name": "proposalId",
          "type": "uint256"
        }
      ],
      "name": "getActions",
      "outputs": [
        {
          "internalType": "address[]",
          "name": "targets",
          "type": "address[]"
        },
        {
          "internalType": "uint256[]",
          "name": "values",
          "type": "uint256[]"
        },
        {
          "internalType": "string[]",
          "name": "signatures",
          "type": "string[]"
        },
        {
          "internalType": "bytes[]",
          "name": "calldatas",
          "type": "bytes[]"
        }
      ],
      "stateMutability": "view",
      "type": "function"
    },
    {
      "inputs": [
        {
          "internalType": "uint256",
          "name": "proposalId",
          "type": "uint256"
        },
        {
          "internalType": "address",
          "name": "voter",
          "type": "address"
        }
      ],
      "name": "getReceipt",
      "outputs": [
        {
          "components": [
            {
              "internalType": "bool",
              "name": "hasVoted",
              "type": "bool"
            },
            {
              "internalType": "uint8",
              "name": "support",
              "type": "uint8"
            },
            {
              "internalType": "uint256",
              "name": "votes",
              "type": "uint256"
            }
          ],
          "internalType": "struct GovernorBravoDelegateStorageV1.Receipt",
          "name": "",
          "type": "tuple"
        }
      ],
      "stateMutability": "view",
      "type": "function"
    },
    {
      "inputs": [],
      "name": "implementation",
      "outputs": [
        {
          "internalType": "address",
          "name": "",
          "type": "address"
        }
      ],
      "stateMutability": "view",
      "type": "function"
    },
    {
      "inputs": [],
      "name": "initialProposalId",
      "outputs": [
        {
          "internalType": "uint256",
          "name": "",
          "type": "uint256"
        }
      ],
      "stateMutability": "view",
      "type": "function"
    },
    {
      "inputs": [
        {
          "internalType": "address",
          "name": "timelock_",
          "type": "address"
        },
        {
          "internalType": "address",
          "name": "dCult_",
          "type": "address"
        },
        {
          "internalType": "uint256",
          "name": "votingPeriod_",
          "type": "uint256"
        },
        {
          "internalType": "uint256",
          "name": "votingDelay_",
          "type": "uint256"
        },
        {
          "internalType": "uint256",
          "name": "proposalThreshold_",
          "type": "uint256"
        },
        {
          "internalType": "address",
          "name": "treasury_",
          "type": "address"
        }
      ],
      "name": "initialize",
      "outputs": [],
      "stateMutability": "nonpayable",
      "type": "function"
    },
    {
      "inputs": [
        {
          "internalType": "uint256",
          "name": "",
          "type": "uint256"
        }
      ],
      "name": "investeeDetails",
      "outputs": [
        {
          "internalType": "address",
          "name": "",
          "type": "address"
        }
      ],
      "stateMutability": "view",
      "type": "function"
    },
    {
      "inputs": [
        {
          "internalType": "address",
          "name": "account",
          "type": "address"
        }
      ],
      "name": "isWhitelisted",
      "outputs": [
        {
          "internalType": "bool",
          "name": "",
          "type": "bool"
        }
      ],
      "stateMutability": "view",
      "type": "function"
    },
    {
      "inputs": [
        {
          "internalType": "address",
          "name": "",
          "type": "address"
        }
      ],
      "name": "latestProposalIds",
      "outputs": [
        {
          "internalType": "uint256",
          "name": "",
          "type": "uint256"
        }
      ],
      "stateMutability": "view",
      "type": "function"
    },
    {
      "inputs": [],
      "name": "name",
      "outputs": [
        {
          "internalType": "string",
          "name": "",
          "type": "string"
        }
      ],
      "stateMutability": "view",
      "type": "function"
    },
    {
      "inputs": [],
      "name": "nextInvestee",
      "outputs": [
        {
          "internalType": "uint256",
          "name": "",
          "type": "uint256"
        }
      ],
      "stateMutability": "view",
      "type": "function"
    },
    {
      "inputs": [],
      "name": "nextInvesteeFund",
      "outputs": [
        {
          "internalType": "uint256",
          "name": "",
          "type": "uint256"
        }
      ],
      "stateMutability": "view",
      "type": "function"
    },
    {
      "inputs": [],
      "name": "pendingAdmin",
      "outputs": [
        {
          "internalType": "address",
          "name": "",
          "type": "address"
        }
      ],
      "stateMutability": "view",
      "type": "function"
    },
    {
      "inputs": [],
      "name": "proposalCount",
      "outputs": [
        {
          "internalType": "uint256",
          "name": "",
          "type": "uint256"
        }
      ],
      "stateMutability": "view",
      "type": "function"
    },
    {
      "inputs": [],
      "name": "proposalMaxOperations",
      "outputs": [
        {
          "internalType": "uint256",
          "name": "",
          "type": "uint256"
        }
      ],
      "stateMutability": "view",
      "type": "function"
    },
    {
      "inputs": [],
      "name": "proposalThreshold",
      "outputs": [
        {
          "internalType": "uint256",
          "name": "",
          "type": "uint256"
        }
      ],
      "stateMutability": "view",
      "type": "function"
    },
    {
      "inputs": [
        {
          "internalType": "uint256",
          "name": "",
          "type": "uint256"
        }
      ],
      "name": "proposals",
      "outputs": [
        {
          "internalType": "uint256",
          "name": "id",
          "type": "uint256"
        },
        {
          "internalType": "address",
          "name": "proposer",
          "type": "address"
        },
        {
          "internalType": "uint256",
          "name": "eta",
          "type": "uint256"
        },
        {
          "internalType": "uint256",
          "name": "startBlock",
          "type": "uint256"
        },
        {
          "internalType": "uint256",
          "name": "endBlock",
          "type": "uint256"
        },
        {
          "internalType": "uint256",
          "name": "forVotes",
          "type": "uint256"
        },
        {
          "internalType": "uint256",
          "name": "againstVotes",
          "type": "uint256"
        },
        {
          "internalType": "uint256",
          "name": "abstainVotes",
          "type": "uint256"
        },
        {
          "internalType": "bool",
          "name": "canceled",
          "type": "bool"
        },
        {
          "internalType": "bool",
          "name": "executed",
          "type": "bool"
        }
      ],
      "stateMutability": "view",
      "type": "function"
    },
    {
      "inputs": [
        {
          "internalType": "address[]",
          "name": "targets",
          "type": "address[]"
        },
        {
          "internalType": "uint256[]",
          "name": "values",
          "type": "uint256[]"
        },
        {
          "internalType": "string[]",
          "name": "signatures",
          "type": "string[]"
        },
        {
          "internalType": "bytes[]",
          "name": "calldatas",
          "type": "bytes[]"
        },
        {
          "internalType": "string",
          "name": "description",
          "type": "string"
        }
      ],
      "name": "propose",
      "outputs": [
        {
          "internalType": "uint256",
          "name": "",
          "type": "uint256"
        }
      ],
      "stateMutability": "nonpayable",
      "type": "function"
    },
    {
      "inputs": [
        {
          "internalType": "uint256",
          "name": "proposalId",
          "type": "uint256"
        }
      ],
      "name": "queue",
      "outputs": [],
      "stateMutability": "nonpayable",
      "type": "function"
    },
    {
      "inputs": [],
      "name": "quorumVotes",
      "outputs": [
        {
          "internalType": "uint256",
          "name": "",
          "type": "uint256"
        }
      ],
      "stateMutability": "view",
      "type": "function"
    },
    {
      "inputs": [
        {
          "internalType": "uint256",
          "name": "proposalId",
          "type": "uint256"
        }
      ],
      "name": "state",
      "outputs": [
        {
          "internalType": "enum GovernorBravoDelegateStorageV1.ProposalState",
          "name": "",
          "type": "uint8"
        }
      ],
      "stateMutability": "view",
      "type": "function"
    },
    {
      "inputs": [],
      "name": "timelock",
      "outputs": [
        {
          "internalType": "contract TimelockInterface",
          "name": "",
          "type": "address"
        }
      ],
      "stateMutability": "view",
      "type": "function"
    },
    {
      "inputs": [],
      "name": "treasury",
      "outputs": [
        {
          "internalType": "address",
          "name": "",
          "type": "address"
        }
      ],
      "stateMutability": "view",
      "type": "function"
    },
    {
      "inputs": [
        {
          "internalType": "address",
          "name": "newImplementation",
          "type": "address"
        }
      ],
      "name": "upgradeTo",
      "outputs": [],
      "stateMutability": "nonpayable",
      "type": "function"
    },
    {
      "inputs": [
        {
          "internalType": "address",
          "name": "newImplementation",
          "type": "address"
        },
        {
          "internalType": "bytes",
          "name": "data",
          "type": "bytes"
        }
      ],
      "name": "upgradeToAndCall",
      "outputs": [],
      "stateMutability": "payable",
      "type": "function"
    },
    {
      "inputs": [],
      "name": "votingDelay",
      "outputs": [
        {
          "internalType": "uint256",
          "name": "",
          "type": "uint256"
        }
      ],
      "stateMutability": "view",
      "type": "function"
    },
    {
      "inputs": [],
      "name": "votingPeriod",
      "outputs": [
        {
          "internalType": "uint256",
          "name": "",
          "type": "uint256"
        }
      ],
      "stateMutability": "view",
      "type": "function"
    },
    {
      "inputs": [
        {
          "internalType": "address",
          "name": "",
          "type": "address"
        }
      ],
      "name": "whitelistAccountExpirations",
      "outputs": [
        {
          "internalType": "uint256",
          "name": "",
          "type": "uint256"
        }
      ],
      "stateMutability": "view",
      "type": "function"
    },
    {
      "inputs": [],
      "name": "whitelistGuardian",
      "outputs": [
        {
          "internalType": "address",
          "name": "",
          "type": "address"
        }
      ],
      "stateMutability": "view",
      "type": "function"
    }
  ],
  "bytecode": "0x60a06040523060601b60805234801561001757600080fd5b5060805160601c614c5b61004b6000396000818161130e0152818161134e01528181611bd80152611c180152614c5b6000f3fe6080604052600436106103355760003560e01c8063647abf78116101ab578063d33219b4116100f7578063e48083fe11610095578063f851a4401161006f578063f851a44014610aec578063f9d28b8014610b0c578063fc4eee4214610b2c578063fe0d94c114610b4257610335565b8063e48083fe1461059c578063e9c714f214610ac2578063f03cd27114610ad757610335565b8063da95691a116100d1578063da95691a14610998578063ddf0b009146109b8578063deaaa7cc146109d8578063e23a9a5214610a0c57610335565b8063d33219b41461094c578063d54db3481461096c578063da35c6641461098257610335565b8063a37ee07d11610164578063b1a5d12d1161013e578063b1a5d12d146108d6578063b58131b0146108f6578063b71d1a0c1461090c578063c5a8425d1461092c57610335565b8063a37ee07d14610894578063a64e024a146108a9578063b1126263146108c057610335565b8063647abf78146107d55780636754ae56146107eb578063791f5d23146108215780637b3c71d31461083f5780637bdbe4d01461085f578063995333651461087457610335565b806326782247116102855780633e4f49e6116102235780634f1ef286116101fd5780634f1ef2861461076257806356781388146107755780635c60da1b1461079557806361d027b3146107b557610335565b80633e4f49e6146106f557806340e58ee5146107225780634d6733d21461074257610335565b806338bd0dda1161025f57806338bd0dda146106625780633932abb11461068f5780633af32abf146106a55780633bccf4fd146106d557610335565b806326782247146105f2578063328dd982146106125780633659cfe61461064257610335565b806317977c61116102f257806320606b70116102cc57806320606b7014610568578063215809ca1461059c57806324bc1a64146105b157806325fd935a146105d157610335565b806317977c61146104fb57806317ba1b8b146105285780631dfb1b5a1461054857610335565b8063013cf08b1461033a57806302a251a31461041157806306b8aa491461043557806306fdde03146104575780630e63d807146104a35780630ea2d98c146104db575b600080fd5b34801561034657600080fd5b506103b66103553660046144c2565b606f602052600090815260409020805460018201546002830154600784015460088501546009860154600a870154600b880154600c9098015496976001600160a01b0390961696949593949293919290919060ff808216916101009004168a565b604080519a8b526001600160a01b0390991660208b0152978901969096526060880194909452608087019290925260a086015260c085015260e084015215156101008301521515610120820152610140015b60405180910390f35b34801561041d57600080fd5b5061042760695481565b604051908152602001610408565b34801561044157600080fd5b50610455610450366004614267565b610b55565b005b34801561046357600080fd5b506104966040518060400160405280601381526020017243756c7420476f7665726e6f7220427261766f60681b81525081565b60405161040891906148e0565b3480156104af57600080fd5b50606e546104c3906001600160a01b031681565b6040516001600160a01b039091168152602001610408565b3480156104e757600080fd5b506104556104f63660046144c2565b610ccc565b34801561050757600080fd5b50610427610516366004614267565b60706020526000908152604090205481565b34801561053457600080fd5b506104556105433660046144c2565b610dff565b34801561055457600080fd5b506104556105633660046144c2565b610f4b565b34801561057457600080fd5b506104277f8cad95687ba82c2ce50e74f7b754645e5117c3a5bec8151c0726d5857980a86681565b3480156105a857600080fd5b50610427600181565b3480156105bd57600080fd5b506104276b033b2e3c9fd0803ce800000081565b3480156105dd57600080fd5b506104276c4bbb0bace1a6bd937d8000000081565b3480156105fe57600080fd5b506066546104c3906001600160a01b031681565b34801561061e57600080fd5b5061063261062d3660046144c2565b611072565b6040516104089493929190614860565b34801561064e57600080fd5b5061045561065d366004614267565b611303565b34801561066e57600080fd5b5061042761067d366004614267565b60716020526000908152604090205481565b34801561069b57600080fd5b5061042760685481565b3480156106b157600080fd5b506106c56106c0366004614267565b6113cc565b6040519015158152602001610408565b3480156106e157600080fd5b506104556106f03660046145a9565b6113ed565b34801561070157600080fd5b506107156107103660046144c2565b61165d565b60405161040891906148b8565b34801561072e57600080fd5b5061045561073d3660046144c2565b61182c565b34801561074e57600080fd5b5061045561075d36600461432b565b611ae7565b6104556107703660046142df565b611bcd565b34801561078157600080fd5b50610455610790366004614505565b611c87565b3480156107a157600080fd5b506067546104c3906001600160a01b031681565b3480156107c157600080fd5b506076546104c3906001600160a01b031681565b3480156107e157600080fd5b5061042760755481565b3480156107f757600080fd5b506104c36108063660046144c2565b6073602052600090815260409020546001600160a01b031681565b34801561082d57600080fd5b50610427690a968163f0a57b40000081565b34801561084b57600080fd5b5061045561085a366004614527565b611ce9565b34801561086b57600080fd5b50610427600a81565b34801561088057600080fd5b5061045561088f366004614267565b611d39565b3480156108a057600080fd5b50610455611e76565b3480156108b557600080fd5b5061042762013b0081565b3480156108cc57600080fd5b50610427619d8081565b3480156108e257600080fd5b506104556108f1366004614281565b611ee0565b34801561090257600080fd5b50610427606a5481565b34801561091857600080fd5b50610455610927366004614267565b6122dc565b34801561093857600080fd5b506072546104c3906001600160a01b031681565b34801561095857600080fd5b50606d546104c3906001600160a01b031681565b34801561097857600080fd5b5061042760745481565b34801561098e57600080fd5b50610427606c5481565b3480156109a457600080fd5b506104276109b3366004614354565b61240e565b3480156109c457600080fd5b506104556109d33660046144c2565b6129b7565b3480156109e457600080fd5b506104277f150214d74d59b7d1e90c73fc22ef3d991dd0a76b046543d4d80ab92d2a50328f81565b348015610a1857600080fd5b50610a9b610a273660046144da565b6040805160608101825260008082526020820181905291810191909152506000918252606f602090815260408084206001600160a01b03939093168452600d9092018152918190208151606081018352815460ff808216151583526101009091041693810193909352600101549082015290565b6040805182511515815260208084015160ff16908201529181015190820152606001610408565b348015610ace57600080fd5b50610455612d04565b348015610ae357600080fd5b506104c3612e2e565b348015610af857600080fd5b506065546104c3906001600160a01b031681565b348015610b1857600080fd5b50610455610b27366004614267565b612fcb565b348015610b3857600080fd5b50610427606b5481565b610455610b503660046144c2565b6131ad565b6065546001600160a01b03163314610bcb5760405162461bcd60e51b815260206004820152602e60248201527f476f7665726e6f72427261766f3a3a5f736574496e766573746565446574616960448201526d6c733a2061646d696e206f6e6c7960901b60648201526084015b60405180910390fd5b6001600160a01b038116610c3a5760405162461bcd60e51b815260206004820152603060248201527f476f7665726e6f72427261766f3a3a5f736574496e766573746565446574616960448201526f6c733a207a65726f206164647265737360801b6064820152608401610bc2565b60748054600090815260736020526040902080546001600160a01b0319166001600160a01b03841617905554610c7190600161344d565b6074819055507f59f0b8051a7417e410325aa8686c7c34f2dbabef2f0d168ae2753b7a8049f63781610ca660745460016134a7565b604080516001600160a01b0390931683526020830191909152015b60405180910390a150565b6065546001600160a01b03163314610d3a5760405162461bcd60e51b815260206004820152602b60248201527f476f7665726e6f72427261766f3a3a5f736574566f74696e67506572696f643a60448201526a2061646d696e206f6e6c7960a81b6064820152608401610bc2565b60018110158015610d4e575062013b008111155b610db95760405162461bcd60e51b815260206004820152603660248201527f476f7665726e6f72427261766f3a3a5f736574566f74696e67506572696f643a604482015275081a5b9d985b1a59081d9bdd1a5b99c81c195c9a5bd960521b6064820152608401610bc2565b606980549082905560408051828152602081018490527f7e3f7f0708a84de9203036abaa450dccc85ad5ff52f78c170f3edb55cf5e882891015b60405180910390a15050565b6065546001600160a01b03163314610e725760405162461bcd60e51b815260206004820152603060248201527f476f7665726e6f72427261766f3a3a5f73657450726f706f73616c546872657360448201526f686f6c643a2061646d696e206f6e6c7960801b6064820152608401610bc2565b690a968163f0a57b4000008110158015610e9957506c4bbb0bace1a6bd937d800000008111155b610f0d576040805162461bcd60e51b81526020600482015260248101919091527f476f7665726e6f72427261766f3a3a5f73657450726f706f73616c546872657360448201527f686f6c643a20696e76616c69642070726f706f73616c207468726573686f6c646064820152608401610bc2565b606a80549082905560408051828152602081018490527fccb45da8d5717e6c4544694297c4ba5cf151d455c9bb0ed4fc7a38411bc054619101610df3565b6065546001600160a01b03163314610fb85760405162461bcd60e51b815260206004820152602a60248201527f476f7665726e6f72427261766f3a3a5f736574566f74696e6744656c61793a2060448201526961646d696e206f6e6c7960b01b6064820152608401610bc2565b60018110158015610fcb5750619d808111155b6110345760405162461bcd60e51b815260206004820152603460248201527f476f7665726e6f72427261766f3a3a5f736574566f74696e6744656c61793a20604482015273696e76616c696420766f74696e672064656c617960601b6064820152608401610bc2565b606880549082905560408051828152602081018490527fc565b045403dc03c2eea82b81a0465edad9e2e7fc4d97e11421c209da93d7a939101610df3565b6060806060806000606f6000878152602001908152602001600020905080600301816004018260050183600601838054806020026020016040519081016040528092919081815260200182805480156110f457602002820191906000526020600020905b81546001600160a01b031681526001909101906020018083116110d6575b505050505093508280548060200260200160405190810160405280929190818152602001828054801561114657602002820191906000526020600020905b815481526020019060010190808311611132575b5050505050925081805480602002602001604051908101604052809291908181526020016000905b8282101561121a57838290600052602060002001805461118d90614b42565b80601f01602080910402602001604051908101604052809291908181526020018280546111b990614b42565b80156112065780601f106111db57610100808354040283529160200191611206565b820191906000526020600020905b8154815290600101906020018083116111e957829003601f168201915b50505050508152602001906001019061116e565b50505050915080805480602002602001604051908101604052809291908181526020016000905b828210156112ed57838290600052602060002001805461126090614b42565b80601f016020809104026020016040519081016040528092919081815260200182805461128c90614b42565b80156112d95780601f106112ae576101008083540402835291602001916112d9565b820191906000526020600020905b8154815290600101906020018083116112bc57829003601f168201915b505050505081526020019060010190611241565b5050505090509450945094509450509193509193565b306001600160a01b037f000000000000000000000000000000000000000000000000000000000000000016141561134c5760405162461bcd60e51b8152600401610bc2906148f3565b7f00000000000000000000000000000000000000000000000000000000000000006001600160a01b031661137e6134fb565b6001600160a01b0316146113a45760405162461bcd60e51b8152600401610bc29061493f565b6113ad81613529565b604080516000808252602082019092526113c991839190613591565b50565b6001600160a01b03811660009081526071602052604090205442105b919050565b604080518082018252601381527243756c7420476f7665726e6f7220427261766f60681b60209182015281517f8cad95687ba82c2ce50e74f7b754645e5117c3a5bec8151c0726d5857980a866818301527f737371b23a9404658d19548f99fef9f44ff7fb296db43047130035e99e409d3681840152466060820152306080808301919091528351808303909101815260a0820184528051908301207f150214d74d59b7d1e90c73fc22ef3d991dd0a76b046543d4d80ab92d2a50328f60c083015260e0820189905260ff8816610100808401919091528451808403909101815261012083019094528351939092019290922061190160f01b6101408401526101428301829052610162830181905290916000906101820160408051601f198184030181528282528051602091820120600080855291840180845281905260ff8a169284019290925260608301889052608083018790529092509060019060a0016020604051602081039080840390855afa158015611570573d6000803e3d6000fd5b5050604051601f1901519150506001600160a01b0381166115eb5760405162461bcd60e51b815260206004820152602f60248201527f476f7665726e6f72427261766f3a3a63617374566f746542795369673a20696e60448201526e76616c6964207369676e617475726560881b6064820152608401610bc2565b806001600160a01b03167fb8e138887d0aa13bab447e82de9d5c1777041ecd21ca36ba824ff1e6c07ddda48a8a611623858e8e6136dc565b6040805193845260ff90921660208401529082015260806060820181905260009082015260a00160405180910390a2505050505050505050565b600081606c54101580156116725750606b5482115b6116d05760405162461bcd60e51b815260206004820152602960248201527f476f7665726e6f72427261766f3a3a73746174653a20696e76616c69642070726044820152681bdc1bdcd85b081a5960ba1b6064820152608401610bc2565b6000828152606f60205260409020600c81015460ff16156116f55760029150506113e8565b8060070154431161170a5760009150506113e8565b8060080154431161171f5760019150506113e8565b80600a0154816009015411158061174557506b033b2e3c9fd0803ce80000008160090154105b156117545760039150506113e8565b60028101546117675760049150506113e8565b600c810154610100900460ff16156117835760079150506113e8565b6002810154606d54604080516360d143f160e11b8152905161180c93926001600160a01b03169163c1a287e2916004808301926020929190829003018186803b1580156117cf57600080fd5b505afa1580156117e3573d6000803e3d6000fd5b505050506040513d601f19601f820116820180604052508101906118079190614440565b61344d565b421061181c5760069150506113e8565b60059150506113e8565b50919050565b60076118378261165d565b600781111561185657634e487b7160e01b600052602160045260246000fd5b14156118c35760405162461bcd60e51b815260206004820152603660248201527f476f7665726e6f72427261766f3a3a63616e63656c3a2063616e6e6f742063616044820152751b98d95b08195e1958dd5d1959081c1c9bdc1bdcd85b60521b6064820152608401610bc2565b6000818152606f6020526040902060018101546001600160a01b031633146119535760405162461bcd60e51b815260206004820152603860248201527f476f7665726e6f72427261766f3a3a63616e63656c3a204f746865722075736560448201527f722063616e6e6f742063616e63656c2070726f706f73616c00000000000000006064820152608401610bc2565b600c8101805460ff1916600117905560005b6003820154811015611ab657606d546003830180546001600160a01b039092169163591fcdfe9190849081106119ab57634e487b7160e01b600052603260045260246000fd5b6000918252602090912001546004850180546001600160a01b0390921691859081106119e757634e487b7160e01b600052603260045260246000fd5b9060005260206000200154856005018581548110611a1557634e487b7160e01b600052603260045260246000fd5b90600052602060002001866006018681548110611a4257634e487b7160e01b600052603260045260246000fd5b9060005260206000200187600201546040518663ffffffff1660e01b8152600401611a71959493929190614827565b600060405180830381600087803b158015611a8b57600080fd5b505af1158015611a9f573d6000803e3d6000fd5b505050508080611aae90614b77565b915050611965565b506040518281527f789cf55be980739dad1d0699b93b58e806b51c9d96619bfa8fe0a28abaa7b30c90602001610df3565b6065546001600160a01b0316331480611b0a57506072546001600160a01b031633145b611b7c5760405162461bcd60e51b815260206004820152603960248201527f476f7665726e6f72427261766f3a3a5f73657457686974656c6973744163636f60448201527f756e7445787069726174696f6e3a2061646d696e206f6e6c79000000000000006064820152608401610bc2565b6001600160a01b038216600081815260716020908152604091829020849055815192835282018390527f4e7b7545bc5744d0e30425959f4687475774b6c7edad77d24cb51c7d967d45159101610df3565b306001600160a01b037f0000000000000000000000000000000000000000000000000000000000000000161415611c165760405162461bcd60e51b8152600401610bc2906148f3565b7f00000000000000000000000000000000000000000000000000000000000000006001600160a01b0316611c486134fb565b6001600160a01b031614611c6e5760405162461bcd60e51b8152600401610bc29061493f565b611c7782613529565b611c8382826001613591565b5050565b337fb8e138887d0aa13bab447e82de9d5c1777041ecd21ca36ba824ff1e6c07ddda48383611cb68483836136dc565b6040805193845260ff90921660208401529082015260806060820181905260009082015260a00160405180910390a25050565b337fb8e138887d0aa13bab447e82de9d5c1777041ecd21ca36ba824ff1e6c07ddda48585611d188483836136dc565b8686604051611d2b959493929190614a23565b60405180910390a250505050565b6001600160a01b038116611da95760405162461bcd60e51b815260206004820152603160248201527f476f7665726e6f72427261766f3a5f73657457686974656c697374477561726460448201527069616e3a207a65726f206164647265737360781b6064820152608401610bc2565b6065546001600160a01b03163314611e1c5760405162461bcd60e51b815260206004820152603060248201527f476f7665726e6f72427261766f3a3a5f73657457686974656c6973744775617260448201526f6469616e3a2061646d696e206f6e6c7960801b6064820152608401610bc2565b607280546001600160a01b038381166001600160a01b031983161792839055604080519282168084529390911660208301527f80a07e73e552148844a9c216d9724212d609cfa54e9c1a2e97203bdd2c4ad3419101610df3565b606d60009054906101000a90046001600160a01b03166001600160a01b0316630e18b6816040518163ffffffff1660e01b8152600401600060405180830381600087803b158015611ec657600080fd5b505af1158015611eda573d6000803e3d6000fd5b50505050565b600054610100900460ff16611efb5760005460ff1615611eff565b303b155b611f625760405162461bcd60e51b815260206004820152602e60248201527f496e697469616c697a61626c653a20636f6e747261637420697320616c72656160448201526d191e481a5b9a5d1a585b1a5e995960921b6064820152608401610bc2565b600054610100900460ff16158015611f8d576000805460ff1961ff0019909116610100171660011790555b606d546001600160a01b0316156120025760405162461bcd60e51b815260206004820152603360248201527f476f7665726e6f72427261766f3a3a696e697469616c697a653a2063616e206f6044820152726e6c7920696e697469616c697a65206f6e636560681b6064820152608401610bc2565b6001600160a01b0387166120625760405162461bcd60e51b81526020600482015260336024820152600080516020614bdf83398151915260448201527269642074696d656c6f636b206164647265737360681b6064820152608401610bc2565b6001600160a01b0386166120bf5760405162461bcd60e51b81526020600482015260306024820152600080516020614bdf83398151915260448201526f6964206443756c74206164647265737360801b6064820152608401610bc2565b600185101580156120d3575062013b008511155b6121265760405162461bcd60e51b81526020600482015260306024820152600080516020614bdf83398151915260448201526f1a59081d9bdd1a5b99c81c195c9a5bd960821b6064820152608401610bc2565b600184101580156121395750619d808411155b61218b5760405162461bcd60e51b815260206004820152602f6024820152600080516020614bdf83398151915260448201526e696420766f74696e672064656c617960881b6064820152608401610bc2565b690a968163f0a57b40000083101580156121b257506c4bbb0bace1a6bd937d800000008311155b61220a5760405162461bcd60e51b81526020600482015260356024820152600080516020614bdf8339815191526044820152741a59081c1c9bdc1bdcd85b081d1a1c995cda1bdb19605a1b6064820152608401610bc2565b6001600160a01b03821661226a5760405162461bcd60e51b81526020600482015260336024820152600080516020614bdf8339815191526044820152726964207472656173757279206164647265737360681b6064820152608401610bc2565b606d80546001600160a01b03199081166001600160a01b038a8116918217909355606e805483168a851617905560698890556068879055606a86905560658054831690911790556076805490911691841691909117905580156122d3576000805461ff00191690555b50505050505050565b6001600160a01b0381166123475760405162461bcd60e51b815260206004820152602c60248201527f476f7665726e6f72427261766f3a5f73657450656e64696e6741646d696e3a2060448201526b7a65726f206164647265737360a01b6064820152608401610bc2565b6065546001600160a01b031633146123b45760405162461bcd60e51b815260206004820152602a60248201527f476f7665726e6f72427261766f3a5f73657450656e64696e6741646d696e3a2060448201526961646d696e206f6e6c7960b01b6064820152608401610bc2565b606680546001600160a01b038381166001600160a01b031983168117909355604080519190921680825260208201939093527fca4f2f25d0898edd99413412fb94012f9e54ec8142f9b093e7720646a95b16a99101610df3565b606e54604051636e2e2d7360e01b8152600060048201819052336024830152916001600160a01b031690636e2e2d7390604401602060405180830381600087803b15801561245b57600080fd5b505af115801561246f573d6000803e3d6000fd5b505050506040513d601f19601f820116820180604052508101906124939190614420565b6124ef5760405162461bcd60e51b815260206004820152602760248201527f476f7665726e6f72427261766f3a3a70726f706f73653a206f6e6c7920746f706044820152661039ba30b5b2b960c91b6064820152608401610bc2565b84518651148015612501575083518651145b801561250e575082518651145b61258e5760405162461bcd60e51b8152602060048201526044602482018190527f476f7665726e6f72427261766f3a3a70726f706f73653a2070726f706f73616c908201527f2066756e6374696f6e20696e666f726d6174696f6e206172697479206d69736d6064820152630c2e8c6d60e31b608482015260a401610bc2565b85516125f15760405162461bcd60e51b815260206004820152602c60248201527f476f7665726e6f72427261766f3a3a70726f706f73653a206d7573742070726f60448201526b7669646520616374696f6e7360a01b6064820152608401610bc2565b600a865111156126545760405162461bcd60e51b815260206004820152602860248201527f476f7665726e6f72427261766f3a3a70726f706f73653a20746f6f206d616e7960448201526720616374696f6e7360c01b6064820152608401610bc2565b3360009081526070602052604090205480156127f15760006126758261165d565b9050600181600781111561269957634e487b7160e01b600052602160045260246000fd5b14156127335760405162461bcd60e51b815260206004820152605860248201527f476f7665726e6f72427261766f3a3a70726f706f73653a206f6e65206c69766560448201527f2070726f706f73616c207065722070726f706f7365722c20666f756e6420616e60648201527f20616c7265616479206163746976652070726f706f73616c0000000000000000608482015260a401610bc2565b600081600781111561275557634e487b7160e01b600052602160045260246000fd5b14156127ef5760405162461bcd60e51b815260206004820152605960248201527f476f7665726e6f72427261766f3a3a70726f706f73653a206f6e65206c69766560448201527f2070726f706f73616c207065722070726f706f7365722c20666f756e6420616e60648201527f20616c72656164792070656e64696e672070726f706f73616c00000000000000608482015260a401610bc2565b505b60006127ff4360685461344d565b9050600061280f8260695461344d565b606c8054919250600061282183614b77565b9091555050606c546000818152606f6020908152604082209283556001830180546001600160a01b0319163317905560028301919091558a5161286c916003840191908d0190613e2c565b50885161288290600483019060208c0190613e91565b50875161289890600583019060208b0190613ecc565b5086516128ae90600683019060208a0190613f25565b5082816007018190555081816008018190555060008160090181905550600081600a0181905550600081600b0181905550600081600c0160006101000a81548160ff021916908315150217905550600081600c0160016101000a81548160ff0219169083151502179055508060000154607060008360010160009054906101000a90046001600160a01b03166001600160a01b03166001600160a01b03168152602001908152602001600020819055507f7d84a6263ae0d98d3329bd7b46bb4e8d6f98cd35a7adb45c274c8b7fd5ebd5e08160000154338c8c8c8c89898e6040516129a19998979695949392919061498b565b60405180910390a1549998505050505050505050565b60046129c28261165d565b60078111156129e157634e487b7160e01b600052602160045260246000fd5b14612a625760405162461bcd60e51b8152602060048201526044602482018190527f476f7665726e6f72427261766f3a3a71756575653a2070726f706f73616c2063908201527f616e206f6e6c79206265207175657565642069662069742069732073756363656064820152631959195960e21b608482015260a401610bc2565b6000818152606f60209081526040808320606d548251630d48571f60e31b81529251919493612abc9342936001600160a01b0390931692636a42b8f892600480840193919291829003018186803b1580156117cf57600080fd5b905060005b6003830154811015612cbe57612cac836003018281548110612af357634e487b7160e01b600052603260045260246000fd5b6000918252602090912001546004850180546001600160a01b039092169184908110612b2f57634e487b7160e01b600052603260045260246000fd5b9060005260206000200154856005018481548110612b5d57634e487b7160e01b600052603260045260246000fd5b906000526020600020018054612b7290614b42565b80601f0160208091040260200160405190810160405280929190818152602001828054612b9e90614b42565b8015612beb5780601f10612bc057610100808354040283529160200191612beb565b820191906000526020600020905b815481529060010190602001808311612bce57829003601f168201915b5050505050866006018581548110612c1357634e487b7160e01b600052603260045260246000fd5b906000526020600020018054612c2890614b42565b80601f0160208091040260200160405190810160405280929190818152602001828054612c5490614b42565b8015612ca15780601f10612c7657610100808354040283529160200191612ca1565b820191906000526020600020905b815481529060010190602001808311612c8457829003601f168201915b505050505086613a4e565b80612cb681614b77565b915050612ac1565b506002820181905560408051848152602081018390527f9a2e42fd6722813d69113e7d0079d3d940171428df7373df9c7f7617cfda2892910160405180910390a1505050565b6066546001600160a01b031633148015612d1d57503315155b612d805760405162461bcd60e51b815260206004820152602e60248201527f476f7665726e6f72427261766f3a5f61636365707441646d696e3a2070656e6460448201526d696e672061646d696e206f6e6c7960901b6064820152608401610bc2565b60658054606680546001600160a01b038082166001600160a01b031980861682179687905590921690925560408051938316808552949092166020840152917ff9ffabca9c8276e99321725bcb43fb076a6c66a54b7f21c4e8146d8519b417dc910160405180910390a1606654604080516001600160a01b03808516825290921660208301527fca4f2f25d0898edd99413412fb94012f9e54ec8142f9b093e7720646a95b16a99101610df3565b6076546000906001600160a01b03163314612e9f5760405162461bcd60e51b815260206004820152602b60248201527f476f7665726e6f72427261766f3a3a5f66756e64496e7665737465653a20747260448201526a656173757279206f6e6c7960a81b6064820152608401610bc2565b6074546075541115612f095760405162461bcd60e51b815260206004820152602d60248201527f476f7665726e6f72427261766f3a3a5f66756e64496e7665737465653a204e6f60448201526c206e657720696e76657374656560981b6064820152608401610bc2565b612f16607554600161344d565b6075819055507fc5c30592579df2868ccc9809f55485e57c9503d99abf37c40e084f99709f2e2060736000612f4e60755460016134a7565b81526020810191909152604001600020546075546001600160a01b0390911690612f799060016134a7565b604080516001600160a01b03909316835260208301919091520160405180910390a160736000612fac60755460016134a7565b81526020810191909152604001600020546001600160a01b0316905090565b6065546001600160a01b031633146130315760405162461bcd60e51b8152602060048201526024808201527f476f7665726e6f72427261766f3a3a5f696e6974696174653a2061646d696e206044820152636f6e6c7960e01b6064820152608401610bc2565b606b541561309a5760405162461bcd60e51b815260206004820152603060248201527f476f7665726e6f72427261766f3a3a5f696e6974696174653a2063616e206f6e60448201526f6c7920696e697469617465206f6e636560801b6064820152608401610bc2565b806001600160a01b031663da35c6646040518163ffffffff1660e01b8152600401602060405180830381600087803b1580156130d557600080fd5b505af11580156130e9573d6000803e3d6000fd5b505050506040513d601f19601f8201168201806040525081019061310d9190614440565b606c819055606b55606d5460408051630e18b68160e01b815290516001600160a01b0390921691630e18b6819160048082019260009290919082900301818387803b15801561315b57600080fd5b505af115801561316f573d6000803e3d6000fd5b50506040516001600160a01b03841681527fc6055e6fe22e34bcdffce73c5d2968b6b2b71a5202db09bf28a9cda3002c479a92506020019050610cc1565b60056131b88261165d565b60078111156131d757634e487b7160e01b600052602160045260246000fd5b146132585760405162461bcd60e51b815260206004820152604560248201527f476f7665726e6f72427261766f3a3a657865637574653a2070726f706f73616c60448201527f2063616e206f6e6c7920626520657865637574656420696620697420697320716064820152641d595d595960da1b608482015260a401610bc2565b6000818152606f60205260408120600c8101805461ff001916610100179055905b600382015481101561341c57606d546004830180546001600160a01b0390921691630825f38f9190849081106132bf57634e487b7160e01b600052603260045260246000fd5b90600052602060002001548460030184815481106132ed57634e487b7160e01b600052603260045260246000fd5b6000918252602090912001546004860180546001600160a01b03909216918690811061332957634e487b7160e01b600052603260045260246000fd5b906000526020600020015486600501868154811061335757634e487b7160e01b600052603260045260246000fd5b9060005260206000200187600601878154811061338457634e487b7160e01b600052603260045260246000fd5b9060005260206000200188600201546040518763ffffffff1660e01b81526004016133b3959493929190614827565b6000604051808303818588803b1580156133cc57600080fd5b505af11580156133e0573d6000803e3d6000fd5b50505050506040513d6000823e601f3d908101601f191682016040526134099190810190614458565b508061341481614b77565b915050613279565b506040518281527f712ae1383f79ac853f8d882153778e0260ef8f03b504e2866e0593e04d2b291f90602001610df3565b60008061345a8385614ae7565b9050838110156134a05760405162461bcd60e51b81526020600482015260116024820152706164646974696f6e206f766572666c6f7760781b6044820152606401610bc2565b9392505050565b6000828211156134f15760405162461bcd60e51b81526020600482015260156024820152747375627472616374696f6e20756e646572666c6f7760581b6044820152606401610bc2565b6134a08284614aff565b7f360894a13ba1a3210667c828492db98dca3e2076cc3735a920a3ca505d382bbc546001600160a01b031690565b6065546001600160a01b031633146113c95760405162461bcd60e51b815260206004820152602560248201527f4f6e6c792061646d696e2063616e207570677261646520696d706c656d656e7460448201526430ba34b7b760d91b6064820152608401610bc2565b600061359b6134fb565b90506135a684613c23565b6000835111806135b35750815b156135c4576135c28484613cc8565b505b7f4910fdfa16fed3260ed0e7147f7cc6da11a60208b5b9406d12a635614ffd9143805460ff166136d557805460ff191660011781556040516001600160a01b038316602482015261364390869060440160408051601f198184030181529190526020810180516001600160e01b0316631b2ce7f360e11b179052613cc8565b50805460ff191681556136546134fb565b6001600160a01b0316826001600160a01b0316146136cc5760405162461bcd60e51b815260206004820152602f60248201527f45524331393637557067726164653a207570677261646520627265616b73206660448201526e75727468657220757067726164657360881b6064820152608401610bc2565b6136d585613db3565b5050505050565b606e54604051636e2e2d7360e01b8152600060048201819052336024830152916001600160a01b031690636e2e2d7390604401602060405180830381600087803b15801561372957600080fd5b505af115801561373d573d6000803e3d6000fd5b505050506040513d601f19601f820116820180604052508101906137619190614420565b156137c25760405162461bcd60e51b81526020600482015260376024820152600080516020614bbf83398151915260448201527f20546f70207374616b65722063616e6e6f7420766f74650000000000000000006064820152608401610bc2565b60016137cd8461165d565b60078111156137ec57634e487b7160e01b600052602160045260246000fd5b146138415760405162461bcd60e51b81526020600482015260316024820152600080516020614bbf833981519152604482015270081d9bdd1a5b99c81a5cc818db1bdcd959607a1b6064820152608401610bc2565b60028260ff16111561389e5760405162461bcd60e51b81526020600482015260326024820152600080516020614bbf83398151915260448201527120696e76616c696420766f7465207479706560701b6064820152608401610bc2565b6000838152606f602090815260408083206001600160a01b0388168452600d8101909252909120805460ff16156139225760405162461bcd60e51b81526020600482015260346024820152600080516020614bbf833981519152604482015273081d9bdd195c88185b1c9958591e481d9bdd195960621b6064820152608401610bc2565b606e546007830154604051630748d63560e31b81526000926001600160a01b031691633a46b1a89161396c918b916004016001600160a01b03929092168252602082015260400190565b60206040518083038186803b15801561398457600080fd5b505afa158015613998573d6000803e3d6000fd5b505050506040513d601f19601f820116820180604052508101906139bc9190614440565b905060ff85166139de576139d483600a01548261344d565b600a840155613a22565b8460ff1660011415613a02576139f883600901548261344d565b6009840155613a22565b8460ff1660021415613a2257613a1c83600b01548261344d565b600b8401555b8154600160ff19909116811761ff00191661010060ff8816021783559091018190559150509392505050565b606d546040516001600160a01b039091169063f2b0653790613a7c90889088908890889088906020016147db565b604051602081830303815290604052805190602001206040518263ffffffff1660e01b8152600401613ab091815260200190565b60206040518083038186803b158015613ac857600080fd5b505afa158015613adc573d6000803e3d6000fd5b505050506040513d601f19601f82011682018060405250810190613b009190614420565b15613b915760405162461bcd60e51b815260206004820152605560248201527f476f7665726e6f72427261766f3a3a71756575654f72526576657274496e746560448201527f726e616c3a206964656e746963616c2070726f706f73616c20616374696f6e20606482015274616c7265616479207175657565642061742065746160581b608482015260a401610bc2565b606d54604051633a66f90160e01b81526001600160a01b0390911690633a66f90190613bc990889088908890889088906004016147db565b602060405180830381600087803b158015613be357600080fd5b505af1158015613bf7573d6000803e3d6000fd5b505050506040513d601f19601f82011682018060405250810190613c1b9190614440565b505050505050565b803b613c875760405162461bcd60e51b815260206004820152602d60248201527f455243313936373a206e657720696d706c656d656e746174696f6e206973206e60448201526c1bdd08184818dbdb9d1c9858dd609a1b6064820152608401610bc2565b7f360894a13ba1a3210667c828492db98dca3e2076cc3735a920a3ca505d382bbc80546001600160a01b0319166001600160a01b0392909216919091179055565b6060823b613d275760405162461bcd60e51b815260206004820152602660248201527f416464726573733a2064656c65676174652063616c6c20746f206e6f6e2d636f6044820152651b9d1c9858dd60d21b6064820152608401610bc2565b600080846001600160a01b031684604051613d4291906147bf565b600060405180830381855af49150503d8060008114613d7d576040519150601f19603f3d011682016040523d82523d6000602084013e613d82565b606091505b5091509150613daa8282604051806060016040528060278152602001614bff60279139613df3565b95945050505050565b613dbc81613c23565b6040516001600160a01b038216907fbc7cd75a20ee27fd9adebab32041f755214dbc6bffa90cc0225b39da2e5c2d3b90600090a250565b60608315613e025750816134a0565b825115613e125782518084602001fd5b8160405162461bcd60e51b8152600401610bc291906148e0565b828054828255906000526020600020908101928215613e81579160200282015b82811115613e8157825182546001600160a01b0319166001600160a01b03909116178255602090920191600190910190613e4c565b50613e8d929150613f7e565b5090565b828054828255906000526020600020908101928215613e81579160200282015b82811115613e81578251825591602001919060010190613eb1565b828054828255906000526020600020908101928215613f19579160200282015b82811115613f195782518051613f09918491602090910190613f93565b5091602001919060010190613eec565b50613e8d929150614006565b828054828255906000526020600020908101928215613f72579160200282015b82811115613f725782518051613f62918491602090910190613f93565b5091602001919060010190613f45565b50613e8d929150614023565b5b80821115613e8d5760008155600101613f7f565b828054613f9f90614b42565b90600052602060002090601f016020900481019282613fc15760008555613e81565b82601f10613fda57805160ff1916838001178555613e81565b82800160010185558215613e815791820182811115613e81578251825591602001919060010190613eb1565b80821115613e8d57600061401a8282614040565b50600101614006565b80821115613e8d5760006140378282614040565b50600101614023565b50805461404c90614b42565b6000825580601f1061405e57506113c9565b601f0160209004906000526020600020908101906113c99190613f7e565b80356001600160a01b03811681146113e857600080fd5b600082601f8301126140a3578081fd5b813560206140b86140b383614a9b565b614a6a565b82815281810190858301838502870184018810156140d4578586fd5b855b858110156140f9576140e78261407c565b845292840192908401906001016140d6565b5090979650505050505050565b600082601f830112614116578081fd5b813560206141266140b383614a9b565b82815281810190858301855b858110156140f957614149898684358b010161420a565b84529284019290840190600101614132565b600082601f83011261416b578081fd5b8135602061417b6140b383614a9b565b82815281810190858301855b858110156140f95761419e898684358b010161420a565b84529284019290840190600101614187565b600082601f8301126141c0578081fd5b813560206141d06140b383614a9b565b82815281810190858301838502870184018810156141ec578586fd5b855b858110156140f9578135845292840192908401906001016141ee565b600082601f83011261421a578081fd5b81356142286140b382614abf565b81815284602083860101111561423c578283fd5b816020850160208301379081016020019190915292915050565b803560ff811681146113e857600080fd5b600060208284031215614278578081fd5b6134a08261407c565b60008060008060008060c08789031215614299578182fd5b6142a28761407c565b95506142b06020880161407c565b94506040870135935060608701359250608087013591506142d360a0880161407c565b90509295509295509295565b600080604083850312156142f1578182fd5b6142fa8361407c565b9150602083013567ffffffffffffffff811115614315578182fd5b6143218582860161420a565b9150509250929050565b6000806040838503121561433d578182fd5b6143468361407c565b946020939093013593505050565b600080600080600060a0868803121561436b578283fd5b853567ffffffffffffffff80821115614382578485fd5b61438e89838a01614093565b965060208801359150808211156143a3578485fd5b6143af89838a016141b0565b955060408801359150808211156143c4578485fd5b6143d089838a0161415b565b945060608801359150808211156143e5578283fd5b6143f189838a01614106565b93506080880135915080821115614406578283fd5b506144138882890161420a565b9150509295509295909350565b600060208284031215614431578081fd5b815180151581146134a0578182fd5b600060208284031215614451578081fd5b5051919050565b600060208284031215614469578081fd5b815167ffffffffffffffff81111561447f578182fd5b8201601f8101841361448f578182fd5b805161449d6140b382614abf565b8181528560208385010111156144b1578384fd5b613daa826020830160208601614b16565b6000602082840312156144d3578081fd5b5035919050565b600080604083850312156144ec578182fd5b823591506144fc6020840161407c565b90509250929050565b60008060408385031215614517578182fd5b823591506144fc60208401614256565b6000806000806060858703121561453c578182fd5b8435935061454c60208601614256565b9250604085013567ffffffffffffffff80821115614568578384fd5b818701915087601f83011261457b578384fd5b813581811115614589578485fd5b88602082850101111561459a578485fd5b95989497505060200194505050565b600080600080600060a086880312156145c0578283fd5b853594506145d060208701614256565b93506145de60408701614256565b94979396509394606081013594506080013592915050565b6000815180845260208085019450808401835b8381101561462e5781516001600160a01b031687529582019590820190600101614609565b509495945050505050565b60008282518085526020808601955080818302840101818601855b848110156140f957601f198684030189526146708383516146f4565b98840198925090830190600101614654565b6000815180845260208085019450848183028601828601855b858110156140f95783830389526146b38383516146f4565b9885019892509084019060010161469b565b6000815180845260208085019450808401835b8381101561462e578151875295820195908201906001016146d8565b6000815180845261470c816020860160208601614b16565b601f01601f19169290920160200192915050565b80546000906002810460018083168061473a57607f831692505b602080841082141561475a57634e487b7160e01b86526022600452602486fd5b8388528180156147715760018114614785576147b3565b60ff198616898301526040890196506147b3565b876000528160002060005b868110156147ab5781548b8201850152908501908301614790565b8a0183019750505b50505050505092915050565b600082516147d1818460208701614b16565b9190910192915050565b600060018060a01b038716825285602083015260a0604083015261480260a08301866146f4565b828103606084015261481481866146f4565b9150508260808301529695505050505050565b600060018060a01b038716825285602083015260a0604083015261484e60a0830186614720565b82810360608401526148148186614720565b60006080825261487360808301876145f6565b828103602084015261488581876146c5565b905082810360408401526148998186614682565b905082810360608401526148ad8185614639565b979650505050505050565b60208101600883106148da57634e487b7160e01b600052602160045260246000fd5b91905290565b6000602082526134a060208301846146f4565b6020808252602c908201527f46756e6374696f6e206d7573742062652063616c6c6564207468726f7567682060408201526b19195b1959d85d1958d85b1b60a21b606082015260800190565b6020808252602c908201527f46756e6374696f6e206d7573742062652063616c6c6564207468726f7567682060408201526b6163746976652070726f787960a01b606082015260800190565b8981526001600160a01b0389166020820152610120604082018190526000906149b68382018b6145f6565b905082810360608401526149ca818a6146c5565b905082810360808401526149de8189614682565b905082810360a08401526149f28188614639565b90508560c08401528460e0840152828103610100840152614a1381856146f4565b9c9b505050505050505050505050565b600086825260ff8616602083015284604083015260806060830152826080830152828460a084013781830160a090810191909152601f909201601f19160101949350505050565b604051601f8201601f1916810167ffffffffffffffff81118282101715614a9357614a93614ba8565b604052919050565b600067ffffffffffffffff821115614ab557614ab5614ba8565b5060209081020190565b600067ffffffffffffffff821115614ad957614ad9614ba8565b50601f01601f191660200190565b60008219821115614afa57614afa614b92565b500190565b600082821015614b1157614b11614b92565b500390565b60005b83811015614b31578181015183820152602001614b19565b83811115611eda5750506000910152565b600281046001821680614b5657607f821691505b6020821081141561182657634e487b7160e01b600052602260045260246000fd5b6000600019821415614b8b57614b8b614b92565b5060010190565b634e487b7160e01b600052601160045260246000fd5b634e487b7160e01b600052604160045260246000fdfe476f7665726e6f72427261766f3a3a63617374566f7465496e7465726e616c3a476f7665726e6f72427261766f3a3a696e697469616c697a653a20696e76616c416464726573733a206c6f772d6c6576656c2064656c65676174652063616c6c206661696c6564a26469706673582212203a6b39259e72037ef70624f3fe3533d37e0e1fd59c979a1d17ecd1b82444bf1a64736f6c63430008020033",
  "linkReferences": {},
  "deployedLinkReferences": {}
}