{
  "_format": "hh-sol-artifact-1",
  "contractName": "Treasury",
  "sourceName": "contracts/treasury.sol",
  "abi": [
    {
      "anonymous": false,
      "inputs": [
        {
          "indexed": false,
          "internalType": "address",
          "name": "previousAdmin",
          "type": "address"
        },
        {
          "indexed": false,
          "internalType": "address",
          "name": "newAdmin",
          "type": "address"
        }
      ],
      "name": "AdminChanged",
      "type": "event"
    },
    {
      "anonymous": false,
      "inputs": [
        {
          "indexed": true,
          "internalType": "address",
          "name": "beacon",
          "type": "address"
        }
      ],
      "name": "BeaconUpgraded",
      "type": "event"
    },
    {
      "anonymous": false,
      "inputs": [
        {
          "indexed": true,
          "internalType": "address",
          "name": "previousOwner",
          "type": "address"
        },
        {
          "indexed": true,
          "internalType": "address",
          "name": "newOwner",
          "type": "address"
        }
      ],
      "name": "OwnershipTransferred",
      "type": "event"
    },
    {
      "anonymous": false,
      "inputs": [
        {
          "indexed": false,
          "internalType": "address",
          "name": "account",
          "type": "address"
        }
      ],
      "name": "Paused",
      "type": "event"
    },
    {
      "anonymous": false,
      "inputs": [
        {
          "indexed": false,
          "internalType": "address",
          "name": "account",
          "type": "address"
        }
      ],
      "name": "Unpaused",
      "type": "event"
    },
    {
      "anonymous": false,
      "inputs": [
        {
          "indexed": true,
          "internalType": "address",
          "name": "implementation",
          "type": "address"
        }
      ],
      "name": "Upgraded",
      "type": "event"
    },
    {
      "inputs": [],
      "name": "DEAD_ADDRESS",
      "outputs": [
        {
          "internalType": "address",
          "name": "",
          "type": "address"
        }
      ],
      "stateMutability": "view",
      "type": "function"
    },
    {
      "inputs": [],
      "name": "cult",
      "outputs": [
        {
          "internalType": "address",
          "name": "",
          "type": "address"
        }
      ],
      "stateMutability": "view",
      "type": "function"
    },
    {
      "inputs": [],
      "name": "dao",
      "outputs": [
        {
          "internalType": "address",
          "name": "",
          "type": "address"
        }
      ],
      "stateMutability": "view",
      "type": "function"
    },
    {
      "inputs": [
        {
          "internalType": "address",
          "name": "_cult",
          "type": "address"
        },
        {
          "internalType": "address",
          "name": "_router",
          "type": "address"
        }
      ],
      "name": "initialize",
      "outputs": [],
      "stateMutability": "nonpayable",
      "type": "function"
    },
    {
      "inputs": [],
      "name": "owner",
      "outputs": [
        {
          "internalType": "address",
          "name": "",
          "type": "address"
        }
      ],
      "stateMutability": "view",
      "type": "function"
    },
    {
      "inputs": [],
      "name": "paused",
      "outputs": [
        {
          "internalType": "bool",
          "name": "",
          "type": "bool"
        }
      ],
      "stateMutability": "view",
      "type": "function"
    },
    {
      "inputs": [],
      "name": "renounceOwnership",
      "outputs": [],
      "stateMutability": "nonpayable",
      "type": "function"
    },
    {
      "inputs": [],
      "name": "router",
      "outputs": [
        {
          "internalType": "address",
          "name": "",
          "type": "address"
        }
      ],
      "stateMutability": "view",
      "type": "function"
    },
    {
      "inputs": [
        {
          "internalType": "address",
          "name": "_dao",
          "type": "address"
        }
      ],
      "name": "setDAOAddress",
      "outputs": [],
      "stateMutability": "nonpayable",
      "type": "function"
    },
    {
      "inputs": [],
      "name": "totalETH",
      "outputs": [
        {
          "internalType": "uint256",
          "name": "",
          "type": "uint256"
        }
      ],
      "stateMutability": "view",
      "type": "function"
    },
    {
      "inputs": [
        {
          "internalType": "address",
          "name": "newOwner",
          "type": "address"
        }
      ],
      "name": "transferOwnership",
      "outputs": [],
      "stateMutability": "nonpayable",
      "type": "function"
    },
    {
      "inputs": [
        {
          "internalType": "address",
          "name": "newImplementation",
          "type": "address"
        }
      ],
      "name": "upgradeTo",
      "outputs": [],
      "stateMutability": "nonpayable",
      "type": "function"
    },
    {
      "inputs": [
        {
          "internalType": "address",
          "name": "newImplementation",
          "type": "address"
        },
        {
          "internalType": "bytes",
          "name": "data",
          "type": "bytes"
        }
      ],
      "name": "upgradeToAndCall",
      "outputs": [],
      "stateMutability": "payable",
      "type": "function"
    },
    {
      "inputs": [],
      "name": "validatePayout",
      "outputs": [],
      "stateMutability": "nonpayable",
      "type": "function"
    }
  ],
  "bytecode": "0x60a06040523060601b60805234801561001757600080fd5b5060805160601c6117ac61004b600039600081816102a8015281816102f10152818161063d015261067d01526117ac6000f3fe6080604052600436106100dd5760003560e01c8063715018a61161007f578063a1485f6411610059578063a1485f6414610226578063a1bd81051461023b578063f2fde38b1461025c578063f887ea401461027c576100dd565b8063715018a6146101d35780638da5cb5b146101e8578063965afa8914610206576100dd565b8063485cc955116100bb578063485cc955146101675780634e6fd6c4146101875780634f1ef2861461019d5780635c975abb146101b0576100dd565b80633659cfe6146100e257806336bdee74146101045780634162169f1461012e575b600080fd5b3480156100ee57600080fd5b506101026100fd3660046112a6565b61029d565b005b34801561011057600080fd5b5061011b6101305481565b6040519081526020015b60405180910390f35b34801561013a57600080fd5b5061012e5461014f906001600160a01b031681565b6040516001600160a01b039091168152602001610125565b34801561017357600080fd5b506101026101823660046112de565b61036f565b34801561019357600080fd5b5061014f61dead81565b6101026101ab366004611316565b610632565b3480156101bc57600080fd5b5060975460ff166040519015158152602001610125565b3480156101df57600080fd5b506101026106ec565b3480156101f457600080fd5b5060c9546001600160a01b031661014f565b34801561021257600080fd5b506101026102213660046112a6565b610722565b34801561023257600080fd5b506101026107c5565b34801561024757600080fd5b5061012d5461014f906001600160a01b031681565b34801561026857600080fd5b506101026102773660046112a6565b610a74565b34801561028857600080fd5b5061012f5461014f906001600160a01b031681565b306001600160a01b037f00000000000000000000000000000000000000000000000000000000000000001614156102ef5760405162461bcd60e51b81526004016102e6906114e6565b60405180910390fd5b7f00000000000000000000000000000000000000000000000000000000000000006001600160a01b0316610321610b0c565b6001600160a01b0316146103475760405162461bcd60e51b81526004016102e690611532565b61035081610b3a565b6040805160008082526020820190925261036c91839190610bb1565b50565b600054610100900460ff1661038a5760005460ff161561038e565b303b155b6103f15760405162461bcd60e51b815260206004820152602e60248201527f496e697469616c697a61626c653a20636f6e747261637420697320616c72656160448201526d191e481a5b9a5d1a585b1a5e995960921b60648201526084016102e6565b600054610100900460ff1615801561041c576000805460ff1961ff0019909116610100171660011790555b6001600160a01b0383166104725760405162461bcd60e51b815260206004820152601b60248201527f696e697469616c697a653a20496e76616c69642061646472657373000000000060448201526064016102e6565b6001600160a01b0382166104c85760405162461bcd60e51b815260206004820152601b60248201527f696e697469616c697a653a20496e76616c69642061646472657373000000000060448201526064016102e6565b61012d80546001600160a01b038086166001600160a01b03199283161790925561012f805492851692909116919091179055610502610cfc565b61050a610d33565b610512610d62565b61051a610d89565b61012f54604080516315ab88c960e31b81529051610131926001600160a01b03169163ad5c4648916004808301926020929190829003018186803b15801561056157600080fd5b505afa158015610575573d6000803e3d6000fd5b505050506040513d601f19601f8201168201806040525081019061059991906112c2565b81546001808201845560009384526020842090910180546001600160a01b03199081166001600160a01b039485161790915561012d54610131805493840181559094527fbd987ad6ccdb7c7567f7335ea839f95dc944431abcf935b6924f70215963db739091018054939092169216919091179055670de0b6b3a764000061013055801561062d576000805461ff00191690555b505050565b306001600160a01b037f000000000000000000000000000000000000000000000000000000000000000016141561067b5760405162461bcd60e51b81526004016102e6906114e6565b7f00000000000000000000000000000000000000000000000000000000000000006001600160a01b03166106ad610b0c565b6001600160a01b0316146106d35760405162461bcd60e51b81526004016102e690611532565b6106dc82610b3a565b6106e882826001610bb1565b5050565b60c9546001600160a01b031633146107165760405162461bcd60e51b81526004016102e69061157e565b6107206000610dbc565b565b60c9546001600160a01b0316331461074c5760405162461bcd60e51b81526004016102e69061157e565b6001600160a01b0381166107a25760405162461bcd60e51b815260206004820152601e60248201527f73657444414f416464726573733a20496e76616c69642061646472657373000060448201526064016102e6565b61012e80546001600160a01b0319166001600160a01b0392909216919091179055565b61012d546040516370a0823160e01b81523060048201526000916001600160a01b0316906370a082319060240160206040518083038186803b15801561080a57600080fd5b505afa15801561081e573d6000803e3d6000fd5b505050506040513d601f19601f82011682018060405250810190610842919061147f565b61012f546101305460405163d06ca61f60e01b81529293506000926001600160a01b039092169163d06ca61f9161087f91610131906004016115fe565b60006040518083038186803b15801561089757600080fd5b505afa1580156108ab573d6000803e3d6000fd5b505050506040513d6000823e601f3d908101601f191682016040526108d391908101906113b8565b9050600061091e600a610918609b8560018151811061090257634e487b7160e01b600052603260045260246000fd5b6020026020010151610e0e90919063ffffffff16565b90610e21565b9050808310158015610a3b575061012e60009054906101000a90046001600160a01b03166001600160a01b031663d54db3486040518163ffffffff1660e01b815260040160206040518083038186803b15801561097a57600080fd5b505afa15801561098e573d6000803e3d6000fd5b505050506040513d601f19601f820116820180604052508101906109b2919061147f565b61012e60009054906101000a90046001600160a01b03166001600160a01b031663647abf786040518163ffffffff1660e01b815260040160206040518083038186803b158015610a0157600080fd5b505afa158015610a15573d6000803e3d6000fd5b505050506040513d601f19601f82011682018060405250810190610a39919061147f565b105b1561062d5761062d81610a6f600a61091860198760018151811061090257634e487b7160e01b600052603260045260246000fd5b610e2d565b60c9546001600160a01b03163314610a9e5760405162461bcd60e51b81526004016102e69061157e565b6001600160a01b038116610b035760405162461bcd60e51b815260206004820152602660248201527f4f776e61626c653a206e6577206f776e657220697320746865207a65726f206160448201526564647265737360d01b60648201526084016102e6565b61036c81610dbc565b7f360894a13ba1a3210667c828492db98dca3e2076cc3735a920a3ca505d382bbc546001600160a01b031690565b33610b4d60c9546001600160a01b031690565b6001600160a01b03161461036c5760405162461bcd60e51b815260206004820152602560248201527f4f6e6c79206f776e65722063616e207570677261646520696d706c656d656e7460448201526430ba34b7b760d91b60648201526084016102e6565b6000610bbb610b0c565b9050610bc684611033565b600083511180610bd35750815b15610be457610be284846110d8565b505b7f4910fdfa16fed3260ed0e7147f7cc6da11a60208b5b9406d12a635614ffd9143805460ff16610cf557805460ff191660011781556040516001600160a01b0383166024820152610c6390869060440160408051601f198184030181529190526020810180516001600160e01b0316631b2ce7f360e11b1790526110d8565b50805460ff19168155610c74610b0c565b6001600160a01b0316826001600160a01b031614610cec5760405162461bcd60e51b815260206004820152602f60248201527f45524331393637557067726164653a207570677261646520627265616b73206660448201526e75727468657220757067726164657360881b60648201526084016102e6565b610cf5856111c3565b5050505050565b600054610100900460ff16610d235760405162461bcd60e51b81526004016102e6906115b3565b610d2b610d62565b610720611203565b600054610100900460ff16610d5a5760405162461bcd60e51b81526004016102e6906115b3565b610720611233565b600054610100900460ff166107205760405162461bcd60e51b81526004016102e6906115b3565b600054610100900460ff16610db05760405162461bcd60e51b81526004016102e6906115b3565b6097805460ff19169055565b60c980546001600160a01b038381166001600160a01b0319831681179093556040519116919082907f8be0079c531659141344cd1fd0a4f28419497f9722a3daafe3b4186f6b6457e090600090a35050565b6000610e1a82846116a8565b9392505050565b6000610e1a8284611688565b600260fb541415610e805760405162461bcd60e51b815260206004820152601f60248201527f5265656e7472616e637947756172643a207265656e7472616e742063616c6c0060448201526064016102e6565b600260fb5561012e546040805163f03cd27160e01b815290516000926001600160a01b03169163f03cd27191600480830192602092919082900301818787803b158015610ecc57600080fd5b505af1158015610ee0573d6000803e3d6000fd5b505050506040513d601f19601f82011682018060405250810190610f0491906112c2565b61012d5460405163a9059cbb60e01b815261dead6004820152602481018590529192506001600160a01b03169063a9059cbb90604401602060405180830381600087803b158015610f5457600080fd5b505af1158015610f68573d6000803e3d6000fd5b505050506040513d601f19601f82011682018060405250810190610f8c919061145f565b5061012d546001600160a01b031663a9059cbb82610faa8686611261565b6040516001600160e01b031960e085901b1681526001600160a01b0390921660048301526024820152604401602060405180830381600087803b158015610ff057600080fd5b505af1158015611004573d6000803e3d6000fd5b505050506040513d601f19601f82011682018060405250810190611028919061145f565b5050600160fb555050565b803b6110975760405162461bcd60e51b815260206004820152602d60248201527f455243313936373a206e657720696d706c656d656e746174696f6e206973206e60448201526c1bdd08184818dbdb9d1c9858dd609a1b60648201526084016102e6565b7f360894a13ba1a3210667c828492db98dca3e2076cc3735a920a3ca505d382bbc80546001600160a01b0319166001600160a01b0392909216919091179055565b6060823b6111375760405162461bcd60e51b815260206004820152602660248201527f416464726573733a2064656c65676174652063616c6c20746f206e6f6e2d636f6044820152651b9d1c9858dd60d21b60648201526084016102e6565b600080846001600160a01b0316846040516111529190611497565b600060405180830381855af49150503d806000811461118d576040519150601f19603f3d011682016040523d82523d6000602084013e611192565b606091505b50915091506111ba82826040518060600160405280602781526020016117506027913961126d565b95945050505050565b6111cc81611033565b6040516001600160a01b038216907fbc7cd75a20ee27fd9adebab32041f755214dbc6bffa90cc0225b39da2e5c2d3b90600090a250565b600054610100900460ff1661122a5760405162461bcd60e51b81526004016102e6906115b3565b61072033610dbc565b600054610100900460ff1661125a5760405162461bcd60e51b81526004016102e6906115b3565b600160fb55565b6000610e1a82846116c7565b6060831561127c575081610e1a565b82511561128c5782518084602001fd5b8160405162461bcd60e51b81526004016102e691906114b3565b6000602082840312156112b7578081fd5b8135610e1a8161173a565b6000602082840312156112d3578081fd5b8151610e1a8161173a565b600080604083850312156112f0578081fd5b82356112fb8161173a565b9150602083013561130b8161173a565b809150509250929050565b60008060408385031215611328578182fd5b82356113338161173a565b915060208381013567ffffffffffffffff80821115611350578384fd5b818601915086601f830112611363578384fd5b81358181111561137557611375611724565b611387601f8201601f19168501611657565b9150808252878482850101111561139c578485fd5b8084840185840137810190920192909252919491935090915050565b600060208083850312156113ca578182fd5b825167ffffffffffffffff808211156113e1578384fd5b818501915085601f8301126113f4578384fd5b81518181111561140657611406611724565b8381029150611416848301611657565b8181528481019084860184860187018a1015611430578788fd5b8795505b83861015611452578051835260019590950194918601918601611434565b5098975050505050505050565b600060208284031215611470578081fd5b81518015158114610e1a578182fd5b600060208284031215611490578081fd5b5051919050565b600082516114a98184602087016116de565b9190910192915050565b60006020825282518060208401526114d28160408501602087016116de565b601f01601f19169190910160400192915050565b6020808252602c908201527f46756e6374696f6e206d7573742062652063616c6c6564207468726f7567682060408201526b19195b1959d85d1958d85b1b60a21b606082015260800190565b6020808252602c908201527f46756e6374696f6e206d7573742062652063616c6c6564207468726f7567682060408201526b6163746976652070726f787960a01b606082015260800190565b6020808252818101527f4f776e61626c653a2063616c6c6572206973206e6f7420746865206f776e6572604082015260600190565b6020808252602b908201527f496e697469616c697a61626c653a20636f6e7472616374206973206e6f74206960408201526a6e697469616c697a696e6760a81b606082015260800190565b60006040820184835260206040818501528185548084526060860191508685528285209350845b8181101561164a5784546001600160a01b031683526001948501949284019201611625565b5090979650505050505050565b604051601f8201601f1916810167ffffffffffffffff8111828210171561168057611680611724565b604052919050565b6000826116a357634e487b7160e01b81526012600452602481fd5b500490565b60008160001904831182151516156116c2576116c261170e565b500290565b6000828210156116d9576116d961170e565b500390565b60005b838110156116f95781810151838201526020016116e1565b83811115611708576000848401525b50505050565b634e487b7160e01b600052601160045260246000fd5b634e487b7160e01b600052604160045260246000fd5b6001600160a01b038116811461036c57600080fdfe416464726573733a206c6f772d6c6576656c2064656c65676174652063616c6c206661696c6564a2646970667358221220df198f18d8c6e81486391cd36a53963ddc01325ae67c4842b44b2834c5f5247864736f6c63430008020033",
  "linkReferences": {},
  "deployedLinkReferences": {}
}