{
  "_format": "hh-sol-artifact-1",
  "contractName": "Treasury",
  "sourceName": "contracts/treasury.sol",
  "abi": [
    {
      "anonymous": false,
      "inputs": [
        {
          "indexed": false,
          "internalType": "address",
          "name": "previousAdmin",
          "type": "address"
        },
        {
          "indexed": false,
          "internalType": "address",
          "name": "newAdmin",
          "type": "address"
        }
      ],
      "name": "AdminChanged",
      "type": "event"
    },
    {
      "anonymous": false,
      "inputs": [
        {
          "indexed": true,
          "internalType": "address",
          "name": "beacon",
          "type": "address"
        }
      ],
      "name": "BeaconUpgraded",
      "type": "event"
    },
    {
      "anonymous": false,
      "inputs": [
        {
          "indexed": true,
          "internalType": "address",
          "name": "previousOwner",
          "type": "address"
        },
        {
          "indexed": true,
          "internalType": "address",
          "name": "newOwner",
          "type": "address"
        }
      ],
      "name": "OwnershipTransferred",
      "type": "event"
    },
    {
      "anonymous": false,
      "inputs": [
        {
          "indexed": false,
          "internalType": "address",
          "name": "account",
          "type": "address"
        }
      ],
      "name": "Paused",
      "type": "event"
    },
    {
      "anonymous": false,
      "inputs": [
        {
          "indexed": false,
          "internalType": "address",
          "name": "account",
          "type": "address"
        }
      ],
      "name": "Unpaused",
      "type": "event"
    },
    {
      "anonymous": false,
      "inputs": [
        {
          "indexed": true,
          "internalType": "address",
          "name": "implementation",
          "type": "address"
        }
      ],
      "name": "Upgraded",
      "type": "event"
    },
    {
      "inputs": [],
      "name": "DEAD_ADDRESS",
      "outputs": [
        {
          "internalType": "address",
          "name": "",
          "type": "address"
        }
      ],
      "stateMutability": "view",
      "type": "function"
    },
    {
      "inputs": [],
      "name": "dao",
      "outputs": [
        {
          "internalType": "address",
          "name": "",
          "type": "address"
        }
      ],
      "stateMutability": "view",
      "type": "function"
    },
    {
      "inputs": [
        {
          "internalType": "address",
          "name": "_realm",
          "type": "address"
        },
        {
          "internalType": "address",
          "name": "_router",
          "type": "address"
        },
        {
          "internalType": "address",
          "name": "_mETH",
          "type": "address"
        }
      ],
      "name": "initialize",
      "outputs": [],
      "stateMutability": "nonpayable",
      "type": "function"
    },
    {
      "inputs": [],
      "name": "mETH",
      "outputs": [
        {
          "internalType": "address",
          "name": "",
          "type": "address"
        }
      ],
      "stateMutability": "view",
      "type": "function"
    },
    {
      "inputs": [],
      "name": "owner",
      "outputs": [
        {
          "internalType": "address",
          "name": "",
          "type": "address"
        }
      ],
      "stateMutability": "view",
      "type": "function"
    },
    {
      "inputs": [],
      "name": "paused",
      "outputs": [
        {
          "internalType": "bool",
          "name": "",
          "type": "bool"
        }
      ],
      "stateMutability": "view",
      "type": "function"
    },
    {
      "inputs": [],
      "name": "realm",
      "outputs": [
        {
          "internalType": "address",
          "name": "",
          "type": "address"
        }
      ],
      "stateMutability": "view",
      "type": "function"
    },
    {
      "inputs": [],
      "name": "renounceOwnership",
      "outputs": [],
      "stateMutability": "nonpayable",
      "type": "function"
    },
    {
      "inputs": [],
      "name": "router",
      "outputs": [
        {
          "internalType": "address",
          "name": "",
          "type": "address"
        }
      ],
      "stateMutability": "view",
      "type": "function"
    },
    {
      "inputs": [
        {
          "internalType": "address",
          "name": "_dao",
          "type": "address"
        }
      ],
      "name": "setDAOAddress",
      "outputs": [],
      "stateMutability": "nonpayable",
      "type": "function"
    },
    {
      "inputs": [],
      "name": "totalETH",
      "outputs": [
        {
          "internalType": "uint256",
          "name": "",
          "type": "uint256"
        }
      ],
      "stateMutability": "view",
      "type": "function"
    },
    {
      "inputs": [
        {
          "internalType": "address",
          "name": "newOwner",
          "type": "address"
        }
      ],
      "name": "transferOwnership",
      "outputs": [],
      "stateMutability": "nonpayable",
      "type": "function"
    },
    {
      "inputs": [
        {
          "internalType": "address",
          "name": "newImplementation",
          "type": "address"
        }
      ],
      "name": "upgradeTo",
      "outputs": [],
      "stateMutability": "nonpayable",
      "type": "function"
    },
    {
      "inputs": [
        {
          "internalType": "address",
          "name": "newImplementation",
          "type": "address"
        },
        {
          "internalType": "bytes",
          "name": "data",
          "type": "bytes"
        }
      ],
      "name": "upgradeToAndCall",
      "outputs": [],
      "stateMutability": "payable",
      "type": "function"
    },
    {
      "inputs": [],
      "name": "validatePayout",
      "outputs": [],
      "stateMutability": "nonpayable",
      "type": "function"
    }
  ],
  "bytecode": "0x60a06040523060601b60805234801561001757600080fd5b5060805160601c61177561004b600039600081816102d40152818161031d015281816103a601526103e601526117756000f3fe6080604052600436106100e85760003560e01c8063715018a61161008a578063ac3e674211610059578063ac3e674214610247578063c0c53b8b14610268578063f2fde38b14610288578063f887ea40146102a8576100e8565b8063715018a6146101df5780638da5cb5b146101f4578063965afa8914610212578063a1485f6414610232576100e8565b80634162169f116100c65780634162169f146101725780634e6fd6c4146101935780634f1ef286146101a95780635c975abb146101bc576100e8565b806329e84867146100ed5780633659cfe61461012b57806336bdee741461014d575b600080fd5b3480156100f957600080fd5b5061012e5461010e906001600160a01b031681565b6040516001600160a01b0390911681526020015b60405180910390f35b34801561013757600080fd5b5061014b610146366004611261565b6102c9565b005b34801561015957600080fd5b506101646101315481565b604051908152602001610122565b34801561017e57600080fd5b5061012f5461010e906001600160a01b031681565b34801561019f57600080fd5b5061010e61dead81565b61014b6101b73660046112e3565b61039b565b3480156101c857600080fd5b5060975460ff166040519015158152602001610122565b3480156101eb57600080fd5b5061014b610455565b34801561020057600080fd5b5060c9546001600160a01b031661010e565b34801561021e57600080fd5b5061014b61022d366004611261565b61048b565b34801561023e57600080fd5b5061014b61052e565b34801561025357600080fd5b5061012d5461010e906001600160a01b031681565b34801561027457600080fd5b5061014b610283366004611299565b6107e2565b34801561029457600080fd5b5061014b6102a3366004611261565b610a2f565b3480156102b457600080fd5b506101305461010e906001600160a01b031681565b306001600160a01b037f000000000000000000000000000000000000000000000000000000000000000016141561031b5760405162461bcd60e51b8152600401610312906114b3565b60405180910390fd5b7f00000000000000000000000000000000000000000000000000000000000000006001600160a01b031661034d610ac7565b6001600160a01b0316146103735760405162461bcd60e51b8152600401610312906114ff565b61037c81610af5565b6040805160008082526020820190925261039891839190610b6c565b50565b306001600160a01b037f00000000000000000000000000000000000000000000000000000000000000001614156103e45760405162461bcd60e51b8152600401610312906114b3565b7f00000000000000000000000000000000000000000000000000000000000000006001600160a01b0316610416610ac7565b6001600160a01b03161461043c5760405162461bcd60e51b8152600401610312906114ff565b61044582610af5565b61045182826001610b6c565b5050565b60c9546001600160a01b0316331461047f5760405162461bcd60e51b81526004016103129061154b565b6104896000610cb7565b565b60c9546001600160a01b031633146104b55760405162461bcd60e51b81526004016103129061154b565b6001600160a01b03811661050b5760405162461bcd60e51b815260206004820152601e60248201527f73657444414f416464726573733a20496e76616c6964206164647265737300006044820152606401610312565b61012f80546001600160a01b0319166001600160a01b0392909216919091179055565b61012d546040516370a0823160e01b81523060048201526000916001600160a01b0316906370a082319060240160206040518083038186803b15801561057357600080fd5b505afa158015610587573d6000803e3d6000fd5b505050506040513d601f19601f820116820180604052508101906105ab919061144c565b610130546101315460405163d06ca61f60e01b81529293506000926001600160a01b039092169163d06ca61f916105e891610132906004016115cb565b60006040518083038186803b15801561060057600080fd5b505afa158015610614573d6000803e3d6000fd5b505050506040513d6000823e601f3d908101601f1916820160405261063c9190810190611385565b90506000610687600a610681609b8560018151811061066b57634e487b7160e01b600052603260045260246000fd5b6020026020010151610d0990919063ffffffff16565b90610d1c565b90508083101580156107a4575061012f60009054906101000a90046001600160a01b03166001600160a01b031663d54db3486040518163ffffffff1660e01b815260040160206040518083038186803b1580156106e357600080fd5b505afa1580156106f7573d6000803e3d6000fd5b505050506040513d601f19601f8201168201806040525081019061071b919061144c565b61012f60009054906101000a90046001600160a01b03166001600160a01b031663647abf786040518163ffffffff1660e01b815260040160206040518083038186803b15801561076a57600080fd5b505afa15801561077e573d6000803e3d6000fd5b505050506040513d601f19601f820116820180604052508101906107a2919061144c565b105b156107dd576107dd816107d8600a61068160198760018151811061066b57634e487b7160e01b600052603260045260246000fd5b610d28565b505050565b600054610100900460ff166107fd5760005460ff1615610801565b303b155b6108645760405162461bcd60e51b815260206004820152602e60248201527f496e697469616c697a61626c653a20636f6e747261637420697320616c72656160448201526d191e481a5b9a5d1a585b1a5e995960921b6064820152608401610312565b600054610100900460ff1615801561088f576000805460ff1961ff0019909116610100171660011790555b6001600160a01b0384166108e55760405162461bcd60e51b815260206004820152601b60248201527f696e697469616c697a653a20496e76616c6964206164647265737300000000006044820152606401610312565b6001600160a01b03831661093b5760405162461bcd60e51b815260206004820152601b60248201527f696e697469616c697a653a20496e76616c6964206164647265737300000000006044820152606401610312565b61012d80546001600160a01b038087166001600160a01b031992831617909255610130805486841690831617905561012e805492851692909116919091179055610983610f2e565b61098b610f65565b610993610f94565b61099b610fbb565b61012e5461013280546001808201835560008390527fc53bdfd4aa1ab65dfdaf681ca6bda958ae4a123d4ed68c4277796592280e783591820180546001600160a01b039586166001600160a01b03199182161790915561012d54845492830190945591018054929093169116179055670de0b6b3a7640000610131558015610a29576000805461ff00191690555b50505050565b60c9546001600160a01b03163314610a595760405162461bcd60e51b81526004016103129061154b565b6001600160a01b038116610abe5760405162461bcd60e51b815260206004820152602660248201527f4f776e61626c653a206e6577206f776e657220697320746865207a65726f206160448201526564647265737360d01b6064820152608401610312565b61039881610cb7565b7f360894a13ba1a3210667c828492db98dca3e2076cc3735a920a3ca505d382bbc546001600160a01b031690565b33610b0860c9546001600160a01b031690565b6001600160a01b0316146103985760405162461bcd60e51b815260206004820152602560248201527f4f6e6c79206f776e65722063616e207570677261646520696d706c656d656e7460448201526430ba34b7b760d91b6064820152608401610312565b6000610b76610ac7565b9050610b8184610fee565b600083511180610b8e5750815b15610b9f57610b9d8484611093565b505b7f4910fdfa16fed3260ed0e7147f7cc6da11a60208b5b9406d12a635614ffd9143805460ff16610cb057805460ff191660011781556040516001600160a01b0383166024820152610c1e90869060440160408051601f198184030181529190526020810180516001600160e01b0316631b2ce7f360e11b179052611093565b50805460ff19168155610c2f610ac7565b6001600160a01b0316826001600160a01b031614610ca75760405162461bcd60e51b815260206004820152602f60248201527f45524331393637557067726164653a207570677261646520627265616b73206660448201526e75727468657220757067726164657360881b6064820152608401610312565b610cb08561117e565b5050505050565b60c980546001600160a01b038381166001600160a01b0319831681179093556040519116919082907f8be0079c531659141344cd1fd0a4f28419497f9722a3daafe3b4186f6b6457e090600090a35050565b6000610d158284611675565b9392505050565b6000610d158284611655565b600260fb541415610d7b5760405162461bcd60e51b815260206004820152601f60248201527f5265656e7472616e637947756172643a207265656e7472616e742063616c6c006044820152606401610312565b600260fb5561012f546040805163f03cd27160e01b815290516000926001600160a01b03169163f03cd27191600480830192602092919082900301818787803b158015610dc757600080fd5b505af1158015610ddb573d6000803e3d6000fd5b505050506040513d601f19601f82011682018060405250810190610dff919061127d565b61012d5460405163a9059cbb60e01b815261dead6004820152602481018590529192506001600160a01b03169063a9059cbb90604401602060405180830381600087803b158015610e4f57600080fd5b505af1158015610e63573d6000803e3d6000fd5b505050506040513d601f19601f82011682018060405250810190610e87919061142c565b5061012d546001600160a01b031663a9059cbb82610ea586866111be565b6040516001600160e01b031960e085901b1681526001600160a01b0390921660048301526024820152604401602060405180830381600087803b158015610eeb57600080fd5b505af1158015610eff573d6000803e3d6000fd5b505050506040513d601f19601f82011682018060405250810190610f23919061142c565b5050600160fb555050565b600054610100900460ff16610f555760405162461bcd60e51b815260040161031290611580565b610f5d610f94565b6104896111ca565b600054610100900460ff16610f8c5760405162461bcd60e51b815260040161031290611580565b6104896111fa565b600054610100900460ff166104895760405162461bcd60e51b815260040161031290611580565b600054610100900460ff16610fe25760405162461bcd60e51b815260040161031290611580565b6097805460ff19169055565b803b6110525760405162461bcd60e51b815260206004820152602d60248201527f455243313936373a206e657720696d706c656d656e746174696f6e206973206e60448201526c1bdd08184818dbdb9d1c9858dd609a1b6064820152608401610312565b7f360894a13ba1a3210667c828492db98dca3e2076cc3735a920a3ca505d382bbc80546001600160a01b0319166001600160a01b0392909216919091179055565b6060823b6110f25760405162461bcd60e51b815260206004820152602660248201527f416464726573733a2064656c65676174652063616c6c20746f206e6f6e2d636f6044820152651b9d1c9858dd60d21b6064820152608401610312565b600080846001600160a01b03168460405161110d9190611464565b600060405180830381855af49150503d8060008114611148576040519150601f19603f3d011682016040523d82523d6000602084013e61114d565b606091505b5091509150611175828260405180606001604052806027815260200161171960279139611228565b95945050505050565b61118781610fee565b6040516001600160a01b038216907fbc7cd75a20ee27fd9adebab32041f755214dbc6bffa90cc0225b39da2e5c2d3b90600090a250565b6000610d158284611694565b600054610100900460ff166111f15760405162461bcd60e51b815260040161031290611580565b61048933610cb7565b600054610100900460ff166112215760405162461bcd60e51b815260040161031290611580565b600160fb55565b60608315611237575081610d15565b8251156112475782518084602001fd5b8160405162461bcd60e51b81526004016103129190611480565b600060208284031215611272578081fd5b8135610d1581611703565b60006020828403121561128e578081fd5b8151610d1581611703565b6000806000606084860312156112ad578182fd5b83356112b881611703565b925060208401356112c881611703565b915060408401356112d881611703565b809150509250925092565b600080604083850312156112f5578182fd5b823561130081611703565b915060208381013567ffffffffffffffff8082111561131d578384fd5b818601915086601f830112611330578384fd5b813581811115611342576113426116ed565b611354601f8201601f19168501611624565b91508082528784828501011115611369578485fd5b8084840185840137810190920192909252919491935090915050565b60006020808385031215611397578182fd5b825167ffffffffffffffff808211156113ae578384fd5b818501915085601f8301126113c1578384fd5b8151818111156113d3576113d36116ed565b83810291506113e3848301611624565b8181528481019084860184860187018a10156113fd578788fd5b8795505b8386101561141f578051835260019590950194918601918601611401565b5098975050505050505050565b60006020828403121561143d578081fd5b81518015158114610d15578182fd5b60006020828403121561145d578081fd5b5051919050565b600082516114768184602087016116ab565b9190910192915050565b600060208252825180602084015261149f8160408501602087016116ab565b601f01601f19169190910160400192915050565b6020808252602c908201527f46756e6374696f6e206d7573742062652063616c6c6564207468726f7567682060408201526b19195b1959d85d1958d85b1b60a21b606082015260800190565b6020808252602c908201527f46756e6374696f6e206d7573742062652063616c6c6564207468726f7567682060408201526b6163746976652070726f787960a01b606082015260800190565b6020808252818101527f4f776e61626c653a2063616c6c6572206973206e6f7420746865206f776e6572604082015260600190565b6020808252602b908201527f496e697469616c697a61626c653a20636f6e7472616374206973206e6f74206960408201526a6e697469616c697a696e6760a81b606082015260800190565b60006040820184835260206040818501528185548084526060860191508685528285209350845b818110156116175784546001600160a01b0316835260019485019492840192016115f2565b5090979650505050505050565b604051601f8201601f1916810167ffffffffffffffff8111828210171561164d5761164d6116ed565b604052919050565b60008261167057634e487b7160e01b81526012600452602481fd5b500490565b600081600019048311821515161561168f5761168f6116d7565b500290565b6000828210156116a6576116a66116d7565b500390565b60005b838110156116c65781810151838201526020016116ae565b83811115610a295750506000910152565b634e487b7160e01b600052601160045260246000fd5b634e487b7160e01b600052604160045260246000fd5b6001600160a01b038116811461039857600080fdfe416464726573733a206c6f772d6c6576656c2064656c65676174652063616c6c206661696c6564a264697066735822122017afaa25c6f5f8b4ba5ad31a5eb6148d74c844c887bc8ee1dfe7fffd17ce30c164736f6c63430008020033",
  "linkReferences": {},
  "deployedLinkReferences": {}
}