{
  "_format": "hh-sol-artifact-1",
  "contractName": "Dcult",
  "sourceName": "contracts/dcult.sol",
  "abi": [
    {
      "anonymous": false,
      "inputs": [
        {
          "indexed": false,
          "internalType": "address",
          "name": "previousAdmin",
          "type": "address"
        },
        {
          "indexed": false,
          "internalType": "address",
          "name": "newAdmin",
          "type": "address"
        }
      ],
      "name": "AdminChanged",
      "type": "event"
    },
    {
      "anonymous": false,
      "inputs": [
        {
          "indexed": false,
          "internalType": "address",
          "name": "newAdmin",
          "type": "address"
        }
      ],
      "name": "AdminUpdated",
      "type": "event"
    },
    {
      "anonymous": false,
      "inputs": [
        {
          "indexed": true,
          "internalType": "address",
          "name": "owner",
          "type": "address"
        },
        {
          "indexed": true,
          "internalType": "address",
          "name": "spender",
          "type": "address"
        },
        {
          "indexed": false,
          "internalType": "uint256",
          "name": "value",
          "type": "uint256"
        }
      ],
      "name": "Approval",
      "type": "event"
    },
    {
      "anonymous": false,
      "inputs": [
        {
          "indexed": true,
          "internalType": "address",
          "name": "beacon",
          "type": "address"
        }
      ],
      "name": "BeaconUpgraded",
      "type": "event"
    },
    {
      "anonymous": false,
      "inputs": [
        {
          "indexed": true,
          "internalType": "address",
          "name": "delegator",
          "type": "address"
        },
        {
          "indexed": true,
          "internalType": "address",
          "name": "fromDelegate",
          "type": "address"
        },
        {
          "indexed": true,
          "internalType": "address",
          "name": "toDelegate",
          "type": "address"
        }
      ],
      "name": "DelegateChanged",
      "type": "event"
    },
    {
      "anonymous": false,
      "inputs": [
        {
          "indexed": true,
          "internalType": "address",
          "name": "delegate",
          "type": "address"
        },
        {
          "indexed": false,
          "internalType": "uint256",
          "name": "previousBalance",
          "type": "uint256"
        },
        {
          "indexed": false,
          "internalType": "uint256",
          "name": "newBalance",
          "type": "uint256"
        }
      ],
      "name": "DelegateVotesChanged",
      "type": "event"
    },
    {
      "anonymous": false,
      "inputs": [
        {
          "indexed": true,
          "internalType": "address",
          "name": "user",
          "type": "address"
        },
        {
          "indexed": true,
          "internalType": "uint256",
          "name": "pid",
          "type": "uint256"
        },
        {
          "indexed": false,
          "internalType": "uint256",
          "name": "amount",
          "type": "uint256"
        }
      ],
      "name": "Deposit",
      "type": "event"
    },
    {
      "anonymous": false,
      "inputs": [
        {
          "indexed": true,
          "internalType": "address",
          "name": "user",
          "type": "address"
        },
        {
          "indexed": true,
          "internalType": "uint256",
          "name": "pid",
          "type": "uint256"
        },
        {
          "indexed": false,
          "internalType": "uint256",
          "name": "amount",
          "type": "uint256"
        }
      ],
      "name": "EmergencyWithdraw",
      "type": "event"
    },
    {
      "anonymous": false,
      "inputs": [
        {
          "indexed": true,
          "internalType": "address",
          "name": "previousOwner",
          "type": "address"
        },
        {
          "indexed": true,
          "internalType": "address",
          "name": "newOwner",
          "type": "address"
        }
      ],
      "name": "OwnershipTransferred",
      "type": "event"
    },
    {
      "anonymous": false,
      "inputs": [
        {
          "indexed": false,
          "internalType": "address",
          "name": "account",
          "type": "address"
        }
      ],
      "name": "Paused",
      "type": "event"
    },
    {
      "anonymous": false,
      "inputs": [
        {
          "indexed": true,
          "internalType": "address",
          "name": "from",
          "type": "address"
        },
        {
          "indexed": true,
          "internalType": "address",
          "name": "to",
          "type": "address"
        },
        {
          "indexed": false,
          "internalType": "uint256",
          "name": "value",
          "type": "uint256"
        }
      ],
      "name": "Transfer",
      "type": "event"
    },
    {
      "anonymous": false,
      "inputs": [
        {
          "indexed": false,
          "internalType": "address",
          "name": "account",
          "type": "address"
        }
      ],
      "name": "Unpaused",
      "type": "event"
    },
    {
      "anonymous": false,
      "inputs": [
        {
          "indexed": true,
          "internalType": "address",
          "name": "implementation",
          "type": "address"
        }
      ],
      "name": "Upgraded",
      "type": "event"
    },
    {
      "anonymous": false,
      "inputs": [
        {
          "indexed": true,
          "internalType": "address",
          "name": "user",
          "type": "address"
        },
        {
          "indexed": true,
          "internalType": "uint256",
          "name": "pid",
          "type": "uint256"
        },
        {
          "indexed": false,
          "internalType": "uint256",
          "name": "amount",
          "type": "uint256"
        }
      ],
      "name": "Withdraw",
      "type": "event"
    },
    {
      "inputs": [],
      "name": "BONUS_MULTIPLIER",
      "outputs": [
        {
          "internalType": "uint256",
          "name": "",
          "type": "uint256"
        }
      ],
      "stateMutability": "view",
      "type": "function"
    },
    {
      "inputs": [],
      "name": "CULT",
      "outputs": [
        {
          "internalType": "contract IERC20Upgradeable",
          "name": "",
          "type": "address"
        }
      ],
      "stateMutability": "view",
      "type": "function"
    },
    {
      "inputs": [],
      "name": "DOMAIN_SEPARATOR",
      "outputs": [
        {
          "internalType": "bytes32",
          "name": "",
          "type": "bytes32"
        }
      ],
      "stateMutability": "view",
      "type": "function"
    },
    {
      "inputs": [
        {
          "internalType": "uint256",
          "name": "_pid",
          "type": "uint256"
        },
        {
          "internalType": "address",
          "name": "_to",
          "type": "address"
        },
        {
          "internalType": "uint256",
          "name": "_amount",
          "type": "uint256"
        }
      ],
      "name": "accessCULTTokens",
      "outputs": [],
      "stateMutability": "nonpayable",
      "type": "function"
    },
    {
      "inputs": [
        {
          "internalType": "uint256",
          "name": "_allocPoint",
          "type": "uint256"
        },
        {
          "internalType": "contract IERC20Upgradeable",
          "name": "_lpToken",
          "type": "address"
        },
        {
          "internalType": "bool",
          "name": "_withUpdate",
          "type": "bool"
        }
      ],
      "name": "add",
      "outputs": [],
      "stateMutability": "nonpayable",
      "type": "function"
    },
    {
      "inputs": [
        {
          "internalType": "address",
          "name": "_adminAddress",
          "type": "address"
        }
      ],
      "name": "admin",
      "outputs": [],
      "stateMutability": "nonpayable",
      "type": "function"
    },
    {
      "inputs": [],
      "name": "adminAddress",
      "outputs": [
        {
          "internalType": "address",
          "name": "",
          "type": "address"
        }
      ],
      "stateMutability": "view",
      "type": "function"
    },
    {
      "inputs": [
        {
          "internalType": "address",
          "name": "owner",
          "type": "address"
        },
        {
          "internalType": "address",
          "name": "spender",
          "type": "address"
        }
      ],
      "name": "allowance",
      "outputs": [
        {
          "internalType": "uint256",
          "name": "",
          "type": "uint256"
        }
      ],
      "stateMutability": "view",
      "type": "function"
    },
    {
      "inputs": [
        {
          "internalType": "address",
          "name": "spender",
          "type": "address"
        },
        {
          "internalType": "uint256",
          "name": "amount",
          "type": "uint256"
        }
      ],
      "name": "approve",
      "outputs": [
        {
          "internalType": "bool",
          "name": "",
          "type": "bool"
        }
      ],
      "stateMutability": "nonpayable",
      "type": "function"
    },
    {
      "inputs": [
        {
          "internalType": "address",
          "name": "account",
          "type": "address"
        }
      ],
      "name": "balanceOf",
      "outputs": [
        {
          "internalType": "uint256",
          "name": "",
          "type": "uint256"
        }
      ],
      "stateMutability": "view",
      "type": "function"
    },
    {
      "inputs": [
        {
          "internalType": "uint256",
          "name": "_pid",
          "type": "uint256"
        },
        {
          "internalType": "address",
          "name": "user",
          "type": "address"
        }
      ],
      "name": "checkHighestStaker",
      "outputs": [
        {
          "internalType": "bool",
          "name": "",
          "type": "bool"
        }
      ],
      "stateMutability": "view",
      "type": "function"
    },
    {
      "inputs": [
        {
          "internalType": "address",
          "name": "account",
          "type": "address"
        },
        {
          "internalType": "uint32",
          "name": "pos",
          "type": "uint32"
        }
      ],
      "name": "checkpoints",
      "outputs": [
        {
          "components": [
            {
              "internalType": "uint32",
              "name": "fromBlock",
              "type": "uint32"
            },
            {
              "internalType": "uint224",
              "name": "votes",
              "type": "uint224"
            }
          ],
          "internalType": "struct ERC20VotesUpgradeable.Checkpoint",
          "name": "",
          "type": "tuple"
        }
      ],
      "stateMutability": "view",
      "type": "function"
    },
    {
      "inputs": [
        {
          "internalType": "uint256",
          "name": "_pid",
          "type": "uint256"
        }
      ],
      "name": "claimCULT",
      "outputs": [],
      "stateMutability": "nonpayable",
      "type": "function"
    },
    {
      "inputs": [],
      "name": "cult",
      "outputs": [
        {
          "internalType": "contract IERC20Upgradeable",
          "name": "",
          "type": "address"
        }
      ],
      "stateMutability": "view",
      "type": "function"
    },
    {
      "inputs": [],
      "name": "decimals",
      "outputs": [
        {
          "internalType": "uint8",
          "name": "",
          "type": "uint8"
        }
      ],
      "stateMutability": "view",
      "type": "function"
    },
    {
      "inputs": [
        {
          "internalType": "address",
          "name": "spender",
          "type": "address"
        },
        {
          "internalType": "uint256",
          "name": "subtractedValue",
          "type": "uint256"
        }
      ],
      "name": "decreaseAllowance",
      "outputs": [
        {
          "internalType": "bool",
          "name": "",
          "type": "bool"
        }
      ],
      "stateMutability": "nonpayable",
      "type": "function"
    },
    {
      "inputs": [
        {
          "internalType": "address",
          "name": "delegatee",
          "type": "address"
        }
      ],
      "name": "delegate",
      "outputs": [],
      "stateMutability": "nonpayable",
      "type": "function"
    },
    {
      "inputs": [
        {
          "internalType": "address",
          "name": "delegatee",
          "type": "address"
        },
        {
          "internalType": "uint256",
          "name": "nonce",
          "type": "uint256"
        },
        {
          "internalType": "uint256",
          "name": "expiry",
          "type": "uint256"
        },
        {
          "internalType": "uint8",
          "name": "v",
          "type": "uint8"
        },
        {
          "internalType": "bytes32",
          "name": "r",
          "type": "bytes32"
        },
        {
          "internalType": "bytes32",
          "name": "s",
          "type": "bytes32"
        }
      ],
      "name": "delegateBySig",
      "outputs": [],
      "stateMutability": "nonpayable",
      "type": "function"
    },
    {
      "inputs": [
        {
          "internalType": "address",
          "name": "account",
          "type": "address"
        }
      ],
      "name": "delegates",
      "outputs": [
        {
          "internalType": "address",
          "name": "",
          "type": "address"
        }
      ],
      "stateMutability": "view",
      "type": "function"
    },
    {
      "inputs": [
        {
          "internalType": "uint256",
          "name": "_pid",
          "type": "uint256"
        },
        {
          "internalType": "uint256",
          "name": "_amount",
          "type": "uint256"
        }
      ],
      "name": "deposit",
      "outputs": [],
      "stateMutability": "nonpayable",
      "type": "function"
    },
    {
      "inputs": [
        {
          "internalType": "uint256",
          "name": "_from",
          "type": "uint256"
        },
        {
          "internalType": "uint256",
          "name": "_to",
          "type": "uint256"
        }
      ],
      "name": "getMultiplier",
      "outputs": [
        {
          "internalType": "uint256",
          "name": "",
          "type": "uint256"
        }
      ],
      "stateMutability": "pure",
      "type": "function"
    },
    {
      "inputs": [
        {
          "internalType": "uint256",
          "name": "blockNumber",
          "type": "uint256"
        }
      ],
      "name": "getPastTotalSupply",
      "outputs": [
        {
          "internalType": "uint256",
          "name": "",
          "type": "uint256"
        }
      ],
      "stateMutability": "view",
      "type": "function"
    },
    {
      "inputs": [
        {
          "internalType": "address",
          "name": "account",
          "type": "address"
        },
        {
          "internalType": "uint256",
          "name": "blockNumber",
          "type": "uint256"
        }
      ],
      "name": "getPastVotes",
      "outputs": [
        {
          "internalType": "uint256",
          "name": "",
          "type": "uint256"
        }
      ],
      "stateMutability": "view",
      "type": "function"
    },
    {
      "inputs": [
        {
          "internalType": "address",
          "name": "account",
          "type": "address"
        }
      ],
      "name": "getVotes",
      "outputs": [
        {
          "internalType": "uint256",
          "name": "",
          "type": "uint256"
        }
      ],
      "stateMutability": "view",
      "type": "function"
    },
    {
      "inputs": [
        {
          "internalType": "uint256",
          "name": "",
          "type": "uint256"
        },
        {
          "internalType": "uint256",
          "name": "",
          "type": "uint256"
        }
      ],
      "name": "highestStakerInPool",
      "outputs": [
        {
          "internalType": "uint256",
          "name": "deposited",
          "type": "uint256"
        },
        {
          "internalType": "address",
          "name": "addr",
          "type": "address"
        }
      ],
      "stateMutability": "view",
      "type": "function"
    },
    {
      "inputs": [
        {
          "internalType": "address",
          "name": "spender",
          "type": "address"
        },
        {
          "internalType": "uint256",
          "name": "addedValue",
          "type": "uint256"
        }
      ],
      "name": "increaseAllowance",
      "outputs": [
        {
          "internalType": "bool",
          "name": "",
          "type": "bool"
        }
      ],
      "stateMutability": "nonpayable",
      "type": "function"
    },
    {
      "inputs": [
        {
          "internalType": "contract IERC20Upgradeable",
          "name": "_cult",
          "type": "address"
        },
        {
          "internalType": "address",
          "name": "_adminAddress",
          "type": "address"
        },
        {
          "internalType": "uint256",
          "name": "_startBlock",
          "type": "uint256"
        },
        {
          "internalType": "uint256",
          "name": "_topStakerNumber",
          "type": "uint256"
        }
      ],
      "name": "initialize",
      "outputs": [],
      "stateMutability": "nonpayable",
      "type": "function"
    },
    {
      "inputs": [],
      "name": "massUpdatePools",
      "outputs": [],
      "stateMutability": "nonpayable",
      "type": "function"
    },
    {
      "inputs": [],
      "name": "name",
      "outputs": [
        {
          "internalType": "string",
          "name": "",
          "type": "string"
        }
      ],
      "stateMutability": "view",
      "type": "function"
    },
    {
      "inputs": [
        {
          "internalType": "address",
          "name": "owner",
          "type": "address"
        }
      ],
      "name": "nonces",
      "outputs": [
        {
          "internalType": "uint256",
          "name": "",
          "type": "uint256"
        }
      ],
      "stateMutability": "view",
      "type": "function"
    },
    {
      "inputs": [
        {
          "internalType": "address",
          "name": "account",
          "type": "address"
        }
      ],
      "name": "numCheckpoints",
      "outputs": [
        {
          "internalType": "uint32",
          "name": "",
          "type": "uint32"
        }
      ],
      "stateMutability": "view",
      "type": "function"
    },
    {
      "inputs": [],
      "name": "owner",
      "outputs": [
        {
          "internalType": "address",
          "name": "",
          "type": "address"
        }
      ],
      "stateMutability": "view",
      "type": "function"
    },
    {
      "inputs": [],
      "name": "paused",
      "outputs": [
        {
          "internalType": "bool",
          "name": "",
          "type": "bool"
        }
      ],
      "stateMutability": "view",
      "type": "function"
    },
    {
      "inputs": [
        {
          "internalType": "uint256",
          "name": "_pid",
          "type": "uint256"
        },
        {
          "internalType": "address",
          "name": "_user",
          "type": "address"
        }
      ],
      "name": "pendingCULT",
      "outputs": [
        {
          "internalType": "uint256",
          "name": "",
          "type": "uint256"
        }
      ],
      "stateMutability": "view",
      "type": "function"
    },
    {
      "inputs": [
        {
          "internalType": "address",
          "name": "owner",
          "type": "address"
        },
        {
          "internalType": "address",
          "name": "spender",
          "type": "address"
        },
        {
          "internalType": "uint256",
          "name": "value",
          "type": "uint256"
        },
        {
          "internalType": "uint256",
          "name": "deadline",
          "type": "uint256"
        },
        {
          "internalType": "uint8",
          "name": "v",
          "type": "uint8"
        },
        {
          "internalType": "bytes32",
          "name": "r",
          "type": "bytes32"
        },
        {
          "internalType": "bytes32",
          "name": "s",
          "type": "bytes32"
        }
      ],
      "name": "permit",
      "outputs": [],
      "stateMutability": "nonpayable",
      "type": "function"
    },
    {
      "inputs": [
        {
          "internalType": "uint256",
          "name": "",
          "type": "uint256"
        }
      ],
      "name": "poolInfo",
      "outputs": [
        {
          "internalType": "contract IERC20Upgradeable",
          "name": "lpToken",
          "type": "address"
        },
        {
          "internalType": "uint256",
          "name": "allocPoint",
          "type": "uint256"
        },
        {
          "internalType": "uint256",
          "name": "lastRewardBlock",
          "type": "uint256"
        },
        {
          "internalType": "uint256",
          "name": "accCULTPerShare",
          "type": "uint256"
        },
        {
          "internalType": "uint256",
          "name": "lastTotalCULTReward",
          "type": "uint256"
        },
        {
          "internalType": "uint256",
          "name": "lastCULTRewardBalance",
          "type": "uint256"
        },
        {
          "internalType": "uint256",
          "name": "totalCULTReward",
          "type": "uint256"
        }
      ],
      "stateMutability": "view",
      "type": "function"
    },
    {
      "inputs": [],
      "name": "poolLength",
      "outputs": [
        {
          "internalType": "uint256",
          "name": "",
          "type": "uint256"
        }
      ],
      "stateMutability": "view",
      "type": "function"
    },
    {
      "inputs": [],
      "name": "renounceOwnership",
      "outputs": [],
      "stateMutability": "nonpayable",
      "type": "function"
    },
    {
      "inputs": [
        {
          "internalType": "uint256",
          "name": "_pid",
          "type": "uint256"
        },
        {
          "internalType": "uint256",
          "name": "_allocPoint",
          "type": "uint256"
        },
        {
          "internalType": "bool",
          "name": "_withUpdate",
          "type": "bool"
        }
      ],
      "name": "set",
      "outputs": [],
      "stateMutability": "nonpayable",
      "type": "function"
    },
    {
      "inputs": [],
      "name": "startBlock",
      "outputs": [
        {
          "internalType": "uint256",
          "name": "",
          "type": "uint256"
        }
      ],
      "stateMutability": "view",
      "type": "function"
    },
    {
      "inputs": [],
      "name": "symbol",
      "outputs": [
        {
          "internalType": "string",
          "name": "",
          "type": "string"
        }
      ],
      "stateMutability": "view",
      "type": "function"
    },
    {
      "inputs": [],
      "name": "topStakerNumber",
      "outputs": [
        {
          "internalType": "uint256",
          "name": "",
          "type": "uint256"
        }
      ],
      "stateMutability": "view",
      "type": "function"
    },
    {
      "inputs": [],
      "name": "totalAllocPoint",
      "outputs": [
        {
          "internalType": "uint256",
          "name": "",
          "type": "uint256"
        }
      ],
      "stateMutability": "view",
      "type": "function"
    },
    {
      "inputs": [],
      "name": "totalCULTStaked",
      "outputs": [
        {
          "internalType": "uint256",
          "name": "",
          "type": "uint256"
        }
      ],
      "stateMutability": "view",
      "type": "function"
    },
    {
      "inputs": [],
      "name": "totalCultUsedForPurchase",
      "outputs": [
        {
          "internalType": "uint256",
          "name": "",
          "type": "uint256"
        }
      ],
      "stateMutability": "view",
      "type": "function"
    },
    {
      "inputs": [],
      "name": "totalSupply",
      "outputs": [
        {
          "internalType": "uint256",
          "name": "",
          "type": "uint256"
        }
      ],
      "stateMutability": "view",
      "type": "function"
    },
    {
      "inputs": [
        {
          "internalType": "address",
          "name": "recipient",
          "type": "address"
        },
        {
          "internalType": "uint256",
          "name": "amount",
          "type": "uint256"
        }
      ],
      "name": "transfer",
      "outputs": [
        {
          "internalType": "bool",
          "name": "",
          "type": "bool"
        }
      ],
      "stateMutability": "nonpayable",
      "type": "function"
    },
    {
      "inputs": [
        {
          "internalType": "address",
          "name": "sender",
          "type": "address"
        },
        {
          "internalType": "address",
          "name": "recipient",
          "type": "address"
        },
        {
          "internalType": "uint256",
          "name": "amount",
          "type": "uint256"
        }
      ],
      "name": "transferFrom",
      "outputs": [
        {
          "internalType": "bool",
          "name": "",
          "type": "bool"
        }
      ],
      "stateMutability": "nonpayable",
      "type": "function"
    },
    {
      "inputs": [
        {
          "internalType": "address",
          "name": "newOwner",
          "type": "address"
        }
      ],
      "name": "transferOwnership",
      "outputs": [],
      "stateMutability": "nonpayable",
      "type": "function"
    },
    {
      "inputs": [
        {
          "internalType": "uint256",
          "name": "_pid",
          "type": "uint256"
        }
      ],
      "name": "updatePool",
      "outputs": [],
      "stateMutability": "nonpayable",
      "type": "function"
    },
    {
      "inputs": [
        {
          "internalType": "address",
          "name": "newImplementation",
          "type": "address"
        }
      ],
      "name": "upgradeTo",
      "outputs": [],
      "stateMutability": "nonpayable",
      "type": "function"
    },
    {
      "inputs": [
        {
          "internalType": "address",
          "name": "newImplementation",
          "type": "address"
        },
        {
          "internalType": "bytes",
          "name": "data",
          "type": "bytes"
        }
      ],
      "name": "upgradeToAndCall",
      "outputs": [],
      "stateMutability": "payable",
      "type": "function"
    },
    {
      "inputs": [
        {
          "internalType": "uint256",
          "name": "",
          "type": "uint256"
        },
        {
          "internalType": "address",
          "name": "",
          "type": "address"
        }
      ],
      "name": "userInfo",
      "outputs": [
        {
          "internalType": "uint256",
          "name": "amount",
          "type": "uint256"
        },
        {
          "internalType": "uint256",
          "name": "rewardDebt",
          "type": "uint256"
        },
        {
          "internalType": "uint256",
          "name": "rewardCULTDebt",
          "type": "uint256"
        }
      ],
      "stateMutability": "view",
      "type": "function"
    },
    {
      "inputs": [
        {
          "internalType": "uint256",
          "name": "_pid",
          "type": "uint256"
        },
        {
          "internalType": "uint256",
          "name": "_amount",
          "type": "uint256"
        }
      ],
      "name": "withdraw",
      "outputs": [],
      "stateMutability": "nonpayable",
      "type": "function"
    }
  ],
  "bytecode": "0x60a06040523060601b60805234801561001757600080fd5b5060805160601c614d4a61004b60003960008181610fdf0152818161101f0152818161130a015261134a0152614d4a6000f3fe6080604052600436106103355760003560e01c80636f10947c116101ab578063a1bd8105116100f7578063e2bbb15811610095578063f2fde38b1161006f578063f2fde38b14610a26578063f9dea75b14610a46578063fc6f946814610a66578063ff793c2514610a8757610335565b8063e2bbb1581461099c578063eb990c59146109bc578063f1127ed8146109dc57610335565b8063c3cda520116100d1578063c3cda520146108f6578063d505accf14610916578063dc3cc64514610936578063dd62ed3e1461095657610335565b8063a1bd810514610895578063a457c2d7146108b6578063a9059cbb146108d657610335565b80638aa28550116101645780638e539e8c1161013e5780638e539e8c146107dd57806393f1a40b146107fd57806395d89b41146108605780639ab24eb01461087557610335565b80638aa28550146107895780638da5cb5b1461079e5780638dbb1e3a146107bd57610335565b80636f10947c146106b15780636fcfff45146106c857806370a08231146106fd57806370ab41ad14610733578063715018a6146107545780637ecebe001461076957610335565b80633950935111610285578063587cde1e11610223578063630b5ba1116101fd578063630b5ba11461063c57806363a846f81461065157806364482f79146106715780636e2e2d731461069157610335565b8063587cde1e146105cb5780635c19a95c146106035780635c975abb1461062357610335565b806348cd4cb11161025f57806348cd4cb11461056a5780634f0ba4e6146105815780634f1ef2861461059857806351eb05a6146105ab57610335565b8063395093511461050a5780633a46b1a81461052a578063441a3e701461054a57610335565b80631a504af3116102f25780632a36a42f116102cc5780632a36a42f146104a2578063313ce567146104b95780633644e515146104d55780633659cfe6146104ea57610335565b80631a504af3146104405780631eaaa0451461046257806323b872dd1461048257610335565b806306fdde031461033a578063081e3eda14610365578063095ea7b3146103855780631526fe27146103b557806317caf6f11461041457806318160ddd1461042b575b600080fd5b34801561034657600080fd5b5061034f610ac4565b60405161035c9190614a52565b60405180910390f35b34801561037157600080fd5b506101cb545b60405190815260200161035c565b34801561039157600080fd5b506103a56103a0366004614813565b610b56565b604051901515815260200161035c565b3480156103c157600080fd5b506103d56103d036600461492d565b610b6d565b604080516001600160a01b0390981688526020880196909652948601939093526060850191909152608084015260a083015260c082015260e00161035c565b34801561042057600080fd5b506103776101cd5481565b34801561043757600080fd5b50609954610377565b34801561044c57600080fd5b5061046061045b36600461492d565b610bc7565b005b34801561046e57600080fd5b5061046061047d3660046149a7565b610d35565b34801561048e57600080fd5b506103a561049d3660046146a7565b610f19565b3480156104ae57600080fd5b506103776101d05481565b3480156104c557600080fd5b506040516012815260200161035c565b3480156104e157600080fd5b50610377610fc5565b3480156104f657600080fd5b50610460610505366004614653565b610fd4565b34801561051657600080fd5b506103a5610525366004614813565b61109d565b34801561053657600080fd5b50610377610545366004614813565b6110d9565b34801561055657600080fd5b506104606105653660046149e8565b61114d565b34801561057657600080fd5b506103776101ce5481565b34801561058d57600080fd5b506103776101cf5481565b6104606105a6366004614754565b6112ff565b3480156105b757600080fd5b506104606105c636600461492d565b6113b9565b3480156105d757600080fd5b506105eb6105e6366004614653565b611500565b6040516001600160a01b03909116815260200161035c565b34801561060f57600080fd5b5061046061061e366004614653565b611522565b34801561062f57600080fd5b506101945460ff166103a5565b34801561064857600080fd5b5061046061152c565b34801561065d57600080fd5b5061046061066c366004614653565b611554565b34801561067d57600080fd5b5061046061068c366004614a09565b61163e565b34801561069d57600080fd5b506103a56106ac36600461495d565b61170e565b3480156106bd57600080fd5b506103776101ca5481565b3480156106d457600080fd5b506106e86106e3366004614653565b61179a565b60405163ffffffff909116815260200161035c565b34801561070957600080fd5b50610377610718366004614653565b6001600160a01b031660009081526097602052604090205490565b34801561073f57600080fd5b506101c8546105eb906001600160a01b031681565b34801561076057600080fd5b506104606117bd565b34801561077557600080fd5b50610377610784366004614653565b6117f4565b34801561079557600080fd5b50610377600181565b3480156107aa57600080fd5b50610162546001600160a01b03166105eb565b3480156107c957600080fd5b506103776107d83660046149e8565b611812565b3480156107e957600080fd5b506103776107f836600461492d565b611841565b34801561080957600080fd5b5061084561081836600461495d565b6101cc60209081526000928352604080842090915290825290208054600182015460029092015490919083565b6040805193845260208401929092529082015260600161035c565b34801561086c57600080fd5b5061034f61189e565b34801561088157600080fd5b50610377610890366004614653565b6118ad565b3480156108a157600080fd5b506101c6546105eb906001600160a01b031681565b3480156108c257600080fd5b506103a56108d1366004614813565b611944565b3480156108e257600080fd5b506103a56108f1366004614813565b6119dd565b34801561090257600080fd5b5061046061091136600461483e565b6119ea565b34801561092257600080fd5b506104606109313660046146e7565b611b20565b34801561094257600080fd5b50610460610951366004614981565b611c66565b34801561096257600080fd5b5061037761097136600461466f565b6001600160a01b03918216600090815260986020908152604080832093909416825291909152205490565b3480156109a857600080fd5b506104606109b73660046149e8565b611faf565b3480156109c857600080fd5b506104606109d73660046148e8565b612122565b3480156109e857600080fd5b506109fc6109f7366004614897565b612300565b60408051825163ffffffff1681526020928301516001600160e01b0316928101929092520161035c565b348015610a3257600080fd5b50610460610a41366004614653565b612393565b348015610a5257600080fd5b50610377610a6136600461495d565b61242c565b348015610a7257600080fd5b506101c9546105eb906001600160a01b031681565b348015610a9357600080fd5b50610aa7610aa23660046149e8565b612566565b604080519283526001600160a01b0390911660208301520161035c565b6060609a8054610ad390614c4e565b80601f0160208091040260200160405190810160405280929190818152602001828054610aff90614c4e565b8015610b4c5780601f10610b2157610100808354040283529160200191610b4c565b820191906000526020600020905b815481529060010190602001808311610b2f57829003601f168201915b5050505050905090565b6000610b633384846125ac565b5060015b92915050565b6101cb8181548110610b7e57600080fd5b600091825260209091206007909102018054600182015460028301546003840154600485015460058601546006909601546001600160a01b039095169650929491939092919087565b60006101cb8281548110610beb57634e487b7160e01b600052603260045260246000fd5b600091825260208083208584526101cc82526040808520338652909252922060079091029091019150610c1d836113b9565b6000610c578260020154610c5164e8d4a51000610c4b876003015487600001546126d090919063ffffffff16565b906126dc565b906126e8565b8354909150610c70906001600160a01b031633836126f4565b610d07610c8c6101d0546101cf546126e890919063ffffffff16565b84546040516370a0823160e01b81523060048201526001600160a01b03909116906370a08231906024015b60206040518083038186803b158015610ccf57600080fd5b505afa158015610ce3573d6000803e3d6000fd5b505050506040513d601f19601f82011682018060405250810190610c519190614945565b600584015560038301548254610d279164e8d4a5100091610c4b916126d0565b826002018190555050505050565b610162546001600160a01b03163314610d695760405162461bcd60e51b8152600401610d6090614b1d565b60405180910390fd5b8015610d7757610d7761152c565b60006101ce544311610d8c576101ce54610d8e565b435b6101cd54909150610d9f908561275c565b6101cd556040805160e0810182526001600160a01b039485168152602081019586529081019182526000606082018181526080830182815260a0840183815260c085018481526101cb8054600181018255955294517fe8bbfecd380c4167d6a1f763a233ec73e73f534b1970c4e1683f437ec23c1f44600790950294850180546001600160a01b031916919099161790975596517fe8bbfecd380c4167d6a1f763a233ec73e73f534b1970c4e1683f437ec23c1f4583015592517fe8bbfecd380c4167d6a1f763a233ec73e73f534b1970c4e1683f437ec23c1f4682015591517fe8bbfecd380c4167d6a1f763a233ec73e73f534b1970c4e1683f437ec23c1f4783015593517fe8bbfecd380c4167d6a1f763a233ec73e73f534b1970c4e1683f437ec23c1f4882015591517fe8bbfecd380c4167d6a1f763a233ec73e73f534b1970c4e1683f437ec23c1f498301555090517fe8bbfecd380c4167d6a1f763a233ec73e73f534b1970c4e1683f437ec23c1f4a90910155565b6000610f26848484612768565b6001600160a01b038416600090815260986020908152604080832033845290915290205482811015610fab5760405162461bcd60e51b815260206004820152602860248201527f45524332303a207472616e7366657220616d6f756e74206578636565647320616044820152676c6c6f77616e636560c01b6064820152608401610d60565b610fb885338584036125ac565b60019150505b9392505050565b6000610fcf61294d565b905090565b306001600160a01b037f000000000000000000000000000000000000000000000000000000000000000016141561101d5760405162461bcd60e51b8152600401610d6090614a85565b7f00000000000000000000000000000000000000000000000000000000000000006001600160a01b031661104f6129c8565b6001600160a01b0316146110755760405162461bcd60e51b8152600401610d6090614ad1565b61107e816129f6565b6040805160008082526020820190925261109a91839190612a6e565b50565b3360008181526098602090815260408083206001600160a01b03871684529091528120549091610b639185906110d4908690614b9d565b6125ac565b600043821061112a5760405162461bcd60e51b815260206004820152601f60248201527f4552433230566f7465733a20626c6f636b206e6f7420796574206d696e6564006044820152606401610d60565b6001600160a01b038316600090815261013160205260409020610fbe9083612bb2565b60006101cb838154811061117157634e487b7160e01b600052603260045260246000fd5b600091825260208083208684526101cc8252604080852033865290925292208054600790920290920192508311156111e05760405162461bcd60e51b81526020600482015260126024820152711dda5d1a191c985dce881b9bdd0819dbdbd960721b6044820152606401610d60565b6111e9846113b9565b60006112178260020154610c5164e8d4a51000610c4b876003015487600001546126d090919063ffffffff16565b8354909150611230906001600160a01b031633836126f4565b61124c610c8c6101d0546101cf546126e890919063ffffffff16565b6005840155815461125d90856126e8565b82556101cf5461126d90856126e8565b6101cf556003830154825461128c9164e8d4a5100091610c4b916126d0565b600283015582546112a7906001600160a01b031633866126f4565b6112b685836000015433612c8b565b6112c03385612d5f565b604051848152859033907ff279e6a1f5e320cca91135676d9cb6e44ca8a08c0b88342bcdb1144f6511b568906020015b60405180910390a35050505050565b306001600160a01b037f00000000000000000000000000000000000000000000000000000000000000001614156113485760405162461bcd60e51b8152600401610d6090614a85565b7f00000000000000000000000000000000000000000000000000000000000000006001600160a01b031661137a6129c8565b6001600160a01b0316146113a05760405162461bcd60e51b8152600401610d6090614ad1565b6113a9826129f6565b6113b582826001612a6e565b5050565b60006101cb82815481106113dd57634e487b7160e01b600052603260045260246000fd5b600091825260208083208584526101cc8252604080852033865290925292206002600790920290920190810154909250431161141a57505061109a565b6000611438610c8c6101d0546101cf546126e890919063ffffffff16565b905060006114616114568560050154846126e890919063ffffffff16565b60068601549061275c565b60058501839055600685018190556101cf54909150806114af57505043600280850191909155600060038501819055600485018190559201829055506005820181905560069091015561109a565b60006114c88660040154846126e890919063ffffffff16565b90506114eb6114e083610c4b8464e8d4a510006126d0565b60038801549061275c565b60038701555050600490930192909255505050565b6001600160a01b0380821660009081526101306020526040902054165b919050565b61109a3382612d69565b6101cb5460005b818110156113b557611544816113b9565b61154d81614c83565b9050611533565b6001600160a01b0381166115a05760405162461bcd60e51b815260206004820152601360248201527261646d696e3a205a65726f206164647265737360681b6044820152606401610d60565b6101c9546001600160a01b031633146115e95760405162461bcd60e51b815260206004820152600b60248201526a61646d696e3a207775743f60a81b6044820152606401610d60565b6101c980546001600160a01b0319166001600160a01b0383169081179091556040519081527f54e4612788f90384e6843298d7854436f3a585b2c3831ab66abf1de63bfa6c2d9060200160405180910390a150565b610162546001600160a01b031633146116695760405162461bcd60e51b8152600401610d6090614b1d565b80156116775761167761152c565b6116ca826116c46101cb86815481106116a057634e487b7160e01b600052603260045260246000fd5b9060005260206000209060070201600101546101cd546126e890919063ffffffff16565b9061275c565b6101cd81905550816101cb84815481106116f457634e487b7160e01b600052603260045260246000fd5b906000526020600020906007020160010181905550505050565b60008281526101c760205260408120815b815481101561179257836001600160a01b031682828154811061175257634e487b7160e01b600052603260045260246000fd5b60009182526020909120600160029092020101546001600160a01b0316141561178057600192505050610b67565b8061178a81614c83565b91505061171f565b505092915050565b6001600160a01b03811660009081526101316020526040812054610b6790612dcb565b610162546001600160a01b031633146117e85760405162461bcd60e51b8152600401610d6090614b1d565b6117f26000612e34565b565b6001600160a01b038116600090815260fd6020526040812054610b67565b600082821061183757611830600161182a84866126e8565b906126d0565b9050610b67565b61183083836126e8565b60004382106118925760405162461bcd60e51b815260206004820152601f60248201527f4552433230566f7465733a20626c6f636b206e6f7420796574206d696e6564006044820152606401610d60565b610b6761013283612bb2565b6060609b8054610ad390614c4e565b6001600160a01b038116600090815261013160205260408120548015611931576001600160a01b0383166000908152610131602052604090206118f1600183614bf4565b8154811061190f57634e487b7160e01b600052603260045260246000fd5b60009182526020909120015464010000000090046001600160e01b0316611934565b60005b6001600160e01b03169392505050565b3360009081526098602090815260408083206001600160a01b0386168452909152812054828110156119c65760405162461bcd60e51b815260206004820152602560248201527f45524332303a2064656372656173656420616c6c6f77616e63652062656c6f77604482015264207a65726f60d81b6064820152608401610d60565b6119d333858584036125ac565b5060019392505050565b6000610b63338484612768565b83421115611a3a5760405162461bcd60e51b815260206004820152601d60248201527f4552433230566f7465733a207369676e617475726520657870697265640000006044820152606401610d60565b604080517fe48329057bfd03d55e49b547132e39cffd9c1820ad7b9d4c5307691425d15adf60208201526001600160a01b038816918101919091526060810186905260808101859052600090611ab490611aac9060a00160405160208183030381529060405280519060200120612e87565b858585612ed5565b9050611abf81612efd565b8614611b0d5760405162461bcd60e51b815260206004820152601960248201527f4552433230566f7465733a20696e76616c6964206e6f6e6365000000000000006044820152606401610d60565b611b178188612d69565b50505050505050565b83421115611b705760405162461bcd60e51b815260206004820152601d60248201527f45524332305065726d69743a206578706972656420646561646c696e650000006044820152606401610d60565b600060fe54888888611b818c612efd565b6040805160208101969096526001600160a01b0394851690860152929091166060840152608083015260a082015260c0810186905260e0016040516020818303038152906040528051906020012090506000611bdc82612e87565b90506000611bec82878787612ed5565b9050896001600160a01b0316816001600160a01b031614611c4f5760405162461bcd60e51b815260206004820152601e60248201527f45524332305065726d69743a20696e76616c6964207369676e617475726500006044820152606401610d60565b611c5a8a8a8a6125ac565b50505050505050505050565b6101c9546001600160a01b03163314611cc15760405162461bcd60e51b815260206004820152601c60248201527f73656e646572206d7573742062652061646d696e2061646472657373000000006044820152606401610d60565b80611cdb6101d0546101cf546126e890919063ffffffff16565b1015611d3d5760405162461bcd60e51b815260206004820152602b60248201527f416d6f756e74206d757374206265206c657373207468616e207374616b65642060448201526a10d5531508185b5bdd5b9d60aa1b6064820152608401610d60565b60006101cb8481548110611d6157634e487b7160e01b600052603260045260246000fd5b6000918252602082206007919091020180546040516370a0823160e01b81523060048201529193506001600160a01b0316906370a082319060240160206040518083038186803b158015611db457600080fd5b505afa158015611dc8573d6000803e3d6000fd5b505050506040513d601f19601f82011682018060405250810190611dec9190614945565b905080831115611ed357815460405163a9059cbb60e01b81526001600160a01b038681166004830152602482018490529091169063a9059cbb90604401602060405180830381600087803b158015611e4357600080fd5b505af1158015611e57573d6000803e3d6000fd5b505050506040513d601f19601f82011682018060405250810190611e7b91906148cc565b506101d054611e8a908261275c565b6101d05560405181815285906001600160a01b038616907fbb757047c2b5f3974fe26b7c10f732e7bce710b0952a71082702781e62ae05959060200160405180910390a3611fa8565b815460405163a9059cbb60e01b81526001600160a01b038681166004830152602482018690529091169063a9059cbb90604401602060405180830381600087803b158015611f2057600080fd5b505af1158015611f34573d6000803e3d6000fd5b505050506040513d601f19601f82011682018060405250810190611f5891906148cc565b506101d054611f67908461275c565b6101d05560405183815285906001600160a01b038616907fbb757047c2b5f3974fe26b7c10f732e7bce710b0952a71082702781e62ae0595906020016112f0565b5050505050565b60006101cb8381548110611fd357634e487b7160e01b600052603260045260246000fd5b600091825260208083208684526101cc82526040808520338652909252922060079091029091019150612005846113b9565b80541561207657600061203a8260020154610c5164e8d4a51000610c4b876003015487600001546126d090919063ffffffff16565b8354909150612053906001600160a01b031633836126f4565b61206f610c8c6101d0546101cf546126e890919063ffffffff16565b6005840155505b815461208d906001600160a01b0316333086612f25565b6101cf5461209b908461275c565b6101cf5580546120ab908461275c565b80825560038301546120c89164e8d4a5100091610c4b91906126d0565b600282015580546120db90859033612f5d565b6120e5338461316c565b604051838152849033907f90890809c654f11d6e72a28fa60149770a0d11ec6c92319d6ceb2bb0a4ea1a159060200160405180910390a350505050565b600054610100900460ff1661213d5760005460ff1615612141565b303b155b6121a45760405162461bcd60e51b815260206004820152602e60248201527f496e697469616c697a61626c653a20636f6e747261637420697320616c72656160448201526d191e481a5b9a5d1a585b1a5e995960921b6064820152608401610d60565b600054610100900460ff161580156121cf576000805460ff1961ff0019909116610100171660011790555b6001600160a01b0384166122255760405162461bcd60e51b815260206004820152601860248201527f696e697469616c697a653a205a65726f206164647265737300000000000000006044820152606401610d60565b61222d613176565b61227360405180604001604052806006815260200165645245414c4d60d01b81525060405180604001604052806006815260200165645245414c4d60d01b8152506131ad565b61227b6131fb565b6122a260405180604001604052806006815260200165645245414c4d60d01b81525061322f565b6122aa61328a565b6101c880546001600160a01b038088166001600160a01b0319928316179092556101c98054928716929091169190911790556101ce8390556101ca8290558015611fa8576000805461ff00191690555050505050565b60408051808201909152600080825260208201526001600160a01b038316600090815261013160205260409020805463ffffffff841690811061235357634e487b7160e01b600052603260045260246000fd5b60009182526020918290206040805180820190915291015463ffffffff8116825264010000000090046001600160e01b0316918101919091529392505050565b610162546001600160a01b031633146123be5760405162461bcd60e51b8152600401610d6090614b1d565b6001600160a01b0381166124235760405162461bcd60e51b815260206004820152602660248201527f4f776e61626c653a206e6577206f776e657220697320746865207a65726f206160448201526564647265737360d01b6064820152608401610d60565b61109a81612e34565b6000806101cb848154811061245157634e487b7160e01b600052603260045260246000fd5b600091825260208083208784526101cc825260408085206001600160a01b0389168652909252922060036007909202909201908101546101cf5460028301549294509091431180156124a257508015155b156125335760006124f46124c56101d0546101cf546126e890919063ffffffff16565b86546040516370a0823160e01b81523060048201526001600160a01b03909116906370a0823190602401610cb7565b9050600061250f8660050154836126e890919063ffffffff16565b905061252e61252784610c4b8464e8d4a510006126d0565b859061275c565b935050505b61255b8360020154610c5164e8d4a51000610c4b8688600001546126d090919063ffffffff16565b979650505050505050565b6101c7602052816000526040600020818154811061258357600080fd5b6000918252602090912060029091020180546001909101549092506001600160a01b0316905082565b6001600160a01b03831661260e5760405162461bcd60e51b8152602060048201526024808201527f45524332303a20617070726f76652066726f6d20746865207a65726f206164646044820152637265737360e01b6064820152608401610d60565b6001600160a01b03821661266f5760405162461bcd60e51b815260206004820152602260248201527f45524332303a20617070726f766520746f20746865207a65726f206164647265604482015261737360f01b6064820152608401610d60565b6001600160a01b0383811660008181526098602090815260408083209487168084529482529182902085905590518481527f8c5be1e5ebec7d5bd14f71427d1e84f3dd0314c0f7b2291e5b200ac8c7c3b925910160405180910390a3505050565b6000610fbe8284614bd5565b6000610fbe8284614bb5565b6000610fbe8284614bf4565b6040516001600160a01b03831660248201526044810182905261275790849063a9059cbb60e01b906064015b60408051601f198184030181529190526020810180516001600160e01b03166001600160e01b0319909316929092179091526132b1565b505050565b6000610fbe8284614b9d565b6001600160a01b0383166127cc5760405162461bcd60e51b815260206004820152602560248201527f45524332303a207472616e736665722066726f6d20746865207a65726f206164604482015264647265737360d81b6064820152608401610d60565b6001600160a01b03821661282e5760405162461bcd60e51b815260206004820152602360248201527f45524332303a207472616e7366657220746f20746865207a65726f206164647260448201526265737360e81b6064820152608401610d60565b612839838383613383565b6001600160a01b038316600090815260976020526040902054818110156128b15760405162461bcd60e51b815260206004820152602660248201527f45524332303a207472616e7366657220616d6f756e7420657863656564732062604482015265616c616e636560d01b6064820152608401610d60565b6001600160a01b038085166000908152609760205260408082208585039055918516815290812080548492906128e8908490614b9d565b92505081905550826001600160a01b0316846001600160a01b03167fddf252ad1be2c89b69c2b068fc378daa952ba7f163c4a11628f55a4df523b3ef8460405161293491815260200190565b60405180910390a36129478484846133eb565b50505050565b6000610fcf7f8b73c3c69bb8fe3d512ecc4cf759cc79239f7b179b0ffacaa9a75d522b39400f61297c60c95490565b60ca546040805160208101859052908101839052606081018290524660808201523060a082015260009060c0016040516020818303038152906040528051906020012090509392505050565b7f360894a13ba1a3210667c828492db98dca3e2076cc3735a920a3ca505d382bbc546001600160a01b031690565b33612a0a610162546001600160a01b031690565b6001600160a01b03161461109a5760405162461bcd60e51b815260206004820152602560248201527f4f6e6c79206f776e65722063616e207570677261646520696d706c656d656e7460448201526430ba34b7b760d91b6064820152608401610d60565b6000612a786129c8565b9050612a83846133f6565b600083511180612a905750815b15612aa157612a9f848461349b565b505b7f4910fdfa16fed3260ed0e7147f7cc6da11a60208b5b9406d12a635614ffd9143805460ff16611fa857805460ff191660011781556040516001600160a01b0383166024820152612b2090869060440160408051601f198184030181529190526020810180516001600160e01b0316631b2ce7f360e11b17905261349b565b50805460ff19168155612b316129c8565b6001600160a01b0316826001600160a01b031614612ba95760405162461bcd60e51b815260206004820152602f60248201527f45524331393637557067726164653a207570677261646520627265616b73206660448201526e75727468657220757067726164657360881b6064820152608401610d60565b611fa885613586565b8154600090815b81811015612c24576000612bcd82846135c6565b905084868281548110612bf057634e487b7160e01b600052603260045260246000fd5b60009182526020909120015463ffffffff161115612c1057809250612c1e565b612c1b816001614b9d565b91505b50612bb9565b8115612c765784612c36600184614bf4565b81548110612c5457634e487b7160e01b600052603260045260246000fd5b60009182526020909120015464010000000090046001600160e01b0316612c79565b60005b6001600160e01b031695945050505050565b60008381526101c760205260408120905b8154811015611fa857826001600160a01b0316828281548110612ccf57634e487b7160e01b600052603260045260246000fd5b60009182526020909120600160029092020101546001600160a01b03161415612d4d57818181548110612d1257634e487b7160e01b600052603260045260246000fd5b60009182526020822060029091020190815560010180546001600160a01b03191690558315612d4657612d46858585612f5d565b5050612757565b80612d5781614c83565b915050612c9c565b6113b582826135e1565b612d7460008361170e565b15612dc15760405162461bcd60e51b815260206004820152601a60248201527f546f70207374616b65722063616e6e6f742064656c65676174650000000000006044820152606401610d60565b6113b582826135fa565b600063ffffffff821115612e305760405162461bcd60e51b815260206004820152602660248201527f53616665436173743a2076616c756520646f65736e27742066697420696e203360448201526532206269747360d01b6064820152608401610d60565b5090565b61016280546001600160a01b038381166001600160a01b0319831681179093556040519116919082907f8be0079c531659141344cd1fd0a4f28419497f9722a3daafe3b4186f6b6457e090600090a35050565b6000610b67612e9461294d565b8360405161190160f01b6020820152602281018390526042810182905260009060620160405160208183030381529060405280519060200120905092915050565b6000806000612ee687878787613691565b91509150612ef38161377e565b5095945050505050565b6001600160a01b038116600090815260fd602052604090208054600181018255905b50919050565b6040516001600160a01b03808516602483015283166044820152606481018290526129479085906323b872dd60e01b90608401612720565b60008381526101c7602052604081205b805482101561302257826001600160a01b0316818381548110612fa057634e487b7160e01b600052603260045260246000fd5b60009182526020909120600160029092020101546001600160a01b031614156130105783818381548110612fe457634e487b7160e01b600052603260045260246000fd5b600091825260208220600290910201919091558154612d4691879161300b90600190614bf4565b613981565b8161301a81614c83565b925050612f6d565b6101ca548154101561308c57604080518082019091528481526001600160a01b038481166020808401918252845460018082018755600087815292909220945160029091029094019384559051920180546001600160a01b03191692909116919091179055613155565b83816000815481106130ae57634e487b7160e01b600052603260045260246000fd5b90600052602060002090600202016000015410156131555783816000815481106130e857634e487b7160e01b600052603260045260246000fd5b906000526020600020906002020160000181905550828160008154811061311f57634e487b7160e01b600052603260045260246000fd5b906000526020600020906002020160010160006101000a8154816001600160a01b0302191690836001600160a01b031602179055505b611fa88560006001848054905061300b9190614bf4565b6113b58282613d33565b600054610100900460ff1661319d5760405162461bcd60e51b8152600401610d6090614b52565b6131a561328a565b6117f2613dbe565b600054610100900460ff166131d45760405162461bcd60e51b8152600401610d6090614b52565b81516131e790609a9060208501906145b2565b50805161275790609b9060208401906145b2565b600054610100900460ff166132225760405162461bcd60e51b8152600401610d6090614b52565b610194805460ff19169055565b600054610100900460ff166132565760405162461bcd60e51b8152600401610d6090614b52565b61325e61328a565b61328181604051806040016040528060018152602001603160f81b815250613dee565b61109a81613e2f565b600054610100900460ff166117f25760405162461bcd60e51b8152600401610d6090614b52565b6000613306826040518060400160405280602081526020017f5361666545524332303a206c6f772d6c6576656c2063616c6c206661696c6564815250856001600160a01b0316613e7d9092919063ffffffff16565b805190915015612757578080602001905181019061332491906148cc565b6127575760405162461bcd60e51b815260206004820152602a60248201527f5361666545524332303a204552433230206f7065726174696f6e20646964206e6044820152691bdd081cdd58d8d9595960b21b6064820152608401610d60565b6001600160a01b03831615806133a057506001600160a01b038216155b156133aa57612757565b60405162461bcd60e51b81526020600482015260166024820152752737b7103a3930b739b332b930b13632903a37b5b2b760511b6044820152606401610d60565b612757838383613e94565b803b61345a5760405162461bcd60e51b815260206004820152602d60248201527f455243313936373a206e657720696d706c656d656e746174696f6e206973206e60448201526c1bdd08184818dbdb9d1c9858dd609a1b6064820152608401610d60565b7f360894a13ba1a3210667c828492db98dca3e2076cc3735a920a3ca505d382bbc80546001600160a01b0319166001600160a01b0392909216919091179055565b6060823b6134fa5760405162461bcd60e51b815260206004820152602660248201527f416464726573733a2064656c65676174652063616c6c20746f206e6f6e2d636f6044820152651b9d1c9858dd60d21b6064820152608401610d60565b600080846001600160a01b0316846040516135159190614a36565b600060405180830381855af49150503d8060008114613550576040519150601f19603f3d011682016040523d82523d6000602084013e613555565b606091505b509150915061357d8282604051806060016040528060278152602001614cee60279139613eaf565b95945050505050565b61358f816133f6565b6040516001600160a01b038216907fbc7cd75a20ee27fd9adebab32041f755214dbc6bffa90cc0225b39da2e5c2d3b90600090a250565b60006135d56002848418614bb5565b610fbe90848416614b9d565b6135eb8282613ee8565b6129476101326126e883614049565b600061360583611500565b90506000613628846001600160a01b031660009081526097602052604090205490565b6001600160a01b038581166000818152610130602052604080822080546001600160a01b031916898616908117909155905194955093928616927f3134e8a2e6d97e929a7e54011ea5485d7d196dd5f0ba4d4ef95803e8e3fc257f9190a46129478284836141fa565b6000807f7fffffffffffffffffffffffffffffff5d576e7357a4501ddfe92f46681b20a08311156136c85750600090506003613775565b8460ff16601b141580156136e057508460ff16601c14155b156136f15750600090506004613775565b6040805160008082526020820180845289905260ff881692820192909252606081018690526080810185905260019060a0016020604051602081039080840390855afa158015613745573d6000803e3d6000fd5b5050604051601f1901519150506001600160a01b03811661376e57600060019250925050613775565b9150600090505b94509492505050565b60008160048111156137a057634e487b7160e01b600052602160045260246000fd5b14156137ab5761109a565b60018160048111156137cd57634e487b7160e01b600052602160045260246000fd5b141561381b5760405162461bcd60e51b815260206004820152601860248201527f45434453413a20696e76616c6964207369676e617475726500000000000000006044820152606401610d60565b600281600481111561383d57634e487b7160e01b600052602160045260246000fd5b141561388b5760405162461bcd60e51b815260206004820152601f60248201527f45434453413a20696e76616c6964207369676e6174757265206c656e677468006044820152606401610d60565b60038160048111156138ad57634e487b7160e01b600052602160045260246000fd5b14156139065760405162461bcd60e51b815260206004820152602260248201527f45434453413a20696e76616c6964207369676e6174757265202773272076616c604482015261756560f01b6064820152608401610d60565b600481600481111561392857634e487b7160e01b600052602160045260246000fd5b141561109a5760405162461bcd60e51b815260206004820152602260248201527f45434453413a20696e76616c6964207369676e6174757265202776272076616c604482015261756560f01b6064820152608401610d60565b60008381526101c76020526040902081831061399d5750612757565b6002600082826139ad8688614b9d565b6139b79190614bb5565b815481106139d557634e487b7160e01b600052603260045260246000fd5b6000918252602090912060029091020154905084845b80821015613cfc575b82858381548110613a1557634e487b7160e01b600052603260045260246000fd5b9060005260206000209060020201600001541015613a3d57613a3682614c83565b91506139f4565b82858281548110613a5e57634e487b7160e01b600052603260045260246000fd5b9060005260206000209060020201600001541115613a8657613a7f81614c37565b9050613a3d565b848181548110613aa657634e487b7160e01b600052603260045260246000fd5b906000526020600020906002020160000154858381548110613ad857634e487b7160e01b600052603260045260246000fd5b9060005260206000209060020201600001541115613ceb57848181548110613b1057634e487b7160e01b600052603260045260246000fd5b906000526020600020906002020160000154858381548110613b4257634e487b7160e01b600052603260045260246000fd5b906000526020600020906002020160000154868481548110613b7457634e487b7160e01b600052603260045260246000fd5b90600052602060002090600202016000016000888581548110613ba757634e487b7160e01b600052603260045260246000fd5b600091825260209091206002909102019290925591909155508454859082908110613be257634e487b7160e01b600052603260045260246000fd5b906000526020600020906002020160010160009054906101000a90046001600160a01b0316858381548110613c2757634e487b7160e01b600052603260045260246000fd5b906000526020600020906002020160010160009054906101000a90046001600160a01b0316868481548110613c6c57634e487b7160e01b600052603260045260246000fd5b90600052602060002090600202016001016000888581548110613c9f57634e487b7160e01b600052603260045260246000fd5b6000918252602090912060016002909202010180546001600160a01b039485166001600160a01b031990911617905581549383166101009190910a908102920219909216179055613cf7565b613cf482614c83565b91505b6139eb565b86811115613d1457613d14888861300b600185614bf4565b613d2988613d23836001614b9d565b88613981565b5050505050505050565b613d3d8282614339565b6099546001600160e01b031015613daf5760405162461bcd60e51b815260206004820152603060248201527f4552433230566f7465733a20746f74616c20737570706c79207269736b73206f60448201526f766572666c6f77696e6720766f74657360801b6064820152608401610d60565b61294761013261275c83614049565b600054610100900460ff16613de55760405162461bcd60e51b8152600401610d6090614b52565b6117f233612e34565b600054610100900460ff16613e155760405162461bcd60e51b8152600401610d6090614b52565b81516020928301208151919092012060c99190915560ca55565b600054610100900460ff16613e565760405162461bcd60e51b8152600401610d6090614b52565b507f6e71edae12b1b97f4d1f60370fef10105fa2faae0126114a169c64845d6126c960fe55565b6060613e8c848460008561442c565b949350505050565b612757613ea084611500565b613ea984611500565b836141fa565b60608315613ebe575081610fbe565b825115613ece5782518084602001fd5b8160405162461bcd60e51b8152600401610d609190614a52565b6001600160a01b038216613f485760405162461bcd60e51b815260206004820152602160248201527f45524332303a206275726e2066726f6d20746865207a65726f206164647265736044820152607360f81b6064820152608401610d60565b613f5482600083613383565b6001600160a01b03821660009081526097602052604090205481811015613fc85760405162461bcd60e51b815260206004820152602260248201527f45524332303a206275726e20616d6f756e7420657863656564732062616c616e604482015261636560f01b6064820152608401610d60565b6001600160a01b0383166000908152609760205260408120838303905560998054849290613ff7908490614bf4565b90915550506040518281526000906001600160a01b038516907fddf252ad1be2c89b69c2b068fc378daa952ba7f163c4a11628f55a4df523b3ef9060200160405180910390a3612757836000846133eb565b8254600090819080156140a25785614062600183614bf4565b8154811061408057634e487b7160e01b600052603260045260246000fd5b60009182526020909120015464010000000090046001600160e01b03166140a5565b60005b6001600160e01b031692506140be83858763ffffffff16565b915060008111801561410a575043866140d8600184614bf4565b815481106140f657634e487b7160e01b600052603260045260246000fd5b60009182526020909120015463ffffffff16145b156141785761411882614549565b86614124600184614bf4565b8154811061414257634e487b7160e01b600052603260045260246000fd5b9060005260206000200160000160046101000a8154816001600160e01b0302191690836001600160e01b031602179055506141f1565b85604051806040016040528061418d43612dcb565b63ffffffff1681526020016141a185614549565b6001600160e01b039081169091528254600181018455600093845260209384902083519101805493909401519091166401000000000263ffffffff91821663ffffffff1990931692909217161790555b50935093915050565b816001600160a01b0316836001600160a01b03161415801561421c5750600081115b15612757576001600160a01b038316156142ab576001600160a01b0383166000908152610131602052604081208190614258906126e885614049565b91509150846001600160a01b03167fdec2bacdd2f05b59de34da9b523dff8be42e5e38e818c82fdb0bae774387a72483836040516142a0929190918252602082015260400190565b60405180910390a250505b6001600160a01b03821615612757576001600160a01b03821660009081526101316020526040812081906142e29061275c85614049565b91509150836001600160a01b03167fdec2bacdd2f05b59de34da9b523dff8be42e5e38e818c82fdb0bae774387a724838360405161432a929190918252602082015260400190565b60405180910390a25050505050565b6001600160a01b03821661438f5760405162461bcd60e51b815260206004820152601f60248201527f45524332303a206d696e7420746f20746865207a65726f2061646472657373006044820152606401610d60565b61439b60008383613383565b80609960008282546143ad9190614b9d565b90915550506001600160a01b038216600090815260976020526040812080548392906143da908490614b9d565b90915550506040518181526001600160a01b038316906000907fddf252ad1be2c89b69c2b068fc378daa952ba7f163c4a11628f55a4df523b3ef9060200160405180910390a36113b5600083836133eb565b60608247101561448d5760405162461bcd60e51b815260206004820152602660248201527f416464726573733a20696e73756666696369656e742062616c616e636520666f6044820152651c8818d85b1b60d21b6064820152608401610d60565b843b6144db5760405162461bcd60e51b815260206004820152601d60248201527f416464726573733a2063616c6c20746f206e6f6e2d636f6e74726163740000006044820152606401610d60565b600080866001600160a01b031685876040516144f79190614a36565b60006040518083038185875af1925050503d8060008114614534576040519150601f19603f3d011682016040523d82523d6000602084013e614539565b606091505b509150915061255b828286613eaf565b60006001600160e01b03821115612e305760405162461bcd60e51b815260206004820152602760248201527f53616665436173743a2076616c756520646f65736e27742066697420696e20326044820152663234206269747360c81b6064820152608401610d60565b8280546145be90614c4e565b90600052602060002090601f0160209004810192826145e05760008555614626565b82601f106145f957805160ff1916838001178555614626565b82800160010185558215614626579182015b8281111561462657825182559160200191906001019061460b565b50612e309291505b80821115612e30576000815560010161462e565b803560ff8116811461151d57600080fd5b600060208284031215614664578081fd5b8135610fbe81614cca565b60008060408385031215614681578081fd5b823561468c81614cca565b9150602083013561469c81614cca565b809150509250929050565b6000806000606084860312156146bb578081fd5b83356146c681614cca565b925060208401356146d681614cca565b929592945050506040919091013590565b600080600080600080600060e0888a031215614701578283fd5b873561470c81614cca565b9650602088013561471c81614cca565b9550604088013594506060880135935061473860808901614642565b925060a0880135915060c0880135905092959891949750929550565b60008060408385031215614766578182fd5b823561477181614cca565b9150602083013567ffffffffffffffff8082111561478d578283fd5b818501915085601f8301126147a0578283fd5b8135818111156147b2576147b2614cb4565b604051601f8201601f19908116603f011681019083821181831017156147da576147da614cb4565b816040528281528860208487010111156147f2578586fd5b82602086016020830137856020848301015280955050505050509250929050565b60008060408385031215614825578182fd5b823561483081614cca565b946020939093013593505050565b60008060008060008060c08789031215614856578182fd5b863561486181614cca565b9550602087013594506040870135935061487d60608801614642565b92506080870135915060a087013590509295509295509295565b600080604083850312156148a9578182fd5b82356148b481614cca565b9150602083013563ffffffff8116811461469c578182fd5b6000602082840312156148dd578081fd5b8151610fbe81614cdf565b600080600080608085870312156148fd578384fd5b843561490881614cca565b9350602085013561491881614cca565b93969395505050506040820135916060013590565b60006020828403121561493e578081fd5b5035919050565b600060208284031215614956578081fd5b5051919050565b6000806040838503121561496f578182fd5b82359150602083013561469c81614cca565b600080600060608486031215614995578081fd5b8335925060208401356146d681614cca565b6000806000606084860312156149bb578081fd5b8335925060208401356149cd81614cca565b915060408401356149dd81614cdf565b809150509250925092565b600080604083850312156149fa578182fd5b50508035926020909101359150565b600080600060608486031215614a1d578081fd5b833592506020840135915060408401356149dd81614cdf565b60008251614a48818460208701614c0b565b9190910192915050565b6000602082528251806020840152614a71816040850160208701614c0b565b601f01601f19169190910160400192915050565b6020808252602c908201527f46756e6374696f6e206d7573742062652063616c6c6564207468726f7567682060408201526b19195b1959d85d1958d85b1b60a21b606082015260800190565b6020808252602c908201527f46756e6374696f6e206d7573742062652063616c6c6564207468726f7567682060408201526b6163746976652070726f787960a01b606082015260800190565b6020808252818101527f4f776e61626c653a2063616c6c6572206973206e6f7420746865206f776e6572604082015260600190565b6020808252602b908201527f496e697469616c697a61626c653a20636f6e7472616374206973206e6f74206960408201526a6e697469616c697a696e6760a81b606082015260800190565b60008219821115614bb057614bb0614c9e565b500190565b600082614bd057634e487b7160e01b81526012600452602481fd5b500490565b6000816000190483118215151615614bef57614bef614c9e565b500290565b600082821015614c0657614c06614c9e565b500390565b60005b83811015614c26578181015183820152602001614c0e565b838111156129475750506000910152565b600081614c4657614c46614c9e565b506000190190565b600281046001821680614c6257607f821691505b60208210811415612f1f57634e487b7160e01b600052602260045260246000fd5b6000600019821415614c9757614c97614c9e565b5060010190565b634e487b7160e01b600052601160045260246000fd5b634e487b7160e01b600052604160045260246000fd5b6001600160a01b038116811461109a57600080fd5b801515811461109a57600080fdfe416464726573733a206c6f772d6c6576656c2064656c65676174652063616c6c206661696c6564a264697066735822122003a01336d167c3f9d5805ca65c7fa3a758d7193329b73fadd416c30d6b91bb3864736f6c63430008020033",
  "linkReferences": {},
  "deployedLinkReferences": {}
}